{
  "contractName": "CertDB",
  "abi": [
    {
      "constant": true,
      "inputs": [
        {
          "name": "",
          "type": "bytes32"
        }
      ],
      "name": "orgsInfo",
      "outputs": [
        {
          "name": "orgID",
          "type": "bytes32"
        },
        {
          "name": "orgIDOri",
          "type": "string"
        },
        {
          "name": "orgName",
          "type": "string"
        },
        {
          "name": "contractAddr",
          "type": "address"
        }
      ],
      "payable": false,
      "stateMutability": "view",
      "type": "function"
    },
    {
      "constant": true,
      "inputs": [
        {
          "name": "",
          "type": "bytes32"
        }
      ],
      "name": "usersInfo",
      "outputs": [
        {
          "name": "studentID",
          "type": "string"
        },
        {
          "name": "name",
          "type": "string"
        },
        {
          "name": "orgID",
          "type": "bytes32"
        },
        {
          "name": "classID",
          "type": "string"
        },
        {
          "name": "role",
          "type": "uint8"
        },
        {
          "name": "userAddr",
          "type": "address"
        }
      ],
      "payable": false,
      "stateMutability": "view",
      "type": "function"
    },
    {
      "inputs": [],
      "payable": false,
      "stateMutability": "nonpayable",
      "type": "constructor"
    },
    {
      "constant": true,
      "inputs": [],
      "name": "getOwner",
      "outputs": [
        {
          "name": "",
          "type": "address"
        }
      ],
      "payable": false,
      "stateMutability": "view",
      "type": "function"
    },
    {
      "constant": false,
      "inputs": [
        {
          "name": "uid",
          "type": "bytes32"
        },
        {
          "name": "ctx",
          "type": "string"
        },
        {
          "name": "didid",
          "type": "string"
        },
        {
          "name": "pubid",
          "type": "string"
        },
        {
          "name": "_type",
          "type": "string"
        },
        {
          "name": "oner",
          "type": "string"
        },
        {
          "name": "_hex",
          "type": "string"
        },
        {
          "name": "knum",
          "type": "uint256"
        },
        {
          "name": "uaddr",
          "type": "address"
        }
      ],
      "name": "setDidInfo",
      "outputs": [],
      "payable": false,
      "stateMutability": "nonpayable",
      "type": "function"
    },
    {
      "constant": true,
      "inputs": [
        {
          "name": "user_id",
          "type": "bytes32"
        }
      ],
      "name": "getDidRecord",
      "outputs": [
        {
          "name": "",
          "type": "string"
        },
        {
          "name": "",
          "type": "string"
        }
      ],
      "payable": false,
      "stateMutability": "view",
      "type": "function"
    },
    {
      "constant": true,
      "inputs": [
        {
          "name": "user_id",
          "type": "bytes32"
        },
        {
          "name": "key_num",
          "type": "uint256"
        }
      ],
      "name": "getPublickeyHex",
      "outputs": [
        {
          "name": "",
          "type": "string"
        }
      ],
      "payable": false,
      "stateMutability": "view",
      "type": "function"
    },
    {
      "constant": false,
      "inputs": [
        {
          "name": "uid",
          "type": "bytes32"
        },
        {
          "name": "org_id",
          "type": "bytes32"
        },
        {
          "name": "class_id",
          "type": "string"
        },
        {
          "name": "urole",
          "type": "uint8"
        },
        {
          "name": "stuID",
          "type": "string"
        },
        {
          "name": "name",
          "type": "string"
        }
      ],
      "name": "insertUser",
      "outputs": [],
      "payable": false,
      "stateMutability": "nonpayable",
      "type": "function"
    },
    {
      "constant": true,
      "inputs": [
        {
          "name": "user_id",
          "type": "bytes32"
        }
      ],
      "name": "getUserInfo",
      "outputs": [
        {
          "name": "",
          "type": "bytes32"
        },
        {
          "name": "",
          "type": "string"
        },
        {
          "name": "",
          "type": "uint8"
        },
        {
          "name": "",
          "type": "address"
        },
        {
          "name": "",
          "type": "string"
        },
        {
          "name": "",
          "type": "string"
        }
      ],
      "payable": false,
      "stateMutability": "view",
      "type": "function"
    },
    {
      "constant": true,
      "inputs": [
        {
          "name": "user_id",
          "type": "bytes32"
        }
      ],
      "name": "getUserOrg",
      "outputs": [
        {
          "name": "",
          "type": "bytes32"
        }
      ],
      "payable": false,
      "stateMutability": "view",
      "type": "function"
    },
    {
      "constant": true,
      "inputs": [
        {
          "name": "user_id",
          "type": "bytes32"
        }
      ],
      "name": "getUserClass",
      "outputs": [
        {
          "name": "",
          "type": "string"
        }
      ],
      "payable": false,
      "stateMutability": "view",
      "type": "function"
    },
    {
      "constant": true,
      "inputs": [
        {
          "name": "user_id",
          "type": "bytes32"
        }
      ],
      "name": "getUserAddress",
      "outputs": [
        {
          "name": "",
          "type": "address"
        }
      ],
      "payable": false,
      "stateMutability": "view",
      "type": "function"
    },
    {
      "constant": true,
      "inputs": [
        {
          "name": "user_id",
          "type": "bytes32"
        }
      ],
      "name": "getUserRole",
      "outputs": [
        {
          "name": "",
          "type": "uint8"
        }
      ],
      "payable": false,
      "stateMutability": "view",
      "type": "function"
    },
    {
      "constant": false,
      "inputs": [
        {
          "name": "org_id",
          "type": "bytes32"
        },
        {
          "name": "org_id_ori",
          "type": "string"
        },
        {
          "name": "org_name",
          "type": "string"
        },
        {
          "name": "org_contract",
          "type": "address"
        }
      ],
      "name": "setOrgInfo",
      "outputs": [],
      "payable": false,
      "stateMutability": "nonpayable",
      "type": "function"
    },
    {
      "constant": true,
      "inputs": [
        {
          "name": "org_id",
          "type": "bytes32"
        }
      ],
      "name": "getOrgInfo",
      "outputs": [
        {
          "name": "",
          "type": "string"
        },
        {
          "name": "",
          "type": "address"
        },
        {
          "name": "",
          "type": "string"
        }
      ],
      "payable": false,
      "stateMutability": "view",
      "type": "function"
    },
    {
      "constant": true,
      "inputs": [
        {
          "name": "org_id",
          "type": "bytes32"
        }
      ],
      "name": "getOrgName",
      "outputs": [
        {
          "name": "",
          "type": "string"
        }
      ],
      "payable": false,
      "stateMutability": "view",
      "type": "function"
    },
    {
      "constant": true,
      "inputs": [
        {
          "name": "org_id",
          "type": "bytes32"
        }
      ],
      "name": "getContractAddress",
      "outputs": [
        {
          "name": "",
          "type": "address"
        }
      ],
      "payable": false,
      "stateMutability": "view",
      "type": "function"
    },
    {
      "constant": true,
      "inputs": [
        {
          "name": "org_id",
          "type": "bytes32"
        }
      ],
      "name": "getTeacherList",
      "outputs": [
        {
          "name": "",
          "type": "bytes32[]"
        }
      ],
      "payable": false,
      "stateMutability": "view",
      "type": "function"
    },
    {
      "constant": true,
      "inputs": [
        {
          "name": "org_id",
          "type": "bytes32"
        },
        {
          "name": "class_id",
          "type": "string"
        }
      ],
      "name": "getStudentList",
      "outputs": [
        {
          "name": "",
          "type": "bytes32[]"
        }
      ],
      "payable": false,
      "stateMutability": "view",
      "type": "function"
    },
    {
      "constant": true,
      "inputs": [
        {
          "name": "org_id",
          "type": "bytes32"
        }
      ],
      "name": "getDistinctClass",
      "outputs": [
        {
          "name": "",
          "type": "bytes32[]"
        }
      ],
      "payable": false,
      "stateMutability": "view",
      "type": "function"
    }
  ],
  "bytecode": "0x608060405234801561001057600080fd5b50336000806101000a81548173ffffffffffffffffffffffffffffffffffffffff021916908373ffffffffffffffffffffffffffffffffffffffff1602179055506128a4806100606000396000f300608060405260043610610107576000357c0100000000000000000000000000000000000000000000000000000000900463ffffffff16806301f2bd0c1461010c5780630b3df45e146101b65780630d2020dd1461026a578063195541cc146102db5780632853cc70146103855780634a4e8884146104625780635262ecdf146104d35780635a867c721461059f5780636a275e4f146106b557806372855d581461073b57806379c3a64a146108845780638205daf3146109dc578063893d20e814610afa578063a95ceb6414610b51578063adff8b0f14610b9c578063d1ce1e4414610d6d578063e2135fb014610df3578063f5b94ce614610ff2578063fb16092b1461103f575b600080fd5b34801561011857600080fd5b5061013b6004803603810190808035600019169060200190929190505050611210565b6040518080602001828103825283818151815260200191508051906020019080838360005b8381101561017b578082015181840152602081019050610160565b50505050905090810190601f1680156101a85780820380516001836020036101000a031916815260200191505b509250505060405180910390f35b3480156101c257600080fd5b506101ef6004803603810190808035600019169060200190929190803590602001909291905050506112d0565b6040518080602001828103825283818151815260200191508051906020019080838360005b8381101561022f578082015181840152602081019050610214565b50505050905090810190601f16801561025c5780820380516001836020036101000a031916815260200191505b509250505060405180910390f35b34801561027657600080fd5b5061029960048036038101908080356000191690602001909291905050506113a5565b604051808273ffffffffffffffffffffffffffffffffffffffff1673ffffffffffffffffffffffffffffffffffffffff16815260200191505060405180910390f35b3480156102e757600080fd5b5061030a60048036038101908080356000191690602001909291905050506113ed565b6040518080602001828103825283818151815260200191508051906020019080838360005b8381101561034a57808201518184015260208101905061032f565b50505050905090810190601f1680156103775780820380516001836020036101000a031916815260200191505b509250505060405180910390f35b34801561039157600080fd5b506104606004803603810190808035600019169060200190929190803590602001908201803590602001908080601f0160208091040260200160405190810160405280939291908181526020018383808284378201915050505050509192919290803590602001908201803590602001908080601f0160208091040260200160405190810160405280939291908181526020018383808284378201915050505050509192919290803573ffffffffffffffffffffffffffffffffffffffff1690602001909291905050506114ad565b005b34801561046e57600080fd5b506104916004803603810190808035600019169060200190929190505050611576565b604051808273ffffffffffffffffffffffffffffffffffffffff1673ffffffffffffffffffffffffffffffffffffffff16815260200191505060405180910390f35b3480156104df57600080fd5b506105486004803603810190808035600019169060200190929190803590602001908201803590602001908080601f01602080910402602001604051908101604052809392919081815260200183838082843782019150505050505091929192905050506115be565b6040518080602001828103825283818151815260200191508051906020019060200280838360005b8381101561058b578082015181840152602081019050610570565b505050509050019250505060405180910390f35b3480156105ab57600080fd5b506105ce600480360381019080803560001916906020019092919050505061164b565b604051808060200180602001838103835285818151815260200191508051906020019080838360005b838110156106125780820151818401526020810190506105f7565b50505050905090810190601f16801561063f5780820380516001836020036101000a031916815260200191505b50838103825284818151815260200191508051906020019080838360005b8381101561067857808201518184015260208101905061065d565b50505050905090810190601f1680156106a55780820380516001836020036101000a031916815260200191505b5094505050505060405180910390f35b3480156106c157600080fd5b506106e460048036038101908080356000191690602001909291905050506117cb565b6040518080602001828103825283818151815260200191508051906020019060200280838360005b8381101561072757808201518184015260208101905061070c565b505050509050019250505060405180910390f35b34801561074757600080fd5b5061076a600480360381019080803560001916906020019092919050505061196e565b60405180806020018473ffffffffffffffffffffffffffffffffffffffff1673ffffffffffffffffffffffffffffffffffffffff16815260200180602001838103835286818151815260200191508051906020019080838360005b838110156107e05780820151818401526020810190506107c5565b50505050905090810190601f16801561080d5780820380516001836020036101000a031916815260200191505b50838103825284818151815260200191508051906020019080838360005b8381101561084657808201518184015260208101905061082b565b50505050905090810190601f1680156108735780820380516001836020036101000a031916815260200191505b509550505050505060405180910390f35b34801561089057600080fd5b506108b36004803603810190808035600019169060200190929190505050611b34565b60405180856000191660001916815260200180602001806020018473ffffffffffffffffffffffffffffffffffffffff1673ffffffffffffffffffffffffffffffffffffffff168152602001838103835286818151815260200191508051906020019080838360005b8381101561093757808201518184015260208101905061091c565b50505050905090810190601f1680156109645780820380516001836020036101000a031916815260200191505b50838103825285818151815260200191508051906020019080838360005b8381101561099d578082015181840152602081019050610982565b50505050905090810190601f1680156109ca5780820380516001836020036101000a031916815260200191505b50965050505050505060405180910390f35b3480156109e857600080fd5b50610af860048036038101908080356000191690602001909291908035600019169060200190929190803590602001908201803590602001908080601f0160208091040260200160405190810160405280939291908181526020018383808284378201915050505050509192919290803560ff169060200190929190803590602001908201803590602001908080601f0160208091040260200160405190810160405280939291908181526020018383808284378201915050505050509192919290803590602001908201803590602001908080601f0160208091040260200160405190810160405280939291908181526020018383808284378201915050505050509192919290505050611cb4565b005b348015610b0657600080fd5b50610b0f611f7b565b604051808273ffffffffffffffffffffffffffffffffffffffff1673ffffffffffffffffffffffffffffffffffffffff16815260200191505060405180910390f35b348015610b5d57600080fd5b50610b806004803603810190808035600019169060200190929190505050611fa4565b604051808260ff1660ff16815260200191505060405180910390f35b348015610ba857600080fd5b50610bcb6004803603810190808035600019169060200190929190505050611fd9565b604051808760001916600019168152602001806020018660ff1660ff1681526020018573ffffffffffffffffffffffffffffffffffffffff1673ffffffffffffffffffffffffffffffffffffffff1681526020018060200180602001848103845289818151815260200191508051906020019080838360005b83811015610c5f578082015181840152602081019050610c44565b50505050905090810190601f168015610c8c5780820380516001836020036101000a031916815260200191505b50848103835286818151815260200191508051906020019080838360005b83811015610cc5578082015181840152602081019050610caa565b50505050905090810190601f168015610cf25780820380516001836020036101000a031916815260200191505b50848103825285818151815260200191508051906020019080838360005b83811015610d2b578082015181840152602081019050610d10565b50505050905090810190601f168015610d585780820380516001836020036101000a031916815260200191505b50995050505050505050505060405180910390f35b348015610d7957600080fd5b50610d9c60048036038101908080356000191690602001909291905050506122c9565b6040518080602001828103825283818151815260200191508051906020019060200280838360005b83811015610ddf578082015181840152602081019050610dc4565b505050509050019250505060405180910390f35b348015610dff57600080fd5b50610ff06004803603810190808035600019169060200190929190803590602001908201803590602001908080601f0160208091040260200160405190810160405280939291908181526020018383808284378201915050505050509192919290803590602001908201803590602001908080601f0160208091040260200160405190810160405280939291908181526020018383808284378201915050505050509192919290803590602001908201803590602001908080601f0160208091040260200160405190810160405280939291908181526020018383808284378201915050505050509192919290803590602001908201803590602001908080601f0160208091040260200160405190810160405280939291908181526020018383808284378201915050505050509192919290803590602001908201803590602001908080601f0160208091040260200160405190810160405280939291908181526020018383808284378201915050505050509192919290803590602001908201803590602001908080601f016020809104026020016040519081016040528093929190818152602001838380828437820191505050505050919291929080359060200190929190803573ffffffffffffffffffffffffffffffffffffffff169060200190929190505050612340565b005b348015610ffe57600080fd5b50611021600480360381019080803560001916906020019092919050505061252a565b60405180826000191660001916815260200191505060405180910390f35b34801561104b57600080fd5b5061106e6004803603810190808035600019169060200190929190505050612552565b6040518080602001806020018760001916600019168152602001806020018660ff1660ff1681526020018573ffffffffffffffffffffffffffffffffffffffff1673ffffffffffffffffffffffffffffffffffffffff16815260200184810384528a818151815260200191508051906020019080838360005b838110156111025780820151818401526020810190506110e7565b50505050905090810190601f16801561112f5780820380516001836020036101000a031916815260200191505b50848103835289818151815260200191508051906020019080838360005b8381101561116857808201518184015260208101905061114d565b50505050905090810190601f1680156111955780820380516001836020036101000a031916815260200191505b50848103825287818151815260200191508051906020019080838360005b838110156111ce5780820151818401526020810190506111b3565b50505050905090810190601f1680156111fb5780820380516001836020036101000a031916815260200191505b50995050505050505050505060405180910390f35b60606002600083600019166000191681526020019081526020016000206003018054600181600116156101000203166002900480601f0160208091040260200160405190810160405280929190818152602001828054600181600116156101000203166002900480156112c45780601f10611299576101008083540402835291602001916112c4565b820191906000526020600020905b8154815290600101906020018083116112a757829003601f168201915b50505050509050919050565b606060016000846000191660001916815260200190815260200160002060020160008381526020019081526020016000206003018054600181600116156101000203166002900480601f0160208091040260200160405190810160405280929190818152602001828054600181600116156101000203166002900480156113985780601f1061136d57610100808354040283529160200191611398565b820191906000526020600020905b81548152906001019060200180831161137b57829003601f168201915b5050505050905092915050565b600060036000836000191660001916815260200190815260200160002060030160009054906101000a900473ffffffffffffffffffffffffffffffffffffffff169050919050565b60606003600083600019166000191681526020019081526020016000206002018054600181600116156101000203166002900480601f0160208091040260200160405190810160405280929190818152602001828054600181600116156101000203166002900480156114a15780601f10611476576101008083540402835291602001916114a1565b820191906000526020600020905b81548152906001019060200180831161148457829003601f168201915b50505050509050919050565b8160036000866000191660001916815260200190815260200160002060020190805190602001906114df9291906127d3565b508260036000866000191660001916815260200190815260200160002060010190805190602001906115129291906127d3565b508060036000866000191660001916815260200190815260200160002060030160006101000a81548173ffffffffffffffffffffffffffffffffffffffff021916908373ffffffffffffffffffffffffffffffffffffffff16021790555050505050565b600060026000836000191660001916815260200190815260200160002060040160019054906101000a900473ffffffffffffffffffffffffffffffffffffffff169050919050565b60606000806115cc84612783565b9150818518905060046000826000191660001916815260200190815260200160002080548060200260200160405190810160405280929190818152602001828054801561163c57602002820191906000526020600020905b81546000191681526020019060010190808311611624575b50505050509250505092915050565b606080600160008460001916600019168152602001908152602001600020600001600160008560001916600019168152602001908152602001600020600101818054600181600116156101000203166002900480601f01602080910402602001604051908101604052809291908181526020018280546001816001161561010002031660029004801561171f5780601f106116f45761010080835404028352916020019161171f565b820191906000526020600020905b81548152906001019060200180831161170257829003601f168201915b50505050509150808054600181600116156101000203166002900480601f0160208091040260200160405190810160405280929190818152602001828054600181600116156101000203166002900480156117bb5780601f10611790576101008083540402835291602001916117bb565b820191906000526020600020905b81548152906001019060200180831161179e57829003601f168201915b5050505050905091509150915091565b60608060606000600660008660001916600019168152602001908152602001600020805480602002602001604051908101604052809291908181526020016000905b828210156118c9578382906000526020600020018054600181600116156101000203166002900480601f0160208091040260200160405190810160405280929190818152602001828054600181600116156101000203166002900480156118b55780601f1061188a576101008083540402835291602001916118b5565b820191906000526020600020905b81548152906001019060200180831161189857829003601f168201915b50505050508152602001906001019061180d565b50505050925082516040519080825280602002602001820160405280156118ff5781602001602082028038833980820191505090505b509150600090505b825181101561196357611930838281518110151561192157fe5b90602001906020020151612783565b828281518110151561193e57fe5b9060200190602002019060001916908160001916815250508080600101915050611907565b819350505050919050565b60606000606060036000856000191660001916815260200190815260200160002060020160036000866000191660001916815260200190815260200160002060030160009054906101000a900473ffffffffffffffffffffffffffffffffffffffff16600360008760001916600019168152602001908152602001600020600101828054600181600116156101000203166002900480601f016020809104026020016040519081016040528092919081815260200182805460018160011615610100020316600290048015611a845780601f10611a5957610100808354040283529160200191611a84565b820191906000526020600020905b815481529060010190602001808311611a6757829003601f168201915b50505050509250808054600181600116156101000203166002900480601f016020809104026020016040519081016040528092919081815260200182805460018160011615610100020316600290048015611b205780601f10611af557610100808354040283529160200191611b20565b820191906000526020600020905b815481529060010190602001808311611b0357829003601f168201915b505050505090509250925092509193909250565b6003602052806000526040600020600091509050806000015490806001018054600181600116156101000203166002900480601f016020809104026020016040519081016040528092919081815260200182805460018160011615610100020316600290048015611be65780601f10611bbb57610100808354040283529160200191611be6565b820191906000526020600020905b815481529060010190602001808311611bc957829003601f168201915b505050505090806002018054600181600116156101000203166002900480601f016020809104026020016040519081016040528092919081815260200182805460018160011615610100020316600290048015611c845780601f10611c5957610100808354040283529160200191611c84565b820191906000526020600020905b815481529060010190602001808311611c6757829003601f168201915b5050505050908060030160009054906101000a900473ffffffffffffffffffffffffffffffffffffffff16905084565b60008086600260008a60001916600019168152602001908152602001600020600201816000191690555085600260008a600019166000191681526020019081526020016000206003019080519060200190611d109291906127d3565b5084600260008a6000191660001916815260200190815260200160002060040160006101000a81548160ff021916908360ff16021790555082600260008a600019166000191681526020019081526020016000206001019080519060200190611d7a9291906127d3565b5083600260008a600019166000191681526020019081526020016000206000019080519060200190611dad9291906127d3565b50611db786612783565b91508187189050611dc7866127ae565b1515611ebc576007600088600019166000191681526020019081526020016000206000836000191660001916815260200190815260200160002060009054906101000a900460ff161515611ebb5760016007600089600019166000191681526020019081526020016000206000846000191660001916815260200190815260200160002060006101000a81548160ff021916908315150217905550600660008860001916600019168152602001908152602001600020869080600181540180825580915050906001820390600052602060002001600090919290919091509080519060200190611eb89291906127d3565b50505b5b60038560ff161415611f1857600460008260001916600019168152602001908152602001600020889080600181540180825580915050906001820390600052602060002001600090919290919091509060001916905550611f71565b60018560ff161415611f70576005600088600019166000191681526020019081526020016000208890806001815401808255809150509060018203906000526020600020016000909192909190915090600019169055505b5b5050505050505050565b60008060009054906101000a900473ffffffffffffffffffffffffffffffffffffffff16905090565b600060026000836000191660001916815260200190815260200160002060040160009054906101000a900460ff169050919050565b6000606060008060608060006060600080606080600260008e60001916600019168152602001908152602001600020600201549550600260008e600019166000191681526020019081526020016000206003018054600181600116156101000203166002900480601f0160208091040260200160405190810160405280929190818152602001828054600181600116156101000203166002900480156120c05780601f10612095576101008083540402835291602001916120c0565b820191906000526020600020905b8154815290600101906020018083116120a357829003601f168201915b50505050509450600260008e6000191660001916815260200190815260200160002060040160009054906101000a900460ff169350600260008e6000191660001916815260200190815260200160002060040160019054906101000a900473ffffffffffffffffffffffffffffffffffffffff169250600260008e600019166000191681526020019081526020016000206001018054600181600116156101000203166002900480601f0160208091040260200160405190810160405280929190818152602001828054600181600116156101000203166002900480156121e85780601f106121bd576101008083540402835291602001916121e8565b820191906000526020600020905b8154815290600101906020018083116121cb57829003601f168201915b50505050509150600260008e600019166000191681526020019081526020016000206000018054600181600116156101000203166002900480601f0160208091040260200160405190810160405280929190818152602001828054600181600116156101000203166002900480156122a15780601f10612276576101008083540402835291602001916122a1565b820191906000526020600020905b81548152906001019060200180831161228457829003601f168201915b505050505090508585858585859b509b509b509b509b509b5050505050505091939550919395565b606060056000836000191660001916815260200190815260200160002080548060200260200160405190810160405280929190818152602001828054801561233457602002820191906000526020600020905b8154600019168152602001906001019080831161231c575b50505050509050919050565b87600160008b6000191660001916815260200190815260200160002060000190805190602001906123729291906127d3565b5086600160008b6000191660001916815260200190815260200160002060010190805190602001906123a59291906127d3565b5085600160008b60001916600019168152602001908152602001600020600201600084815260200190815260200160002060000190805190602001906123ec9291906127d3565b5084600160008b60001916600019168152602001908152602001600020600201600084815260200190815260200160002060010190805190602001906124339291906127d3565b5083600160008b600019166000191681526020019081526020016000206002016000848152602001908152602001600020600201908051906020019061247a9291906127d3565b5082600160008b60001916600019168152602001908152602001600020600201600084815260200190815260200160002060030190805190602001906124c19291906127d3565b5080600260008b6000191660001916815260200190815260200160002060040160016101000a81548173ffffffffffffffffffffffffffffffffffffffff021916908373ffffffffffffffffffffffffffffffffffffffff160217905550505050505050505050565b6000600260008360001916600019168152602001908152602001600020600201549050919050565b6002602052806000526040600020600091509050806000018054600181600116156101000203166002900480601f0160208091040260200160405190810160405280929190818152602001828054600181600116156101000203166002900480156125fe5780601f106125d3576101008083540402835291602001916125fe565b820191906000526020600020905b8154815290600101906020018083116125e157829003601f168201915b505050505090806001018054600181600116156101000203166002900480601f01602080910402602001604051908101604052809291908181526020018280546001816001161561010002031660029004801561269c5780601f106126715761010080835404028352916020019161269c565b820191906000526020600020905b81548152906001019060200180831161267f57829003601f168201915b505050505090806002015490806003018054600181600116156101000203166002900480601f0160208091040260200160405190810160405280929190818152602001828054600181600116156101000203166002900480156127405780601f1061271557610100808354040283529160200191612740565b820191906000526020600020905b81548152906001019060200180831161272357829003601f168201915b5050505050908060040160009054906101000a900460ff16908060040160019054906101000a900473ffffffffffffffffffffffffffffffffffffffff16905086565b600060608290506000815114156127a057600060010291506127a8565b602083015191505b50919050565b600060608290506000815114156127c857600191506127cd565b600091505b50919050565b828054600181600116156101000203166002900490600052602060002090601f016020900481019282601f1061281457805160ff1916838001178555612842565b82800160010185558215612842579182015b82811115612841578251825591602001919060010190612826565b5b50905061284f9190612853565b5090565b61287591905b80821115612871576000816000905550600101612859565b5090565b905600a165627a7a72305820075c0b005d4d0bd1b52c86646776096feeb40200f52e7dcc5450352b2ce00d4e0029",
  "source": "pragma solidity ^0.4.23;\n\n\ncontract CertDB{\n    \n    address owner;  \n \n    \n    struct UsersInfo{\n        string studentID;\n        string name;\n        bytes32 orgID;\n        string classID;\n        uint8 role;\n        address userAddr;\n    }\n    struct OrgsInfo{\n        bytes32 orgID;\n        string orgIDOri;\n        string orgName;\n        address contractAddr;\n    }\n\n    struct PublickeyStruct{\n        string publickeyid;\n        string publickeytype;\n        string publickeyowner;\n        string publickeyhex;\n        \n    }\n\n    struct Didrecord{\n        string context;\n        string didid;\n        mapping(uint =>  PublickeyStruct) pubdetail;\n        \n        string[] authentication;\n        string[] service;\n        string[] proof;\n    }\n    \n    mapping( bytes32 => Didrecord)  didrecord;\n    mapping( bytes32 => UsersInfo ) public usersInfo;\n    mapping( bytes32 => OrgsInfo ) public orgsInfo;\n\n\n    mapping(bytes32 =>bytes32[]) query_studentlist;\n    mapping(bytes32=>bytes32[]) query_school_teacher;\n    mapping(bytes32 =>string[]) query_classlist;\n    mapping(bytes32=>  mapping(bytes32 => bool)) classMapList;\n\n    constructor () public{\n        owner = msg.sender;         \n    }\n    \n    function getOwner() public view returns(address){\n        return owner;\n    }    \n    //--------------did------------------\n    function setDidInfo(bytes32 uid,string ctx,string didid,string pubid, string _type, string oner, string _hex,uint knum,address uaddr)public{\n        //set didrecord\n        didrecord[uid].context = ctx;\n        didrecord[uid].didid = didid;\n        \n        //set publickeyid\n       // string owner = didrecord[user_id].didid;\n        didrecord[uid].pubdetail[knum].publickeyid = pubid;\n        didrecord[uid].pubdetail[knum].publickeytype = _type;\n        didrecord[uid].pubdetail[knum].publickeyowner = oner;\n        didrecord[uid].pubdetail[knum].publickeyhex = _hex;\n        \n        //setUserAddr\n        usersInfo[uid].userAddr = uaddr;\n    }\n\n    //never used in api2\n    /*\n    function setdidrecord(bytes32 user_id, string _context, string _id){\n        didrecord[user_id].context = _context;\n        didrecord[user_id].didid = _id;\n    }\n    \n    function setpublickey(bytes32 user_id, string _id, string _type, string _owner, string _hex,uint key_num){\n        string owner = didrecord[user_id].didid;\n        didrecord[user_id].pubdetail[key_num][owner].publickeyid = _id;\n        didrecord[user_id].pubdetail[key_num][owner].publickeytype = _type;\n        didrecord[user_id].pubdetail[key_num][owner].publickeyowner = _owner;\n        didrecord[user_id].pubdetail[key_num][owner].publickeyhex = _hex;\n    }\n*/\n    //getdidrecord\n    function getDidRecord(bytes32 user_id)view public returns(string, string) {\n        return(didrecord[user_id].context, didrecord[user_id].didid);\n    }\n    /*\n    function getdidpublickey(bytes32 user_id,uint key_num)constant returns(string, string, string, string) {\n        string did = didrecord[user_id].didid;\n        return(didrecord[user_id].pubdetail[key_num][did].publickeyid, didrecord[user_id].pubdetail[key_num][did].publickeytype, didrecord[user_id].pubdetail[key_num][did].publickeyowner, didrecord[user_id].pubdetail[key_num][did].publickeyhex);\n    }\n   */\n   //getpublickeyhex\n    function getPublickeyHex(bytes32 user_id,uint key_num)view public returns(string ){\n        \n        return (didrecord[user_id].pubdetail[key_num].publickeyhex);\n    }\n\n    //----------userinfo--------------\n    //never used in api2\n   /*function setUserAddr(bytes32 user_id ,address useraddr) {\n        usersInfo[user_id].userAddr = useraddr;\n    }*/\n\n\n\n\n//setuserinfo, distinctclass, StudentList\n    function insertUser(bytes32 uid, bytes32 org_id, string class_id, uint8 urole, string stuID, string name)  public{\n        //set userinfo\n        usersInfo[uid].orgID = org_id;\n        usersInfo[uid].classID = class_id;\n        usersInfo[uid].role = urole;\n        usersInfo[uid].name = name;\n        usersInfo[uid].studentID = stuID;\n        bytes32 class_byte32 = stringToBytes32(class_id);\n        bytes32 org_class = org_id^class_byte32;\n        //set distinctclass\n        if(/*query_classlist[org_id].length>0 &&*/ !isEmptyString(class_id)){\n            if(!classMapList[org_id][class_byte32]){\n                // Append\n                classMapList[org_id][class_byte32] = true;\n                query_classlist[org_id].push(class_id);\n            }\n        }\n        //set studentlist\n        if(urole==3){\n            query_studentlist[org_class].push(uid);\n        }\n        else if(urole==1){\n            query_school_teacher[org_id].push(uid);\n        }\n        \n    }\n/*\n    function setUserInfo(bytes32 user_id,bytes32 org_id,string class_id, uint8 user_role, string studentID, string name) public{\n        usersInfo[user_id].orgID = org_id;\n        usersInfo[user_id].classID = class_id;\n        usersInfo[user_id].role = user_role;\n        usersInfo[user_id].name = name;\n        usersInfo[user_id].studentID = studentID;\n\n    }\n*/\n    function getUserInfo(bytes32 user_id)view public returns(bytes32,string,uint8,address,string,string){\n        \n        bytes32 orgID = usersInfo[user_id].orgID;\n        string memory classID = usersInfo[user_id].classID;\n        uint8  role = usersInfo[user_id].role;\n        address  useraddr = usersInfo[user_id].userAddr;\n        string memory name = usersInfo[user_id].name;\n        string memory studentID = usersInfo[user_id].studentID;\n        return (orgID,classID,role,useraddr,name,studentID);\n    }\n\n    function getUserOrg(bytes32 user_id)view public returns (bytes32){\n        return usersInfo[user_id].orgID;\n    }\n    function getUserClass(bytes32 user_id)view public  returns (string){\n        return usersInfo[user_id].classID;\n    }\n    function getUserAddress(bytes32 user_id)  view public returns (address){\n        return usersInfo[user_id].userAddr;\n    }\n    function getUserRole(bytes32 user_id)view public returns (uint8){\n        return usersInfo[user_id].role;\n    }\n\n    //---------------org info----------------\n    \n    function setOrgInfo(bytes32 org_id, string org_id_ori, string org_name, address org_contract) public{\n        orgsInfo[org_id].orgName = org_name;\n        orgsInfo[org_id].orgIDOri = org_id_ori;\n        orgsInfo[org_id].contractAddr = org_contract;\n    }\n    function getOrgInfo(bytes32 org_id)view public returns (string, address, string){\n        return (orgsInfo[org_id].orgName,orgsInfo[org_id].contractAddr, orgsInfo[org_id].orgIDOri);\n    }\n    function getOrgName(bytes32 org_id)view public returns (string){\n        return orgsInfo[org_id].orgName;\n    }\n    function getContractAddress(bytes32 org_id)view public returns ( address){\n        return orgsInfo[org_id].contractAddr;\n    }\n\n   //---------------query---------------------\n/*\n    function addStudentBySchoolClass(string org_class, bytes32 user_id)public {\n        //string memory key = concat_school_class(org_id,class_id);\n        query_studentlist[org_class].push(user_id);\n    }\n    */\n    function getTeacherList(bytes32 org_id) view public returns(bytes32[]){       \n        \n        return query_school_teacher[org_id];\n\n    }\n    function getStudentList(bytes32 org_id,string class_id) view public returns(bytes32[]){\n        bytes32 class_byte32 = stringToBytes32(class_id);\n        bytes32 org_class = org_id^class_byte32;\n        \n        return query_studentlist[org_class];\n\n    }\n    /*\n    function addDistinctClass(bytes32 org_id, string class_id)public{\n        if( !isEmptyString(class_id)){\n            if(!inArray(org_id,class_id)){\n                // Append\n                classMapList[org_id][class_id] = true;\n                query_classlist[org_id].push(class_id);\n            }\n        }\n    }\n*/\n\n    function getDistinctClass(bytes32 org_id) view public returns(bytes32[]){\n        string[] memory class_list = query_classlist[org_id];\n        bytes32[] memory result = new bytes32[](class_list.length);\n        for (uint i = 0; i < class_list.length; i++) {\n            result[i] = stringToBytes32(class_list[i]);\n        }\n        return  result;\n    }\n    \n\n\n    \n    //------------utility------------------\n   \n    function stringToBytes32(string memory source) pure internal returns (bytes32 result) {\n        bytes memory tempEmptyStringTest = bytes(source);\n        if (tempEmptyStringTest.length == 0) {\n            return 0x0;\n        }\n        \n        assembly {\n            result := mload(add(source, 32))\n        }        \n    }\n    \n    function isEmptyString(string emptyStringTest) pure internal returns(bool){\n        bytes memory tempEmptyStringTest = bytes(emptyStringTest); // Uses memory\n        if (tempEmptyStringTest.length == 0) {\n            return true;\n        // emptyStringTest is an empty string\n        } else {\n        // emptyStringTest is not an empty string\n            return false;\n        }\n    }\n    /*\n    function inArray(bytes32 school_id, string class_id) internal view returns (bool) {\n        \n        // address 0x0 is not valid if pos is 0 is not in the array\n        if (!isEmptyString(class_id) && classMapList[school_id][class_id]) {\n            return true;\n        }        \n        return false;\n    }*/\n    \n}\n",
  "sourcePath": "/home/shanehung/Works/dadu3cert-core/cert-contract/contracts/CertDB.sol",
  "compiler": {
    "name": "solc",
    "version": "0.4.24+commit.e67f0147.Emscripten.clang"
  },
  "schemaVersion": "2.0.1",
  "updatedAt": "2019-01-07T08:15:13.956Z"
}