{
  "contractName": "Cert",
  "abi": [
    {
      "inputs": [],
      "payable": false,
      "stateMutability": "nonpayable",
      "type": "constructor"
    },
    {
      "constant": true,
      "inputs": [],
      "name": "getContractAddr",
      "outputs": [
        {
          "name": "",
          "type": "address"
        }
      ],
      "payable": false,
      "stateMutability": "view",
      "type": "function"
    },
    {
      "constant": false,
      "inputs": [
        {
          "name": "issue_id",
          "type": "uint256"
        },
        {
          "name": "certID",
          "type": "uint256[]"
        },
        {
          "name": "issuer_addr",
          "type": "address"
        },
        {
          "name": "signer_addr",
          "type": "address[]"
        },
        {
          "name": "signer_id",
          "type": "bytes32[]"
        },
        {
          "name": "cert_name",
          "type": "string"
        },
        {
          "name": "description",
          "type": "string"
        },
        {
          "name": "timestamp",
          "type": "string"
        }
      ],
      "name": "issueCommon",
      "outputs": [],
      "payable": false,
      "stateMutability": "nonpayable",
      "type": "function"
    },
    {
      "constant": false,
      "inputs": [
        {
          "name": "issue_id",
          "type": "uint256"
        },
        {
          "name": "certID",
          "type": "uint256[]"
        },
        {
          "name": "user_id",
          "type": "bytes32[]"
        },
        {
          "name": "owner_addr",
          "type": "address[]"
        },
        {
          "name": "cert_hash",
          "type": "bytes32[]"
        },
        {
          "name": "json_hash",
          "type": "bytes32[]"
        },
        {
          "name": "signer_addr",
          "type": "address[]"
        },
        {
          "name": "ipfs_addr",
          "type": "bytes1[46][]"
        }
      ],
      "name": "issueDetail",
      "outputs": [],
      "payable": false,
      "stateMutability": "nonpayable",
      "type": "function"
    },
    {
      "constant": false,
      "inputs": [
        {
          "name": "user_addr",
          "type": "address[]"
        },
        {
          "name": "cert_id",
          "type": "uint256[]"
        }
      ],
      "name": "pushCertIDToOwner",
      "outputs": [],
      "payable": false,
      "stateMutability": "nonpayable",
      "type": "function"
    },
    {
      "constant": false,
      "inputs": [
        {
          "name": "certID",
          "type": "uint256"
        },
        {
          "name": "publickey",
          "type": "string"
        },
        {
          "name": "signer",
          "type": "address"
        },
        {
          "name": "sjws",
          "type": "string"
        }
      ],
      "name": "sign",
      "outputs": [],
      "payable": false,
      "stateMutability": "nonpayable",
      "type": "function"
    },
    {
      "constant": false,
      "inputs": [
        {
          "name": "certID",
          "type": "uint256"
        }
      ],
      "name": "revoke",
      "outputs": [],
      "payable": false,
      "stateMutability": "nonpayable",
      "type": "function"
    },
    {
      "constant": true,
      "inputs": [
        {
          "name": "signer",
          "type": "address"
        }
      ],
      "name": "getSignerCertList",
      "outputs": [
        {
          "name": "",
          "type": "uint256[]"
        }
      ],
      "payable": false,
      "stateMutability": "view",
      "type": "function"
    },
    {
      "constant": true,
      "inputs": [
        {
          "name": "signer",
          "type": "address"
        }
      ],
      "name": "getSignerCertList_idx",
      "outputs": [
        {
          "name": "",
          "type": "uint256"
        }
      ],
      "payable": false,
      "stateMutability": "view",
      "type": "function"
    },
    {
      "constant": true,
      "inputs": [
        {
          "name": "certID",
          "type": "uint256"
        },
        {
          "name": "signer",
          "type": "address"
        }
      ],
      "name": "getSignerPubkey",
      "outputs": [
        {
          "name": "",
          "type": "string"
        }
      ],
      "payable": false,
      "stateMutability": "view",
      "type": "function"
    },
    {
      "constant": true,
      "inputs": [
        {
          "name": "certID",
          "type": "uint256"
        }
      ],
      "name": "getCertInfo",
      "outputs": [
        {
          "name": "",
          "type": "string"
        },
        {
          "name": "",
          "type": "string"
        },
        {
          "name": "",
          "type": "string"
        },
        {
          "name": "",
          "type": "string"
        },
        {
          "name": "",
          "type": "address"
        },
        {
          "name": "",
          "type": "bytes1[46]"
        }
      ],
      "payable": false,
      "stateMutability": "view",
      "type": "function"
    },
    {
      "constant": true,
      "inputs": [
        {
          "name": "certID",
          "type": "uint256"
        }
      ],
      "name": "getCertInfo2",
      "outputs": [
        {
          "name": "",
          "type": "address"
        },
        {
          "name": "",
          "type": "bytes32"
        },
        {
          "name": "",
          "type": "bytes32"
        },
        {
          "name": "",
          "type": "bytes32[]"
        },
        {
          "name": "",
          "type": "address[]"
        },
        {
          "name": "",
          "type": "bytes32"
        },
        {
          "name": "",
          "type": "bool"
        }
      ],
      "payable": false,
      "stateMutability": "view",
      "type": "function"
    },
    {
      "constant": true,
      "inputs": [
        {
          "name": "certID",
          "type": "uint256"
        }
      ],
      "name": "getCertHash",
      "outputs": [
        {
          "name": "",
          "type": "bytes32"
        }
      ],
      "payable": false,
      "stateMutability": "view",
      "type": "function"
    },
    {
      "constant": true,
      "inputs": [
        {
          "name": "certID",
          "type": "uint256"
        }
      ],
      "name": "getOwnerAddr",
      "outputs": [
        {
          "name": "",
          "type": "address"
        }
      ],
      "payable": false,
      "stateMutability": "view",
      "type": "function"
    },
    {
      "constant": true,
      "inputs": [
        {
          "name": "certID",
          "type": "uint256"
        }
      ],
      "name": "getIssuerAddr",
      "outputs": [
        {
          "name": "",
          "type": "address"
        }
      ],
      "payable": false,
      "stateMutability": "view",
      "type": "function"
    },
    {
      "constant": true,
      "inputs": [
        {
          "name": "certID",
          "type": "uint256"
        }
      ],
      "name": "getSignerAddr",
      "outputs": [
        {
          "name": "",
          "type": "address[]"
        }
      ],
      "payable": false,
      "stateMutability": "view",
      "type": "function"
    },
    {
      "constant": false,
      "inputs": [
        {
          "name": "certID",
          "type": "uint256"
        },
        {
          "name": "json_hash",
          "type": "bytes32"
        }
      ],
      "name": "setJsonHash2",
      "outputs": [],
      "payable": false,
      "stateMutability": "nonpayable",
      "type": "function"
    },
    {
      "constant": true,
      "inputs": [
        {
          "name": "certID",
          "type": "uint256"
        }
      ],
      "name": "getJsonHash1",
      "outputs": [
        {
          "name": "",
          "type": "bytes32"
        }
      ],
      "payable": false,
      "stateMutability": "view",
      "type": "function"
    },
    {
      "constant": true,
      "inputs": [
        {
          "name": "certID",
          "type": "uint256"
        }
      ],
      "name": "getJsonHash2",
      "outputs": [
        {
          "name": "",
          "type": "bytes32"
        }
      ],
      "payable": false,
      "stateMutability": "view",
      "type": "function"
    },
    {
      "constant": true,
      "inputs": [
        {
          "name": "certID",
          "type": "uint256"
        },
        {
          "name": "signer",
          "type": "address"
        }
      ],
      "name": "getStatus",
      "outputs": [
        {
          "name": "",
          "type": "bool"
        }
      ],
      "payable": false,
      "stateMutability": "view",
      "type": "function"
    },
    {
      "constant": true,
      "inputs": [
        {
          "name": "certID",
          "type": "uint256"
        }
      ],
      "name": "checkStatus",
      "outputs": [
        {
          "name": "",
          "type": "bool"
        }
      ],
      "payable": false,
      "stateMutability": "view",
      "type": "function"
    },
    {
      "constant": true,
      "inputs": [
        {
          "name": "certID",
          "type": "uint256"
        },
        {
          "name": "signerad",
          "type": "address"
        }
      ],
      "name": "getSignature",
      "outputs": [
        {
          "name": "",
          "type": "string"
        }
      ],
      "payable": false,
      "stateMutability": "view",
      "type": "function"
    },
    {
      "constant": false,
      "inputs": [
        {
          "name": "certID",
          "type": "uint256"
        },
        {
          "name": "location",
          "type": "bytes32"
        }
      ],
      "name": "setP2PLoc",
      "outputs": [],
      "payable": false,
      "stateMutability": "nonpayable",
      "type": "function"
    },
    {
      "constant": true,
      "inputs": [
        {
          "name": "certID",
          "type": "uint256"
        }
      ],
      "name": "getP2PLoc",
      "outputs": [
        {
          "name": "",
          "type": "bytes32"
        }
      ],
      "payable": false,
      "stateMutability": "view",
      "type": "function"
    },
    {
      "constant": true,
      "inputs": [
        {
          "name": "issue_addr",
          "type": "address"
        }
      ],
      "name": "getIssuerIssueIDList",
      "outputs": [
        {
          "name": "",
          "type": "uint256[]"
        }
      ],
      "payable": false,
      "stateMutability": "view",
      "type": "function"
    },
    {
      "constant": true,
      "inputs": [
        {
          "name": "signer_addr",
          "type": "address"
        }
      ],
      "name": "getSignerIssueIDList",
      "outputs": [
        {
          "name": "",
          "type": "uint256[]"
        }
      ],
      "payable": false,
      "stateMutability": "view",
      "type": "function"
    },
    {
      "constant": true,
      "inputs": [
        {
          "name": "issue_id",
          "type": "uint256"
        }
      ],
      "name": "getSignedList",
      "outputs": [
        {
          "name": "",
          "type": "uint256[]"
        }
      ],
      "payable": false,
      "stateMutability": "view",
      "type": "function"
    },
    {
      "constant": true,
      "inputs": [
        {
          "name": "issue_id",
          "type": "uint256"
        }
      ],
      "name": "getCertIDList",
      "outputs": [
        {
          "name": "",
          "type": "uint256[]"
        }
      ],
      "payable": false,
      "stateMutability": "view",
      "type": "function"
    },
    {
      "constant": true,
      "inputs": [
        {
          "name": "issue_id",
          "type": "uint256"
        }
      ],
      "name": "getIssueIDInfo",
      "outputs": [
        {
          "name": "",
          "type": "uint256[]"
        },
        {
          "name": "",
          "type": "string"
        },
        {
          "name": "",
          "type": "string"
        },
        {
          "name": "",
          "type": "string"
        },
        {
          "name": "",
          "type": "uint256[]"
        }
      ],
      "payable": false,
      "stateMutability": "view",
      "type": "function"
    },
    {
      "constant": true,
      "inputs": [
        {
          "name": "user_addr",
          "type": "address"
        }
      ],
      "name": "getUserCert",
      "outputs": [
        {
          "name": "",
          "type": "uint256[]"
        }
      ],
      "payable": false,
      "stateMutability": "view",
      "type": "function"
    },
    {
      "constant": true,
      "inputs": [
        {
          "name": "certID",
          "type": "uint256"
        }
      ],
      "name": "getIpfsHash",
      "outputs": [
        {
          "name": "",
          "type": "bytes1[46]"
        }
      ],
      "payable": false,
      "stateMutability": "view",
      "type": "function"
    }
  ],
  "bytecode": "0x608060405234801561001057600080fd5b50336000806101000a81548173ffffffffffffffffffffffffffffffffffffffff021916908373ffffffffffffffffffffffffffffffffffffffff1602179055506141d7806100606000396000f300608060405260043610610180576000357c0100000000000000000000000000000000000000000000000000000000900463ffffffff1680631422b6d314610185578063177b7f48146102ba57806320c5429b146103525780632858c7641461037f57806339fbab86146103c45780633c57dfb21461045c5780633d34fea3146104a557806343f6e4511461056b57806344899549146106445780634a00b5c2146106c6578063762983d01461071d57806378b623741461078a57806378efe77b146108335780637905c2141461086e5780638b1410b814610aad5780639070816614610cbb5780639653d56d14610d535780639e45593914610dd55780639eeb90af14610e2c578063a37c215714610eae578063b103cd4d14610f1b578063b3bcd5cf14610f56578063bf225cb11461101c578063ca2a4db914611268578063d450fbc914611450578063e0e2d32e146114b9578063e9371a2c14611551578063eb1f2892146115b6578063fddba9ea146115ff578063fe1d71d214611648575b600080fd5b34801561019157600080fd5b506101b060048036038101908080359060200190929190505050611691565b604051808873ffffffffffffffffffffffffffffffffffffffff1673ffffffffffffffffffffffffffffffffffffffff168152602001876000191660001916815260200186600019166000191681526020018060200180602001856000191660001916815260200184151515158152602001838103835287818151815260200191508051906020019060200280838360005b8381101561025d578082015181840152602081019050610242565b50505050905001838103825286818151815260200191508051906020019060200280838360005b8381101561029f578082015181840152602081019050610284565b50505050905001995050505050505050505060405180910390f35b3480156102c657600080fd5b506102fb600480360381019080803573ffffffffffffffffffffffffffffffffffffffff169060200190929190505050611868565b6040518080602001828103825283818151815260200191508051906020019060200280838360005b8381101561033e578082015181840152602081019050610323565b505050509050019250505060405180910390f35b34801561035e57600080fd5b5061037d600480360381019080803590602001909291905050506118ff565b005b34801561038b57600080fd5b506103aa60048036038101908080359060200190929190505050611934565b604051808215151515815260200191505060405180910390f35b3480156103d057600080fd5b50610405600480360381019080803573ffffffffffffffffffffffffffffffffffffffff169060200190929190505050611961565b6040518080602001828103825283818151815260200191508051906020019060200280838360005b8381101561044857808201518184015260208101905061042d565b505050509050019250505060405180910390f35b34801561046857600080fd5b5061048760048036038101908080359060200190929190505050611bbb565b60405180826000191660001916815260200191505060405180910390f35b3480156104b157600080fd5b506104f060048036038101908080359060200190929190803573ffffffffffffffffffffffffffffffffffffffff169060200190929190505050611bdb565b6040518080602001828103825283818151815260200191508051906020019080838360005b83811015610530578082015181840152602081019050610515565b50505050905090810190601f16801561055d5780820380516001836020036101000a031916815260200191505b509250505060405180910390f35b34801561057757600080fd5b5061064260048036038101908080359060200190929190803590602001908201803590602001908080601f0160208091040260200160405190810160405280939291908181526020018383808284378201915050505050509192919290803573ffffffffffffffffffffffffffffffffffffffff169060200190929190803590602001908201803590602001908080601f0160208091040260200160405190810160405280939291908181526020018383808284378201915050505050509192919290505050611cd7565b005b34801561065057600080fd5b5061066f6004803603810190808035906020019092919050505061203e565b6040518080602001828103825283818151815260200191508051906020019060200280838360005b838110156106b2578082015181840152602081019050610697565b505050509050019250505060405180910390f35b3480156106d257600080fd5b50610707600480360381019080803573ffffffffffffffffffffffffffffffffffffffff1690602001909291905050506120e5565b6040518082815260200191505060405180910390f35b34801561072957600080fd5b5061074860048036038101908080359060200190929190505050612340565b604051808273ffffffffffffffffffffffffffffffffffffffff1673ffffffffffffffffffffffffffffffffffffffff16815260200191505060405180910390f35b34801561079657600080fd5b506108316004803603810190808035906020019082018035906020019080806020026020016040519081016040528093929190818152602001838360200280828437820191505050505050919291929080359060200190820180359060200190808060200260200160405190810160405280939291908181526020018383602002808284378201915050505050509192919290505050612383565b005b34801561083f57600080fd5b5061086c60048036038101908080359060200190929190803560001916906020019092919050505061245a565b005b34801561087a57600080fd5b50610aab6004803603810190808035906020019092919080359060200190820180359060200190808060200260200160405190810160405280939291908181526020018383602002808284378201915050505050509192919290803590602001908201803590602001908080602002602001604051908101604052809392919081815260200183836020028082843782019150505050505091929192908035906020019082018035906020019080806020026020016040519081016040528093929190818152602001838360200280828437820191505050505050919291929080359060200190820180359060200190808060200260200160405190810160405280939291908181526020018383602002808284378201915050505050509192919290803590602001908201803590602001908080602002602001604051908101604052809392919081815260200183836020028082843782019150505050505091929192908035906020019082018035906020019080806020026020016040519081016040528093929190818152602001838360200280828437820191505050505050919291929080359060200190820180359060200190808060200260200160405190810160405280939291908181526020016000905b82821015610a995784848390506105c00201602e806020026040519081016040528092919082602e60200280828437820191505050505081526020019060010190610a53565b5050505050919291929050505061247d565b005b348015610ab957600080fd5b50610ad860048036038101908080359060200190929190505050612938565b60405180806020018060200180602001806020018060200186810386528b818151815260200191508051906020019060200280838360005b83811015610b2b578082015181840152602081019050610b10565b5050505090500186810385528a818151815260200191508051906020019080838360005b83811015610b6a578082015181840152602081019050610b4f565b50505050905090810190601f168015610b975780820380516001836020036101000a031916815260200191505b50868103845289818151815260200191508051906020019080838360005b83811015610bd0578082015181840152602081019050610bb5565b50505050905090810190601f168015610bfd5780820380516001836020036101000a031916815260200191505b50868103835288818151815260200191508051906020019080838360005b83811015610c36578082015181840152602081019050610c1b565b50505050905090810190601f168015610c635780820380516001836020036101000a031916815260200191505b50868103825287818151815260200191508051906020019060200280838360005b83811015610c9f578082015181840152602081019050610c84565b505050509050019a505050505050505050505060405180910390f35b348015610cc757600080fd5b50610cfc600480360381019080803573ffffffffffffffffffffffffffffffffffffffff169060200190929190505050612e20565b6040518080602001828103825283818151815260200191508051906020019060200280838360005b83811015610d3f578082015181840152602081019050610d24565b505050509050019250505060405180910390f35b348015610d5f57600080fd5b50610d7e60048036038101908080359060200190929190505050612eb7565b6040518080602001828103825283818151815260200191508051906020019060200280838360005b83811015610dc1578082015181840152602081019050610da6565b505050509050019250505060405180910390f35b348015610de157600080fd5b50610dea612f25565b604051808273ffffffffffffffffffffffffffffffffffffffff1673ffffffffffffffffffffffffffffffffffffffff16815260200191505060405180910390f35b348015610e3857600080fd5b50610e5760048036038101908080359060200190929190505050612f2d565b6040518080602001828103825283818151815260200191508051906020019060200280838360005b83811015610e9a578082015181840152602081019050610e7f565b505050509050019250505060405180910390f35b348015610eba57600080fd5b50610ed9600480360381019080803590602001909291905050506130dc565b604051808273ffffffffffffffffffffffffffffffffffffffff1673ffffffffffffffffffffffffffffffffffffffff16815260200191505060405180910390f35b348015610f2757600080fd5b50610f5460048036038101908080359060200190929190803560001916906020019092919050505061311c565b005b348015610f6257600080fd5b50610fa160048036038101908080359060200190929190803573ffffffffffffffffffffffffffffffffffffffff16906020019092919050505061313f565b6040518080602001828103825283818151815260200191508051906020019080838360005b83811015610fe1578082015181840152602081019050610fc6565b50505050905090810190601f16801561100e5780820380516001836020036101000a031916815260200191505b509250505060405180910390f35b34801561102857600080fd5b506110476004803603810190808035906020019092919050505061323b565b60405180806020018060200180602001806020018773ffffffffffffffffffffffffffffffffffffffff1673ffffffffffffffffffffffffffffffffffffffff16815260200186602e60200280838360005b838110156110b4578082015181840152602081019050611099565b5050505090500185810385528b818151815260200191508051906020019080838360005b838110156110f35780820151818401526020810190506110d8565b50505050905090810190601f1680156111205780820380516001836020036101000a031916815260200191505b5085810384528a818151815260200191508051906020019080838360005b8381101561115957808201518184015260208101905061113e565b50505050905090810190601f1680156111865780820380516001836020036101000a031916815260200191505b50858103835289818151815260200191508051906020019080838360005b838110156111bf5780820151818401526020810190506111a4565b50505050905090810190601f1680156111ec5780820380516001836020036101000a031916815260200191505b50858103825288818151815260200191508051906020019080838360005b8381101561122557808201518184015260208101905061120a565b50505050905090810190601f1680156112525780820380516001836020036101000a031916815260200191505b509a505050505050505050505060405180910390f35b34801561127457600080fd5b5061144e6004803603810190808035906020019092919080359060200190820180359060200190808060200260200160405190810160405280939291908181526020018383602002808284378201915050505050509192919290803573ffffffffffffffffffffffffffffffffffffffff1690602001909291908035906020019082018035906020019080806020026020016040519081016040528093929190818152602001838360200280828437820191505050505050919291929080359060200190820180359060200190808060200260200160405190810160405280939291908181526020018383602002808284378201915050505050509192919290803590602001908201803590602001908080601f0160208091040260200160405190810160405280939291908181526020018383808284378201915050505050509192919290803590602001908201803590602001908080601f0160208091040260200160405190810160405280939291908181526020018383808284378201915050505050509192919290803590602001908201803590602001908080601f0160208091040260200160405190810160405280939291908181526020018383808284378201915050505050509192919290505050613627565b005b34801561145c57600080fd5b5061147b60048036038101908080359060200190929190505050613b50565b6040518082602e60200280838360005b838110156114a657808201518184015260208101905061148b565b5050505090500191505060405180910390f35b3480156114c557600080fd5b506114fa600480360381019080803573ffffffffffffffffffffffffffffffffffffffff169060200190929190505050613c15565b6040518080602001828103825283818151815260200191508051906020019060200280838360005b8381101561153d578082015181840152602081019050611522565b505050509050019250505060405180910390f35b34801561155d57600080fd5b5061159c60048036038101908080359060200190929190803573ffffffffffffffffffffffffffffffffffffffff169060200190929190505050613cac565b604051808215151515815260200191505060405180910390f35b3480156115c257600080fd5b506115e160048036038101908080359060200190929190505050613d1d565b60405180826000191660001916815260200191505060405180910390f35b34801561160b57600080fd5b5061162a60048036038101908080359060200190929190505050613d3d565b60405180826000191660001916815260200191505060405180910390f35b34801561165457600080fd5b5061167360048036038101908080359060200190929190505050613d5d565b60405180826000191660001916815260200191505060405180910390f35b60008060006060806000806002600089815260200190815260200160002060000160009054906101000a900473ffffffffffffffffffffffffffffffffffffffff16600260008a8152602001908152602001600020600c0154600260008b8152602001908152602001600020600d0154600260008c8152602001908152602001600020600201600201600260008d8152602001908152602001600020600201600101600260008e815260200190815260200160002060010154600260008f815260200190815260200160002060020160060160009054906101000a900460ff16838054806020026020016040519081016040528092919081815260200182805480156117c057602002820191906000526020600020905b815460001916815260200190600101908083116117a8575b505050505093508280548060200260200160405190810160405280929190818152602001828054801561184857602002820191906000526020600020905b8160009054906101000a900473ffffffffffffffffffffffffffffffffffffffff1673ffffffffffffffffffffffffffffffffffffffff16815260200190600101908083116117fe575b505050505092509650965096509650965096509650919395979092949650565b6060600360008373ffffffffffffffffffffffffffffffffffffffff1673ffffffffffffffffffffffffffffffffffffffff1681526020019081526020016000208054806020026020016040519081016040528092919081815260200182805480156118f357602002820191906000526020600020905b8154815260200190600101908083116118df575b50505050509050919050565b60016002600083815260200190815260200160002060020160060160006101000a81548160ff02191690831515021790555050565b600060026000838152602001908152602001600020600b0160009054906101000a900460ff169050919050565b60608060008060006060600660008873ffffffffffffffffffffffffffffffffffffffff1673ffffffffffffffffffffffffffffffffffffffff168152602001908152602001600020600001805490506040519080825280602002602001820160405280156119df5781602001602082028038833980820191505090505b50945060009350600092505b600660008873ffffffffffffffffffffffffffffffffffffffff1673ffffffffffffffffffffffffffffffffffffffff16815260200190815260200160002060000180549050831015611b2e57600660008873ffffffffffffffffffffffffffffffffffffffff1673ffffffffffffffffffffffffffffffffffffffff16815260200190815260200160002060000183815481101515611a8757fe5b90600052602060002001549150600660008873ffffffffffffffffffffffffffffffffffffffff1673ffffffffffffffffffffffffffffffffffffffff168152602001908152602001600020600101600083815260200190815260200160002060009054906101000a900460ff161515611b2157818585815181101515611b0a57fe5b906020019060200201818152505083806001019450505b82806001019350506119eb565b83604051908082528060200260200182016040528015611b5d5781602001602082028038833980820191505090505b509050600092505b83831015611bae578483815181101515611b7b57fe5b906020019060200201518184815181101515611b9357fe5b90602001906020020181815250508280600101935050611b65565b8095505050505050919050565b600060026000838152602001908152602001600020600e01549050919050565b60606002600084815260200190815260200160002060020160030160008373ffffffffffffffffffffffffffffffffffffffff1673ffffffffffffffffffffffffffffffffffffffff1681526020019081526020016000206001018054600181600116156101000203166002900480601f016020809104026020016040519081016040528092919081815260200182805460018160011615610100020316600290048015611cca5780601f10611c9f57610100808354040283529160200191611cca565b820191906000526020600020905b815481529060010190602001808311611cad57829003601f168201915b5050505050905092915050565b6000806000806002600089815260200190815260200160002060000160009054906101000a900473ffffffffffffffffffffffffffffffffffffffff1673ffffffffffffffffffffffffffffffffffffffff161415611d3557600080fd5b856002600089815260200190815260200160002060020160030160008773ffffffffffffffffffffffffffffffffffffffff1673ffffffffffffffffffffffffffffffffffffffff1681526020019081526020016000206001019080519060200190611da2929190613d7d565b50836002600089815260200190815260200160002060020160030160008773ffffffffffffffffffffffffffffffffffffffff1673ffffffffffffffffffffffffffffffffffffffff1681526020019081526020016000206002019080519060200190611e10929190613d7d565b5060016002600089815260200190815260200160002060020160030160008773ffffffffffffffffffffffffffffffffffffffff1673ffffffffffffffffffffffffffffffffffffffff16815260200190815260200160002060000160006101000a81548160ff0219169083151502179055506001600660008773ffffffffffffffffffffffffffffffffffffffff1673ffffffffffffffffffffffffffffffffffffffff168152602001908152602001600020600101600089815260200190815260200160002060006101000a81548160ff02191690831515021790555060019250600091505b60026000888152602001908152602001600020600201600101805490508260ff161015611ff857600260008881526020019081526020016000206002016001018260ff16815481101515611f4857fe5b9060005260206000200160009054906101000a900473ffffffffffffffffffffffffffffffffffffffff1690506002600088815260200190815260200160002060020160030160008273ffffffffffffffffffffffffffffffffffffffff1673ffffffffffffffffffffffffffffffffffffffff16815260200190815260200160002060000160009054906101000a900460ff161515611feb5760009250611ff8565b8180600101925050611ef8565b60011515831515141561203557600160026000898152602001908152602001600020600b0160006101000a81548160ff0219169083151502179055505b50505050505050565b6060600260008381526020019081526020016000206002016001018054806020026020016040519081016040528092919081815260200182805480156120d957602002820191906000526020600020905b8160009054906101000a900473ffffffffffffffffffffffffffffffffffffffff1673ffffffffffffffffffffffffffffffffffffffff168152602001906001019080831161208f575b50505050509050919050565b6000606060008060006060600660008873ffffffffffffffffffffffffffffffffffffffff1673ffffffffffffffffffffffffffffffffffffffff168152602001908152602001600020600001805490506040519080825280602002602001820160405280156121645781602001602082028038833980820191505090505b50945060009350600092505b600660008873ffffffffffffffffffffffffffffffffffffffff1673ffffffffffffffffffffffffffffffffffffffff168152602001908152602001600020600001805490508310156122b357600660008873ffffffffffffffffffffffffffffffffffffffff1673ffffffffffffffffffffffffffffffffffffffff1681526020019081526020016000206000018381548110151561220c57fe5b90600052602060002001549150600660008873ffffffffffffffffffffffffffffffffffffffff1673ffffffffffffffffffffffffffffffffffffffff168152602001908152602001600020600101600083815260200190815260200160002060009054906101000a900460ff1615156122a65781858581518110151561228f57fe5b906020019060200201818152505083806001019450505b8280600101935050612170565b836040519080825280602002602001820160405280156122e25781602001602082028038833980820191505090505b509050600092505b8383101561233357848381518110151561230057fe5b90602001906020020151818481518110151561231857fe5b906020019060200201818152505082806001019350506122ea565b8395505050505050919050565b60006002600083815260200190815260200160002060020160000160009054906101000a900473ffffffffffffffffffffffffffffffffffffffff169050919050565b6000808351835114151561239657600080fd5b600091505b83518260ff16101561245457838260ff168151811015156123b857fe5b906020019060200201519050600360008273ffffffffffffffffffffffffffffffffffffffff1673ffffffffffffffffffffffffffffffffffffffff168152602001908152602001600020838360ff1681518110151561241457fe5b906020019060200201519080600181540180825580915050906001820390600052602060002001600090919290919091505550818060010192505061239b565b50505050565b8060026000848152602001908152602001600020600f0181600019169055505050565b6000808651895114158015612493575085518951145b1561249d57600080fd5b600091505b88518260ff16101561292c57600160008b8152602001908152602001600020600001898360ff168151811015156124d557fe5b906020019060200201519080600181540180825580915050906001820390600052602060002001600090919290919091505550878260ff1681518110151561251957fe5b90602001906020020151600260008b8560ff1681518110151561253857fe5b906020019060200201518152602001908152602001600020600101816000191690555060036000888460ff1681518110151561257057fe5b9060200190602002015173ffffffffffffffffffffffffffffffffffffffff1673ffffffffffffffffffffffffffffffffffffffff168152602001908152602001600020898360ff168151811015156125c557fe5b906020019060200201519080600181540180825580915050906001820390600052602060002001600090919290919091505550868260ff1681518110151561260957fe5b90602001906020020151600260008b8560ff1681518110151561262857fe5b90602001906020020151815260200190815260200160002060000160006101000a81548173ffffffffffffffffffffffffffffffffffffffff021916908373ffffffffffffffffffffffffffffffffffffffff160217905550858260ff1681518110151561269257fe5b90602001906020020151600260008b8560ff168151811015156126b157fe5b906020019060200201518152602001908152602001600020600c018160001916905550848260ff168151811015156126e557fe5b90602001906020020151600260008b8560ff1681518110151561270457fe5b906020019060200201518152602001908152602001600020600d018160001916905550828260ff1681518110151561273857fe5b90602001906020020151600260008b8560ff1681518110151561275757fe5b90602001906020020151815260200190815260200160002060100190602e612780929190613dfd565b506000600260008b8560ff1681518110151561279857fe5b906020019060200201518152602001908152602001600020600b0160006101000a81548160ff021916908315150217905550600090505b835181101561291f576006600085838151811015156127ea57fe5b9060200190602002015173ffffffffffffffffffffffffffffffffffffffff1673ffffffffffffffffffffffffffffffffffffffff168152602001908152602001600020600001898360ff1681518110151561284257fe5b906020019060200201519080600181540180825580915050906001820390600052602060002001600090919290919091505550600060066000868481518110151561288957fe5b9060200190602002015173ffffffffffffffffffffffffffffffffffffffff1673ffffffffffffffffffffffffffffffffffffffff16815260200190815260200160002060010160008b8560ff168151811015156128e357fe5b90602001906020020151815260200190815260200160002060006101000a81548160ff02191690831515021790555080806001019150506127cf565b81806001019250506124a2565b50505050505050505050565b606080606080606080612949613eb7565b61295288612f2d565b915060026000600160008b8152602001908152602001600020600001600081548110151561297c57fe5b9060005260206000200154815260200190815260200160002060020161010060405190810160405290816000820160009054906101000a900473ffffffffffffffffffffffffffffffffffffffff1673ffffffffffffffffffffffffffffffffffffffff1673ffffffffffffffffffffffffffffffffffffffff16815260200160018201805480602002602001604051908101604052809291908181526020018280548015612a8057602002820191906000526020600020905b8160009054906101000a900473ffffffffffffffffffffffffffffffffffffffff1673ffffffffffffffffffffffffffffffffffffffff1681526020019060010190808311612a36575b5050505050815260200160028201805480602002602001604051908101604052809291908181526020018280548015612adc57602002820191906000526020600020905b81546000191681526020019060010190808311612ac4575b50505050508152602001600482018054600181600116156101000203166002900480601f016020809104026020016040519081016040528092919081815260200182805460018160011615610100020316600290048015612b7e5780601f10612b5357610100808354040283529160200191612b7e565b820191906000526020600020905b815481529060010190602001808311612b6157829003601f168201915b50505050508152602001600582018054600181600116156101000203166002900480601f016020809104026020016040519081016040528092919081815260200182805460018160011615610100020316600290048015612c205780601f10612bf557610100808354040283529160200191612c20565b820191906000526020600020905b815481529060010190602001808311612c0357829003601f168201915b505050505081526020016006820160009054906101000a900460ff16151515158152602001600782018054600181600116156101000203166002900480601f016020809104026020016040519081016040528092919081815260200182805460018160011615610100020316600290048015612cdd5780601f10612cb257610100808354040283529160200191612cdd565b820191906000526020600020905b815481529060010190602001808311612cc057829003601f168201915b50505050508152602001600882018054600181600116156101000203166002900480601f016020809104026020016040519081016040528092919081815260200182805460018160011615610100020316600290048015612d7f5780601f10612d5457610100808354040283529160200191612d7f565b820191906000526020600020905b815481529060010190602001808311612d6257829003601f168201915b50505050508152505090506001600089815260200190815260200160002060000181608001518260c001518360e001518584805480602002602001604051908101604052809291908181526020018280548015612dfb57602002820191906000526020600020905b815481526020019060010190808311612de7575b5050505050945083935082925081915096509650965096509650505091939590929450565b6060600560008373ffffffffffffffffffffffffffffffffffffffff1673ffffffffffffffffffffffffffffffffffffffff168152602001908152602001600020805480602002602001604051908101604052809291908181526020018280548015612eab57602002820191906000526020600020905b815481526020019060010190808311612e97575b50505050509050919050565b606060016000838152602001908152602001600020600001805480602002602001604051908101604052809291908181526020018280548015612f1957602002820191906000526020600020905b815481526020019060010190808311612f05575b50505050509050919050565b600030905090565b606080600080600060016000878152602001908152602001600020600001805490501415612f5a57600080fd5b60016000868152602001908152602001600020600001805480602002602001604051908101604052809291908181526020018280548015612fba57602002820191906000526020600020905b815481526020019060010190808311612fa6575b50505050509250600091505b82518260ff16101561306d57828260ff16815181101515612fe357fe5b9060200190602002015190506001151560026000838152602001908152602001600020600b0160009054906101000a900460ff161515141561306057600160008681526020019081526020016000206001018190806001815401808255809150509060018203906000526020600020016000909192909190915055505b8180600101925050612fc6565b600160008681526020019081526020016000206001018054806020026020016040519081016040528092919081815260200182805480156130cd57602002820191906000526020600020905b8154815260200190600101908083116130b9575b50505050509350505050919050565b60006002600083815260200190815260200160002060000160009054906101000a900473ffffffffffffffffffffffffffffffffffffffff169050919050565b8060026000848152602001908152602001600020600e0181600019169055505050565b60606002600084815260200190815260200160002060020160030160008373ffffffffffffffffffffffffffffffffffffffff1673ffffffffffffffffffffffffffffffffffffffff1681526020019081526020016000206002018054600181600116156101000203166002900480601f01602080910402602001604051908101604052809291908181526020018280546001816001161561010002031660029004801561322e5780601f106132035761010080835404028352916020019161322e565b820191906000526020600020905b81548152906001019060200180831161321157829003601f168201915b5050505050905092915050565b606080606080600061324b613f15565b6002600088815260200190815260200160002060020160070160026000898152602001908152602001600020600201600801600260008a8152602001908152602001600020600201600401600260008b8152602001908152602001600020600201600501600260008c815260200190815260200160002060020160000160009054906101000a900473ffffffffffffffffffffffffffffffffffffffff16600260008d8152602001908152602001600020601001858054600181600116156101000203166002900480601f0160208091040260200160405190810160405280929190818152602001828054600181600116156101000203166002900480156133945780601f1061336957610100808354040283529160200191613394565b820191906000526020600020905b81548152906001019060200180831161337757829003601f168201915b50505050509550848054600181600116156101000203166002900480601f0160208091040260200160405190810160405280929190818152602001828054600181600116156101000203166002900480156134305780601f1061340557610100808354040283529160200191613430565b820191906000526020600020905b81548152906001019060200180831161341357829003601f168201915b50505050509450838054600181600116156101000203166002900480601f0160208091040260200160405190810160405280929190818152602001828054600181600116156101000203166002900480156134cc5780601f106134a1576101008083540402835291602001916134cc565b820191906000526020600020905b8154815290600101906020018083116134af57829003601f168201915b50505050509350828054600181600116156101000203166002900480601f0160208091040260200160405190810160405280929190818152602001828054600181600116156101000203166002900480156135685780601f1061353d57610100808354040283529160200191613568565b820191906000526020600020905b81548152906001019060200180831161354b57829003601f168201915b5050505050925080602e806020026040519081016040528092919082602e801561360b576020028201916000905b82829054906101000a90047f0100000000000000000000000000000000000000000000000000000000000000027effffffffffffffffffffffffffffffffffffffffffffffffffffffffffffff1916815260200190600101906020826000010492830192600103820291508084116135965790505b5050505050905095509550955095509550955091939550919395565b6000806000600460008a73ffffffffffffffffffffffffffffffffffffffff1673ffffffffffffffffffffffffffffffffffffffff1681526020019081526020016000208b90806001815401808255809150509060018203906000526020600020016000909192909190915055506040805190810160405280600581526020017f312e302e310000000000000000000000000000000000000000000000000000008152508360040190805190602001906136e2929190613d7d565b50858360050190805190602001906136fb929190613d7d565b5060008360060160006101000a81548160ff02191690831515021790555084836007019080519060200190613731929190613d7d565b508383600801908051906020019061374a929190613d7d565b50888360000160006101000a81548173ffffffffffffffffffffffffffffffffffffffff021916908373ffffffffffffffffffffffffffffffffffffffff160217905550878360010190805190602001906137a6929190613f39565b50600091505b87518260ff16101561398f5782600101888360ff168151811015156137cd57fe5b9060200190602002015190806001815401808255809150509060018203906000526020600020016000909192909190916101000a81548173ffffffffffffffffffffffffffffffffffffffff021916908373ffffffffffffffffffffffffffffffffffffffff1602179055505060008360030160008a8560ff1681518110151561385357fe5b9060200190602002015173ffffffffffffffffffffffffffffffffffffffff1673ffffffffffffffffffffffffffffffffffffffff16815260200190815260200160002060000160006101000a81548160ff02191690831515021790555082600201878360ff168151811015156138c657fe5b90602001906020020151908060018154018082558091505090600182039060005260206000200160009091929091909150906000191690555060056000898460ff1681518110151561391457fe5b9060200190602002015173ffffffffffffffffffffffffffffffffffffffff1673ffffffffffffffffffffffffffffffffffffffff1681526020019081526020016000208b908060018154018082558091505090600182039060005260206000200160009091929091909150555081806001019250506137ac565b600090505b89518160ff161015613b435782600260008c8460ff168151811015156139b657fe5b9060200190602002015181526020019081526020016000206002016000820160009054906101000a900473ffffffffffffffffffffffffffffffffffffffff168160000160006101000a81548173ffffffffffffffffffffffffffffffffffffffff021916908373ffffffffffffffffffffffffffffffffffffffff1602179055506001820181600101908054613a4e929190613fc3565b506002820181600201908054613a65929190614015565b5060048201816004019080546001816001161561010002031660029004613a8d929190614067565b5060058201816005019080546001816001161561010002031660029004613ab5929190614067565b506006820160009054906101000a900460ff168160060160006101000a81548160ff02191690831515021790555060078201816007019080546001816001161561010002031660029004613b0a929190614067565b5060088201816008019080546001816001161561010002031660029004613b32929190614067565b509050508080600101915050613994565b5050505050505050505050565b613b58613f15565b60026000838152602001908152602001600020601001602e806020026040519081016040528092919082602e8015613c09576020028201916000905b82829054906101000a90047f0100000000000000000000000000000000000000000000000000000000000000027effffffffffffffffffffffffffffffffffffffffffffffffffffffffffffff191681526020019060010190602082600001049283019260010382029150808411613b945790505b50505050509050919050565b6060600460008373ffffffffffffffffffffffffffffffffffffffff1673ffffffffffffffffffffffffffffffffffffffff168152602001908152602001600020805480602002602001604051908101604052809291908181526020018280548015613ca057602002820191906000526020600020905b815481526020019060010190808311613c8c575b50505050509050919050565b60006002600084815260200190815260200160002060020160030160008373ffffffffffffffffffffffffffffffffffffffff1673ffffffffffffffffffffffffffffffffffffffff16815260200190815260200160002060000160009054906101000a900460ff16905092915050565b600060026000838152602001908152602001600020600d01549050919050565b600060026000838152602001908152602001600020600c01549050919050565b600060026000838152602001908152602001600020600f01549050919050565b828054600181600116156101000203166002900490600052602060002090601f016020900481019282601f10613dbe57805160ff1916838001178555613dec565b82800160010185558215613dec579182015b82811115613deb578251825591602001919060010190613dd0565b5b509050613df991906140ee565b5090565b82602e601f01602090048101928215613ea65791602002820160005b83821115613e7757835183826101000a81548160ff02191690837f0100000000000000000000000000000000000000000000000000000000000000900402179055509260200192600101602081600001049283019260010302613e19565b8015613ea45782816101000a81549060ff0219169055600101602081600001049283019260010302613e77565b505b509050613eb39190614113565b5090565b61010060405190810160405280600073ffffffffffffffffffffffffffffffffffffffff1681526020016060815260200160608152602001606081526020016060815260200160001515815260200160608152602001606081525090565b6105c060405190810160405280602e90602082028038833980820191505090505090565b828054828255906000526020600020908101928215613fb2579160200282015b82811115613fb15782518260006101000a81548173ffffffffffffffffffffffffffffffffffffffff021916908373ffffffffffffffffffffffffffffffffffffffff16021790555091602001919060010190613f59565b5b509050613fbf9190614143565b5090565b8280548282559060005260206000209081019282156140045760005260206000209182015b82811115614003578254825591600101919060010190613fe8565b5b5090506140119190614143565b5090565b8280548282559060005260206000209081019282156140565760005260206000209182015b8281111561405557825482559160010191906001019061403a565b5b5090506140639190614186565b5090565b828054600181600116156101000203166002900490600052602060002090601f016020900481019282601f106140a057805485556140dd565b828001600101855582156140dd57600052602060002091601f016020900482015b828111156140dc5782548255916001019190600101906140c1565b5b5090506140ea91906140ee565b5090565b61411091905b8082111561410c5760008160009055506001016140f4565b5090565b90565b61414091905b8082111561413c57600081816101000a81549060ff021916905550600101614119565b5090565b90565b61418391905b8082111561417f57600081816101000a81549073ffffffffffffffffffffffffffffffffffffffff021916905550600101614149565b5090565b90565b6141a891905b808211156141a457600081600090555060010161418c565b5090565b905600a165627a7a72305820b6ef2c0c01fa8cf707e788a1aa6f71713c09c831ae80892008229b4d9e72d5280029",
  "source": "pragma solidity ^0.4.23;\n\n\ncontract Cert {\n\n    address owner;\n    //cause out of gas error\n   // string _version = \"1.0.1\";\n\n//issueID ->certID\n    mapping(uint=> IssueInfo) ISSUE_INFO;\n    mapping( uint => CertInfo ) CERT_INFO;\n    mapping( address => uint[] ) OWNER_CERT_LIST;\n\n    mapping(address =>uint[]) ISSUE_ID_LIST; //get issue list by issuer address\n    mapping(address =>uint[]) ISSUE_ID_LIST_by_Singer;\n    mapping(address =>SignInfo) SIGNER_CERT_LIST;\n   \n    struct IssueInfo{\n        uint[] certID;\n        uint[] signedCertID;\n\n    }\n    \n    struct SignInfo {\n        uint[] certID;\n        mapping (uint => bool) status;\n    }\n    \n    struct CertInfo {\n        address OwnerAddr;\n        bytes32 userID;\n        CertCommon detail;        \n        bool done;\n       // bytes32 swarmhash;  //is P2pLoc\n       \n        bytes32 CertHash;\n        bytes32 JsonHash1;\n        bytes32 JsonHash2;\n        bytes32 P2pLoc;\n        bytes1[46] ipfshash;    // add ipfshash in cert\n    }\n    \n    struct CertCommon {\n        address IssuerAddr;\n       // address OrgContract;  //this contract's addr\n        address[] SignerAddr;\n        bytes32[] signerID;\n        mapping (address => SignerInfo) signer;\n        string Version;\n        string CertName;\n        bool Revocation;\n        string Description;\n        string Timestamp;\n    }\n    \n    struct SignerInfo {\n      //  uint signerID;\n        bool status;\n        string publickey;\n        string signature;\n    }\n\n    constructor ()public  {\n        owner = msg.sender;\n    }\n\n    function getContractAddr()public view returns(address){\n        return this;\n    }\n   \n\n    mapping( address => UserCertinfo ) usercertinfo;\n    struct UserCertinfo {\n        uint[] certid;\n    }\n\n\n    \n    function issueCommon(\n        uint issue_id,uint[] certID, address issuer_addr, address[] signer_addr, bytes32[] signer_id, \n        string cert_name, string description, string timestamp)public {\n        ISSUE_ID_LIST[issuer_addr].push(issue_id);\n        CertCommon storage certCommon;\n        //= createCertCommon(version,  cert_name,  description,  timestamp,  revocation,  issuer_addr, signer_addr);\n        certCommon.Version = \"1.0.1\";\n        certCommon.CertName = cert_name;\n        certCommon.Revocation = false;\n        certCommon.Description = description;\n        certCommon.Timestamp = timestamp;\n        certCommon.IssuerAddr = issuer_addr;        \n        certCommon.SignerAddr = signer_addr;\n\n        for (uint8 i = 0; i < signer_addr.length; i++) {\n            certCommon.SignerAddr.push(signer_addr[i]);\n            certCommon.signer[signer_addr[i]].status = false;\n            certCommon.signerID.push(signer_id[i]);\n            ISSUE_ID_LIST_by_Singer[signer_addr[i]].push(issue_id);\n        }\n\n        for (uint8 j = 0; j < certID.length; j++) {\n            CERT_INFO[certID[j]].detail = certCommon;\n        }\n       \n    }\n    function issueDetail(uint issue_id, uint[] certID, bytes32[] user_id, address[] owner_addr, bytes32[] cert_hash, bytes32[] json_hash, address[] signer_addr, bytes1[46][] ipfs_addr)public{\n        if(!(certID.length == owner_addr.length) && (certID.length == cert_hash.length)) revert();\n   \n            \n        for (uint8 i = 0; i < certID.length; i++) {\n            ISSUE_INFO[issue_id].certID.push(certID[i]);\n            CERT_INFO[certID[i]].userID = user_id[i];\n            OWNER_CERT_LIST[owner_addr[i]].push(certID[i]); \n            CERT_INFO[certID[i]].OwnerAddr = owner_addr[i];\n            CERT_INFO[certID[i]].CertHash = cert_hash[i];\n            CERT_INFO[certID[i]].JsonHash1 = json_hash[i];\n            CERT_INFO[certID[i]].ipfshash = ipfs_addr[i];\n            \n            CERT_INFO[certID[i]].done = false;\n            for(uint j = 0; j<signer_addr.length; j++){\n                SIGNER_CERT_LIST[signer_addr[j]].certID.push(certID[i]);\n                SIGNER_CERT_LIST[signer_addr[j]].status[certID[i]] = false;\n            }\n        }\n    }\n\n \n    function pushCertIDToOwner(address[] user_addr, uint[] cert_id)public {\n        if(cert_id.length != user_addr.length) revert();\n       \n        for(uint8 i = 0; i < user_addr.length; i++){\n            address current_addr = user_addr[i];            \n            OWNER_CERT_LIST[current_addr].push(cert_id[i]);            \n        }\n    }\n    \n  \n    //rename pushSignerPublickey to sign\n    function sign(uint certID, string publickey, address signer, /*uint issue_id, */string sjws/*, bytes32 userid*/ )public {\n        if(CERT_INFO[certID].OwnerAddr == 0)   revert();\n        CERT_INFO[certID].detail.signer[signer].publickey = publickey;        \n        //CERT_INFO[certID].detail.signer[signer1].signerID = userid;       \n\n        //for getall info         \n        //CERT_INFO[certID].detail.signerID.push(userid);\n        \n        CERT_INFO[certID].detail.signer[signer].signature = sjws;\n        CERT_INFO[certID].detail.signer[signer].status = true;\n        //signerCertInfo[signer1].signerListInfo[issueid].signedList.push(certID);\n\n        SIGNER_CERT_LIST[signer].status[certID] = true;\n        bool status = true;\n        for (uint8 i = 0; i < CERT_INFO[certID].detail.SignerAddr.length; i++) {\n            address signer_addr = CERT_INFO[certID].detail.SignerAddr[i];\n            if( !CERT_INFO[certID].detail.signer[signer_addr].status){\n                status = false;\n                break;\n            }\n        }\n        if(status==true) CERT_INFO[certID].done = true;\n    }\n    function revoke(uint certID) public {\n        CERT_INFO[certID].detail.Revocation = true;\n    }\n\n    function getSignerCertList(address signer)public view returns(uint[]){\n        //sould use memory to avoid out of gas\n        uint[] memory certList = new uint[](SIGNER_CERT_LIST[signer].certID.length);        \n        uint idx = 0;\n        for(uint i = 0; i<SIGNER_CERT_LIST[signer].certID.length ; i++){\n\n            uint certID = SIGNER_CERT_LIST[signer].certID[i];\n            if(!SIGNER_CERT_LIST[signer].status[certID]){\n                certList[idx] = certID;\n                idx++;\n            }\n        }\n\n        //solidity cannot use dynamic array for memory\n        uint[] memory certList_short = new uint[](idx);    \n        for(i = 0; i<idx ; i++){\n            certList_short[i] = certList[i];\n        }\n\n        return certList_short;\n    }\n    function getSignerCertList_idx(address signer)public view returns(uint){\n        //sould use memory to avoid out of gas\n        uint[] memory certList = new uint[](SIGNER_CERT_LIST[signer].certID.length);        \n        uint idx = 0;\n        for(uint i = 0; i<SIGNER_CERT_LIST[signer].certID.length ; i++){\n\n            uint certID = SIGNER_CERT_LIST[signer].certID[i];\n            if(!SIGNER_CERT_LIST[signer].status[certID]){\n                certList[idx] = certID;\n                idx++;\n            }\n        }\n\n        //solidity cannot use dynamic array for memory\n        uint[] memory certList_short = new uint[](idx);    \n        for(i = 0; i<idx ; i++){\n            certList_short[i] = certList[i];\n        }\n\n        return idx;\n    }\n    //have not set yet\n    //rename get_swarm_hash\n    /*function getSwarmHash (uint certID)public view returns(bytes32){\n        return (CERT_INFO[certID].swarmhash);\n    }*/\n    \n    //getsignerpub\n    function getSignerPubkey (uint certID,address signer)public view returns(string){\n        return (CERT_INFO[certID].detail.signer[signer].publickey);\n    }\n\n    //getsignerstatus    \n    //never used, incorrect code, why return only 1 status???\n    /*function getSignerStatus (uint certID, address[] signeraddress)public view returns(bool){\n        bool sigstatus;\n        sigstatus = false;\n        for(uint8 i = 0;i < CERT_INFO[certID].detail.SignerAddr.length;i++){\n            sigstatus = CERT_INFO[certID].detail.signer[CERT_INFO[certID].detail.SignerAddr[i]].status;\n        }\n        return (sigstatus);\n    }*/\n    // getallinfo\n    function getCertInfo (uint certID) public view  returns( string, string, string, string, address, bytes1[46] ){       \n        return ( CERT_INFO[certID].detail.Description, CERT_INFO[certID].detail.Timestamp, CERT_INFO[certID].detail.Version, \n        CERT_INFO[certID].detail.CertName, CERT_INFO[certID].detail.IssuerAddr, CERT_INFO[certID].ipfshash);\n        \n    }\n    //?????signer id didn't set before sign\n    //getallinfo2\n    //seperate to 2 function because too much variables\n    function getCertInfo2 (uint certID)public view returns(address,bytes32,bytes32,bytes32[],address[],bytes32,bool){\n        return (CERT_INFO[certID].OwnerAddr,CERT_INFO[certID].CertHash,CERT_INFO[certID].JsonHash1,CERT_INFO[certID].detail.signerID,\n        CERT_INFO[certID].detail.SignerAddr,CERT_INFO[certID].userID,CERT_INFO[certID].detail.Revocation);\n    }\n    //get_CertHash\n    function getCertHash (uint certID)public view returns(bytes32){\n        return (CERT_INFO[certID].CertHash);\n    }\n\n    function getOwnerAddr (uint certID)public view returns(address){\n        return CERT_INFO[certID].OwnerAddr;\n    }\n    function getIssuerAddr(uint certID)public view returns(address){\n        return CERT_INFO[certID].detail.IssuerAddr;\n    }\n    \n    function getSignerAddr(uint certID)public view returns(address[]){\n        return CERT_INFO[certID].detail.SignerAddr;\n    }\n\n    function setJsonHash2(uint certID,bytes32 json_hash)public  {\n        CERT_INFO[certID].JsonHash2 = json_hash;\n    }\n    function getJsonHash1(uint certID)public view  returns (bytes32){\n        return CERT_INFO[certID].JsonHash1;\n    }\n    function getJsonHash2(uint certID)public view  returns (bytes32){\n        return CERT_INFO[certID].JsonHash2;\n    }\n\n    function getStatus(uint certID, address signer)public view returns (bool){\n        return CERT_INFO[certID].detail.signer[signer].status;\n    }\n\n    function checkStatus(uint certID) public view returns (bool){\n        return CERT_INFO[certID].done;\n    }\n    //getsig\n    function getSignature(uint certID,address signerad) public view returns(string){\n        return CERT_INFO[certID].detail.signer[signerad].signature;\n    }\n    function setP2PLoc(uint certID, bytes32 location) public  {\n        CERT_INFO[certID].P2pLoc = location;\n    }\n\n    function getP2PLoc(uint certID) public view returns (bytes32) {\n        return CERT_INFO[certID].P2pLoc;\n    }\n//--------------------signer cert info\n\n    function getIssuerIssueIDList (address issue_addr )public view returns(uint[]){\n        return (ISSUE_ID_LIST[issue_addr]);\n    }\n\n    function getSignerIssueIDList (address signer_addr )public view returns(uint[]){\n        return (ISSUE_ID_LIST_by_Singer[signer_addr]);\n    }\n\n    function getSignedList ( uint issue_id) public view returns(uint[]){\n        if(ISSUE_INFO[issue_id].certID.length==0)revert();\n               \n        uint[] memory all_certID = ISSUE_INFO[issue_id].certID; \n        for(uint8 i = 0;i < all_certID.length;i++){\n            uint curr_certID = all_certID[i];\n            if(CERT_INFO[curr_certID].done==true){\n                ISSUE_INFO[issue_id].signedCertID.push(curr_certID);\n            }\n        } \n        \n        return ISSUE_INFO[issue_id].signedCertID;\n    }\n\n         \n\n    function getCertIDList(uint issue_id)public view returns(uint[]){\n        return ISSUE_INFO[issue_id].certID;  \n    }\n\n \n    function getIssueIDInfo ( uint issue_id )public view returns(uint[],string,string,string,uint[]){\n        //uint[] all_certID = ISSUE_INFO[issue_id];\n        uint[] memory signedList = getSignedList(issue_id);\n        CertCommon memory detail = CERT_INFO[ISSUE_INFO[issue_id].certID[0]].detail;\n        return(ISSUE_INFO[issue_id].certID,detail.CertName,detail.Description,detail.Timestamp, signedList);\n    }   \n\n//--------------owner's cert info\n//getusercert\n    function getUserCert (address user_addr)public view returns(uint[]){\n        return (OWNER_CERT_LIST[user_addr]);\n    }\n    //--------------add ipfshash to CERT_INFO\n    // function addIpfsHash(uint certID,string ipfshash) public returns(string){\n    //     CERT_INFO[certID].ipfshash = ipfshash;\n    //     return \"success\";\n    // }\n    //--------------get ipfshash to CERT_INFO\n    function getIpfsHash(uint certID) public view returns(bytes1[46]){\n        return (CERT_INFO[certID].ipfshash);\n    }\n}\n",
  "sourcePath": "/home/shanehung/Works/dadu3cert-core/cert-contract/contracts/Cert.sol",
  "compiler": {
    "name": "solc",
    "version": "0.4.24+commit.e67f0147.Emscripten.clang"
  },
  "schemaVersion": "2.0.1",
  "updatedAt": "2019-01-07T08:15:14.006Z"
}