{
  "contractName": "Cert2",
  "abi": [
    {
      "inputs": [],
      "payable": false,
      "stateMutability": "nonpayable",
      "type": "constructor"
    },
    {
      "constant": false,
      "inputs": [
        {
          "name": "issueid",
          "type": "uint256"
        },
        {
          "name": "certID",
          "type": "uint256[]"
        },
        {
          "name": "owner_addr",
          "type": "address[]"
        },
        {
          "name": "cert_hash",
          "type": "bytes32[]"
        },
        {
          "name": "json_hash",
          "type": "bytes32[]"
        },
        {
          "name": "issuer_addr",
          "type": "address"
        },
        {
          "name": "signer_addr",
          "type": "address[]"
        },
        {
          "name": "version",
          "type": "string"
        },
        {
          "name": "cert_name",
          "type": "string"
        },
        {
          "name": "description",
          "type": "string"
        },
        {
          "name": "timestamp",
          "type": "string"
        },
        {
          "name": "revocation",
          "type": "bool"
        }
      ],
      "name": "issue",
      "outputs": [],
      "payable": false,
      "stateMutability": "nonpayable",
      "type": "function"
    },
    {
      "constant": false,
      "inputs": [
        {
          "name": "certID",
          "type": "uint256[]"
        },
        {
          "name": "userid",
          "type": "uint256[]"
        }
      ],
      "name": "pushuserid",
      "outputs": [],
      "payable": false,
      "stateMutability": "nonpayable",
      "type": "function"
    },
    {
      "constant": false,
      "inputs": [
        {
          "name": "user_id",
          "type": "address[]"
        },
        {
          "name": "cert_id",
          "type": "uint256[]"
        }
      ],
      "name": "pushusercert",
      "outputs": [],
      "payable": false,
      "stateMutability": "nonpayable",
      "type": "function"
    },
    {
      "constant": false,
      "inputs": [
        {
          "name": "issue_addr",
          "type": "address"
        },
        {
          "name": "issueid",
          "type": "uint256"
        },
        {
          "name": "certID",
          "type": "uint256[]"
        },
        {
          "name": "certname",
          "type": "string"
        },
        {
          "name": "cert_description",
          "type": "string"
        },
        {
          "name": "timestamp",
          "type": "string"
        }
      ],
      "name": "setSignerList",
      "outputs": [],
      "payable": false,
      "stateMutability": "nonpayable",
      "type": "function"
    },
    {
      "constant": true,
      "inputs": [
        {
          "name": "issue_addr",
          "type": "address"
        }
      ],
      "name": "getIssuerIssueIDList",
      "outputs": [
        {
          "name": "",
          "type": "uint256[]"
        }
      ],
      "payable": false,
      "stateMutability": "view",
      "type": "function"
    },
    {
      "constant": true,
      "inputs": [
        {
          "name": "issue_addr",
          "type": "address"
        },
        {
          "name": "issueid",
          "type": "uint256"
        }
      ],
      "name": "getSignedList",
      "outputs": [
        {
          "name": "",
          "type": "uint256[]"
        }
      ],
      "payable": false,
      "stateMutability": "view",
      "type": "function"
    },
    {
      "constant": true,
      "inputs": [
        {
          "name": "issue_addr",
          "type": "address"
        }
      ],
      "name": "getIssueIDList",
      "outputs": [
        {
          "name": "",
          "type": "uint256[]"
        }
      ],
      "payable": false,
      "stateMutability": "view",
      "type": "function"
    },
    {
      "constant": true,
      "inputs": [
        {
          "name": "issue_addr",
          "type": "address"
        },
        {
          "name": "issueid",
          "type": "uint256"
        }
      ],
      "name": "getIssueIDInfo",
      "outputs": [
        {
          "name": "",
          "type": "uint256[]"
        },
        {
          "name": "",
          "type": "string"
        },
        {
          "name": "",
          "type": "string"
        },
        {
          "name": "",
          "type": "string"
        },
        {
          "name": "",
          "type": "uint256[]"
        }
      ],
      "payable": false,
      "stateMutability": "view",
      "type": "function"
    },
    {
      "constant": true,
      "inputs": [
        {
          "name": "certID",
          "type": "uint256"
        },
        {
          "name": "signeraddr",
          "type": "address[]"
        }
      ],
      "name": "getsignerstatus",
      "outputs": [
        {
          "name": "",
          "type": "bool"
        }
      ],
      "payable": false,
      "stateMutability": "view",
      "type": "function"
    },
    {
      "constant": false,
      "inputs": [
        {
          "name": "certID",
          "type": "uint256"
        },
        {
          "name": "publickey1",
          "type": "string"
        },
        {
          "name": "signer1",
          "type": "address"
        },
        {
          "name": "issueid",
          "type": "uint256"
        },
        {
          "name": "sjws",
          "type": "string"
        },
        {
          "name": "userid",
          "type": "uint256"
        }
      ],
      "name": "pushsignerpublickey",
      "outputs": [],
      "payable": false,
      "stateMutability": "nonpayable",
      "type": "function"
    },
    {
      "constant": true,
      "inputs": [
        {
          "name": "certID",
          "type": "uint256"
        }
      ],
      "name": "get_swarm_hash",
      "outputs": [
        {
          "name": "",
          "type": "address"
        }
      ],
      "payable": false,
      "stateMutability": "view",
      "type": "function"
    },
    {
      "constant": true,
      "inputs": [
        {
          "name": "certID",
          "type": "uint256"
        },
        {
          "name": "signer1",
          "type": "address"
        }
      ],
      "name": "getsignerpub",
      "outputs": [
        {
          "name": "",
          "type": "string"
        }
      ],
      "payable": false,
      "stateMutability": "view",
      "type": "function"
    },
    {
      "constant": true,
      "inputs": [
        {
          "name": "user_id",
          "type": "address"
        }
      ],
      "name": "getusercert",
      "outputs": [
        {
          "name": "",
          "type": "uint256[]"
        }
      ],
      "payable": false,
      "stateMutability": "view",
      "type": "function"
    },
    {
      "constant": true,
      "inputs": [
        {
          "name": "certID",
          "type": "uint256"
        }
      ],
      "name": "getallinfo",
      "outputs": [
        {
          "name": "",
          "type": "bool"
        },
        {
          "name": "",
          "type": "string"
        },
        {
          "name": "",
          "type": "string"
        },
        {
          "name": "",
          "type": "string"
        },
        {
          "name": "",
          "type": "string"
        },
        {
          "name": "",
          "type": "uint256[]"
        }
      ],
      "payable": false,
      "stateMutability": "view",
      "type": "function"
    },
    {
      "constant": true,
      "inputs": [
        {
          "name": "certID",
          "type": "uint256"
        }
      ],
      "name": "getallinfo2",
      "outputs": [
        {
          "name": "",
          "type": "address"
        },
        {
          "name": "",
          "type": "bytes32"
        },
        {
          "name": "",
          "type": "bytes32"
        },
        {
          "name": "",
          "type": "address"
        },
        {
          "name": "",
          "type": "address[]"
        },
        {
          "name": "",
          "type": "uint256"
        }
      ],
      "payable": false,
      "stateMutability": "view",
      "type": "function"
    },
    {
      "constant": true,
      "inputs": [
        {
          "name": "certID",
          "type": "uint256"
        }
      ],
      "name": "get_CertHash",
      "outputs": [
        {
          "name": "",
          "type": "bytes32"
        }
      ],
      "payable": false,
      "stateMutability": "view",
      "type": "function"
    },
    {
      "constant": true,
      "inputs": [
        {
          "name": "certID",
          "type": "uint256"
        }
      ],
      "name": "getOwnerAddr",
      "outputs": [
        {
          "name": "",
          "type": "address"
        }
      ],
      "payable": false,
      "stateMutability": "view",
      "type": "function"
    },
    {
      "constant": true,
      "inputs": [
        {
          "name": "certID",
          "type": "uint256"
        }
      ],
      "name": "getIssuerAddr",
      "outputs": [
        {
          "name": "",
          "type": "address"
        }
      ],
      "payable": false,
      "stateMutability": "view",
      "type": "function"
    },
    {
      "constant": true,
      "inputs": [],
      "name": "getContractAddr",
      "outputs": [
        {
          "name": "",
          "type": "address"
        }
      ],
      "payable": false,
      "stateMutability": "view",
      "type": "function"
    },
    {
      "constant": true,
      "inputs": [
        {
          "name": "certID",
          "type": "uint256"
        }
      ],
      "name": "getSignerAddr",
      "outputs": [
        {
          "name": "",
          "type": "address[]"
        }
      ],
      "payable": false,
      "stateMutability": "view",
      "type": "function"
    },
    {
      "constant": false,
      "inputs": [
        {
          "name": "certID",
          "type": "uint256"
        },
        {
          "name": "json_hash",
          "type": "bytes32"
        }
      ],
      "name": "setJsonHash2",
      "outputs": [],
      "payable": false,
      "stateMutability": "nonpayable",
      "type": "function"
    },
    {
      "constant": true,
      "inputs": [
        {
          "name": "certID",
          "type": "uint256"
        }
      ],
      "name": "getJsonHash1",
      "outputs": [
        {
          "name": "",
          "type": "bytes32"
        }
      ],
      "payable": false,
      "stateMutability": "view",
      "type": "function"
    },
    {
      "constant": true,
      "inputs": [
        {
          "name": "certID",
          "type": "uint256"
        }
      ],
      "name": "getJsonHash2",
      "outputs": [
        {
          "name": "",
          "type": "bytes32"
        }
      ],
      "payable": false,
      "stateMutability": "view",
      "type": "function"
    },
    {
      "constant": false,
      "inputs": [
        {
          "name": "certID",
          "type": "uint256"
        },
        {
          "name": "signer_addr",
          "type": "address"
        }
      ],
      "name": "sign",
      "outputs": [],
      "payable": false,
      "stateMutability": "nonpayable",
      "type": "function"
    },
    {
      "constant": true,
      "inputs": [
        {
          "name": "certID",
          "type": "uint256"
        }
      ],
      "name": "checkStatus",
      "outputs": [
        {
          "name": "",
          "type": "bool"
        }
      ],
      "payable": false,
      "stateMutability": "view",
      "type": "function"
    },
    {
      "constant": true,
      "inputs": [
        {
          "name": "certID",
          "type": "uint256"
        },
        {
          "name": "signerad",
          "type": "address"
        }
      ],
      "name": "getsig",
      "outputs": [
        {
          "name": "",
          "type": "string"
        }
      ],
      "payable": false,
      "stateMutability": "view",
      "type": "function"
    },
    {
      "constant": false,
      "inputs": [
        {
          "name": "certID",
          "type": "uint256"
        },
        {
          "name": "location",
          "type": "bytes32"
        }
      ],
      "name": "setP2PLoc",
      "outputs": [],
      "payable": false,
      "stateMutability": "nonpayable",
      "type": "function"
    },
    {
      "constant": true,
      "inputs": [
        {
          "name": "certID",
          "type": "uint256"
        }
      ],
      "name": "getP2PLoc",
      "outputs": [
        {
          "name": "",
          "type": "bytes32"
        }
      ],
      "payable": false,
      "stateMutability": "view",
      "type": "function"
    }
  ],
  "bytecode": "0x608060405234801561001057600080fd5b50336000806101000a81548173ffffffffffffffffffffffffffffffffffffffff021916908373ffffffffffffffffffffffffffffffffffffffff160217905550613861806100606000396000f30060806040526004361061016a576000357c0100000000000000000000000000000000000000000000000000000000900463ffffffff1680631b333bab1461016f5780632858c764146102115780632d2d1da8146102565780633c57dfb2146102c3578063448995491461030c578063466e11941461038e578063762983d01461045457806378efe77b146104c15780637a00b6af146104fc5780637b700f86146107395780637cacde3f146109f957806385d7b3e514610a4657806387d43b4d14610ade57806395ccc03114610d0c57806399a7cc0614610e195780639e45593914610eb1578063a37c215714610f08578063a95bb9d514610f75578063b103cd4d14611062578063ccdfcd3c1461109d578063e0e2d32e146111ff578063e59d95b214611297578063eb1f28921461135d578063ecb3f78e146113a6578063f3d2b641146113ef578063fd4b9a7b14611498578063fe1d71d214611520578063fff98c4d14611569575b600080fd5b34801561017b57600080fd5b506101ba600480360381019080803573ffffffffffffffffffffffffffffffffffffffff16906020019092919080359060200190929190505050611612565b6040518080602001828103825283818151815260200191508051906020019060200280838360005b838110156101fd5780820151818401526020810190506101e2565b505050509050019250505060405180910390f35b34801561021d57600080fd5b5061023c600480360381019080803590602001909291905050506116c1565b604051808215151515815260200191505060405180910390f35b34801561026257600080fd5b50610281600480360381019080803590602001909291905050506116ee565b604051808273ffffffffffffffffffffffffffffffffffffffff1673ffffffffffffffffffffffffffffffffffffffff16815260200191505060405180910390f35b3480156102cf57600080fd5b506102ee6004803603810190808035906020019092919050505061172e565b60405180826000191660001916815260200191505060405180910390f35b34801561031857600080fd5b506103376004803603810190808035906020019092919050505061174e565b6040518080602001828103825283818151815260200191508051906020019060200280838360005b8381101561037a57808201518184015260208101905061035f565b505050509050019250505060405180910390f35b34801561039a57600080fd5b506103d960048036038101908080359060200190929190803573ffffffffffffffffffffffffffffffffffffffff1690602001909291905050506117f5565b6040518080602001828103825283818151815260200191508051906020019080838360005b838110156104195780820151818401526020810190506103fe565b50505050905090810190601f1680156104465780820380516001836020036101000a031916815260200191505b509250505060405180910390f35b34801561046057600080fd5b5061047f600480360381019080803590602001909291905050506118f1565b604051808273ffffffffffffffffffffffffffffffffffffffff1673ffffffffffffffffffffffffffffffffffffffff16815260200191505060405180910390f35b3480156104cd57600080fd5b506104fa600480360381019080803590602001909291908035600019169060200190929190505050611934565b005b34801561050857600080fd5b5061052760048036038101908080359060200190929190505050611957565b6040518087151515158152602001806020018060200180602001806020018060200186810386528b818151815260200191508051906020019080838360005b83811015610581578082015181840152602081019050610566565b50505050905090810190601f1680156105ae5780820380516001836020036101000a031916815260200191505b5086810385528a818151815260200191508051906020019080838360005b838110156105e75780820151818401526020810190506105cc565b50505050905090810190601f1680156106145780820380516001836020036101000a031916815260200191505b50868103845289818151815260200191508051906020019080838360005b8381101561064d578082015181840152602081019050610632565b50505050905090810190601f16801561067a5780820380516001836020036101000a031916815260200191505b50868103835288818151815260200191508051906020019080838360005b838110156106b3578082015181840152602081019050610698565b50505050905090810190601f1680156106e05780820380516001836020036101000a031916815260200191505b50868103825287818151815260200191508051906020019060200280838360005b8381101561071c578082015181840152602081019050610701565b505050509050019b50505050505050505050505060405180910390f35b34801561074557600080fd5b506109f76004803603810190808035906020019092919080359060200190820180359060200190808060200260200160405190810160405280939291908181526020018383602002808284378201915050505050509192919290803590602001908201803590602001908080602002602001604051908101604052809392919081815260200183836020028082843782019150505050505091929192908035906020019082018035906020019080806020026020016040519081016040528093929190818152602001838360200280828437820191505050505050919291929080359060200190820180359060200190808060200260200160405190810160405280939291908181526020018383602002808284378201915050505050509192919290803573ffffffffffffffffffffffffffffffffffffffff16906020019092919080359060200190820180359060200190808060200260200160405190810160405280939291908181526020018383602002808284378201915050505050509192919290803590602001908201803590602001908080601f0160208091040260200160405190810160405280939291908181526020018383808284378201915050505050509192919290803590602001908201803590602001908080601f0160208091040260200160405190810160405280939291908181526020018383808284378201915050505050509192919290803590602001908201803590602001908080601f0160208091040260200160405190810160405280939291908181526020018383808284378201915050505050509192919290803590602001908201803590602001908080601f0160208091040260200160405190810160405280939291908181526020018383808284378201915050505050509192919290803515159060200190929190505050611e06565b005b348015610a0557600080fd5b50610a4460048036038101908080359060200190929190803573ffffffffffffffffffffffffffffffffffffffff1690602001909291905050506123dd565b005b348015610a5257600080fd5b50610a87600480360381019080803573ffffffffffffffffffffffffffffffffffffffff1690602001909291905050506125f3565b6040518080602001828103825283818151815260200191508051906020019060200280838360005b83811015610aca578082015181840152602081019050610aaf565b505050509050019250505060405180910390f35b348015610aea57600080fd5b50610b29600480360381019080803573ffffffffffffffffffffffffffffffffffffffff1690602001909291908035906020019092919050505061268d565b60405180806020018060200180602001806020018060200186810386528b818151815260200191508051906020019060200280838360005b83811015610b7c578082015181840152602081019050610b61565b5050505090500186810385528a818151815260200191508051906020019080838360005b83811015610bbb578082015181840152602081019050610ba0565b50505050905090810190601f168015610be85780820380516001836020036101000a031916815260200191505b50868103845289818151815260200191508051906020019080838360005b83811015610c21578082015181840152602081019050610c06565b50505050905090810190601f168015610c4e5780820380516001836020036101000a031916815260200191505b50868103835288818151815260200191508051906020019080838360005b83811015610c87578082015181840152602081019050610c6c565b50505050905090810190601f168015610cb45780820380516001836020036101000a031916815260200191505b50868103825287818151815260200191508051906020019060200280838360005b83811015610cf0578082015181840152602081019050610cd5565b505050509050019a505050505050505050505060405180910390f35b348015610d1857600080fd5b50610d3760048036038101908080359060200190929190505050612acf565b604051808773ffffffffffffffffffffffffffffffffffffffff1673ffffffffffffffffffffffffffffffffffffffff168152602001866000191660001916815260200185600019166000191681526020018473ffffffffffffffffffffffffffffffffffffffff1673ffffffffffffffffffffffffffffffffffffffff16815260200180602001838152602001828103825284818151815260200191508051906020019060200280838360005b83811015610e00578082015181840152602081019050610de5565b5050505090500197505050505050505060405180910390f35b348015610e2557600080fd5b50610e5a600480360381019080803573ffffffffffffffffffffffffffffffffffffffff169060200190929190505050612c45565b6040518080602001828103825283818151815260200191508051906020019060200280838360005b83811015610e9d578082015181840152602081019050610e82565b505050509050019250505060405180910390f35b348015610ebd57600080fd5b50610ec6612cdf565b604051808273ffffffffffffffffffffffffffffffffffffffff1673ffffffffffffffffffffffffffffffffffffffff16815260200191505060405180910390f35b348015610f1457600080fd5b50610f3360048036038101908080359060200190929190505050612ce7565b604051808273ffffffffffffffffffffffffffffffffffffffff1673ffffffffffffffffffffffffffffffffffffffff16815260200191505060405180910390f35b348015610f8157600080fd5b5061106060048036038101908080359060200190929190803590602001908201803590602001908080601f0160208091040260200160405190810160405280939291908181526020018383808284378201915050505050509192919290803573ffffffffffffffffffffffffffffffffffffffff16906020019092919080359060200190929190803590602001908201803590602001908080601f016020809104026020016040519081016040528093929190818152602001838380828437820191505050505050919291929080359060200190929190505050612d27565b005b34801561106e57600080fd5b5061109b600480360381019080803590602001909291908035600019169060200190929190505050612f5a565b005b3480156110a957600080fd5b506111fd600480360381019080803573ffffffffffffffffffffffffffffffffffffffff1690602001909291908035906020019092919080359060200190820180359060200190808060200260200160405190810160405280939291908181526020018383602002808284378201915050505050509192919290803590602001908201803590602001908080601f0160208091040260200160405190810160405280939291908181526020018383808284378201915050505050509192919290803590602001908201803590602001908080601f0160208091040260200160405190810160405280939291908181526020018383808284378201915050505050509192919290803590602001908201803590602001908080601f0160208091040260200160405190810160405280939291908181526020018383808284378201915050505050509192919290505050612f7d565b005b34801561120b57600080fd5b50611240600480360381019080803573ffffffffffffffffffffffffffffffffffffffff1690602001909291905050506131ed565b6040518080602001828103825283818151815260200191508051906020019060200280838360005b83811015611283578082015181840152602081019050611268565b505050509050019250505060405180910390f35b3480156112a357600080fd5b506112e260048036038101908080359060200190929190803573ffffffffffffffffffffffffffffffffffffffff169060200190929190505050613287565b6040518080602001828103825283818151815260200191508051906020019080838360005b83811015611322578082015181840152602081019050611307565b50505050905090810190601f16801561134f5780820380516001836020036101000a031916815260200191505b509250505060405180910390f35b34801561136957600080fd5b5061138860048036038101908080359060200190929190505050613383565b60405180826000191660001916815260200191505060405180910390f35b3480156113b257600080fd5b506113d1600480360381019080803590602001909291905050506133a3565b60405180826000191660001916815260200191505060405180910390f35b3480156113fb57600080fd5b5061149660048036038101908080359060200190820180359060200190808060200260200160405190810160405280939291908181526020018383602002808284378201915050505050509192919290803590602001908201803590602001908080602002602001604051908101604052809392919081815260200183836020028082843782019150505050505091929192905050506133c3565b005b3480156114a457600080fd5b506115066004803603810190808035906020019092919080359060200190820180359060200190808060200260200160405190810160405280939291908181526020018383602002808284378201915050505050509192919290505050613487565b604051808215151515815260200191505060405180910390f35b34801561152c57600080fd5b5061154b6004803603810190808035906020019092919050505061358f565b60405180826000191660001916815260200191505060405180910390f35b34801561157557600080fd5b5061161060048036038101908080359060200190820180359060200190808060200260200160405190810160405280939291908181526020018383602002808284378201915050505050509192919290803590602001908201803590602001908080602002602001604051908101604052809392919081815260200183836020028082843782019150505050505091929192905050506135af565b005b6060600360008473ffffffffffffffffffffffffffffffffffffffff1673ffffffffffffffffffffffffffffffffffffffff16815260200190815260200160002060010160008381526020019081526020016000206000018054806020026020016040519081016040528092919081815260200182805480156116b457602002820191906000526020600020905b8154815260200190600101908083116116a0575b5050505050905092915050565b600060016000838152602001908152602001600020600b0160009054906101000a900460ff169050919050565b600060016000838152602001908152602001600020600b0160019054906101000a900473ffffffffffffffffffffffffffffffffffffffff169050919050565b600060016000838152602001908152602001600020600e01549050919050565b6060600160008381526020019081526020016000206002016001018054806020026020016040519081016040528092919081815260200182805480156117e957602002820191906000526020600020905b8160009054906101000a900473ffffffffffffffffffffffffffffffffffffffff1673ffffffffffffffffffffffffffffffffffffffff168152602001906001019080831161179f575b50505050509050919050565b60606001600084815260200190815260200160002060020160030160008373ffffffffffffffffffffffffffffffffffffffff1673ffffffffffffffffffffffffffffffffffffffff1681526020019081526020016000206002018054600181600116156101000203166002900480601f0160208091040260200160405190810160405280929190818152602001828054600181600116156101000203166002900480156118e45780601f106118b9576101008083540402835291602001916118e4565b820191906000526020600020905b8154815290600101906020018083116118c757829003601f168201915b5050505050905092915050565b60006001600083815260200190815260200160002060020160000160009054906101000a900473ffffffffffffffffffffffffffffffffffffffff169050919050565b8060016000848152602001908152602001600020600f0181600019169055505050565b6000606080606080606060008090505b60016000898152602001908152602001600020600201600101805490508160ff161015611a8a5760016000898152602001908152602001600020600201600201600160008a81526020019081526020016000206002016003016000600160008c81526020019081526020016000206002016001018460ff168154811015156119eb57fe5b9060005260206000200160009054906101000a900473ffffffffffffffffffffffffffffffffffffffff1673ffffffffffffffffffffffffffffffffffffffff1673ffffffffffffffffffffffffffffffffffffffff1681526020019081526020016000206000015490806001815401808255809150509060018203906000526020600020016000909192909190915055508080600101915050611967565b6001600089815260200190815260200160002060020160060160009054906101000a900460ff16600160008a8152602001908152602001600020600201600701600160008b8152602001908152602001600020600201600801600160008c8152602001908152602001600020600201600401600160008d8152602001908152602001600020600201600501600160008e8152602001908152602001600020600201600201848054600181600116156101000203166002900480601f016020809104026020016040519081016040528092919081815260200182805460018160011615610100020316600290048015611bc35780601f10611b9857610100808354040283529160200191611bc3565b820191906000526020600020905b815481529060010190602001808311611ba657829003601f168201915b50505050509450838054600181600116156101000203166002900480601f016020809104026020016040519081016040528092919081815260200182805460018160011615610100020316600290048015611c5f5780601f10611c3457610100808354040283529160200191611c5f565b820191906000526020600020905b815481529060010190602001808311611c4257829003601f168201915b50505050509350828054600181600116156101000203166002900480601f016020809104026020016040519081016040528092919081815260200182805460018160011615610100020316600290048015611cfb5780601f10611cd057610100808354040283529160200191611cfb565b820191906000526020600020905b815481529060010190602001808311611cde57829003601f168201915b50505050509250818054600181600116156101000203166002900480601f016020809104026020016040519081016040528092919081815260200182805460018160011615610100020316600290048015611d975780601f10611d6c57610100808354040283529160200191611d97565b820191906000526020600020905b815481529060010190602001808311611d7a57829003601f168201915b5050505050915080805480602002602001604051908101604052809291908181526020018280548015611de957602002820191906000526020600020905b815481526020019060010190808311611dd5575b505050505090509650965096509650965096505091939550919395565b600080611e138c8e6133c3565b8b518d5114158015611e2657508a518d51145b15611e3057600080fd5b86826004019080519060200190611e48929190613622565b5085826005019080519060200190611e61929190613622565b50828260060160006101000a81548160ff02191690831515021790555084826007019080519060200190611e96929190613622565b5083826008019080519060200190611eaf929190613622565b50888260000160006101000a81548173ffffffffffffffffffffffffffffffffffffffff021916908373ffffffffffffffffffffffffffffffffffffffff160217905550600090505b87518160ff16101561200a5781600101888260ff16815181101515611f1957fe5b9060200190602002015190806001815401808255809150509060018203906000526020600020016000909192909190916101000a81548173ffffffffffffffffffffffffffffffffffffffff021916908373ffffffffffffffffffffffffffffffffffffffff1602179055505060008260030160008a8460ff16815181101515611f9f57fe5b9060200190602002015173ffffffffffffffffffffffffffffffffffffffff1673ffffffffffffffffffffffffffffffffffffffff16815260200190815260200160002060010160006101000a81548160ff0219169083151502179055508080600101915050611ef8565b600090505b8c518160ff1610156123bf578b8160ff1681518110151561202c57fe5b90602001906020020151600160008f8460ff1681518110151561204b57fe5b90602001906020020151815260200190815260200160002060000160006101000a81548173ffffffffffffffffffffffffffffffffffffffff021916908373ffffffffffffffffffffffffffffffffffffffff1602179055508b8160ff168151811015156120b557fe5b90602001906020020151600160008f8460ff168151811015156120d457fe5b906020019060200201518152602001908152602001600020600b0160016101000a81548173ffffffffffffffffffffffffffffffffffffffff021916908373ffffffffffffffffffffffffffffffffffffffff1602179055508a8160ff1681518110151561213e57fe5b90602001906020020151600160008f8460ff1681518110151561215d57fe5b906020019060200201518152602001908152602001600020600c018160001916905550898160ff1681518110151561219157fe5b90602001906020020151600160008f8460ff168151811015156121b057fe5b906020019060200201518152602001908152602001600020600d01816000191690555081600160008f8460ff168151811015156121e957fe5b9060200190602002015181526020019081526020016000206002016000820160009054906101000a900473ffffffffffffffffffffffffffffffffffffffff168160000160006101000a81548173ffffffffffffffffffffffffffffffffffffffff021916908373ffffffffffffffffffffffffffffffffffffffff16021790555060018201816001019080546122819291906136a2565b5060028201816002019080546122989291906136f4565b50600482018160040190805460018160011615610100020316600290046122c0929190613746565b50600582018160050190805460018160011615610100020316600290046122e8929190613746565b506006820160009054906101000a900460ff168160060160006101000a81548160ff0219169083151502179055506007820181600701908054600181600116156101000203166002900461233d929190613746565b5060088201816008019080546001816001161561010002031660029004612365929190613746565b509050506000600160008f8460ff1681518110151561238057fe5b906020019060200201518152602001908152602001600020600b0160006101000a81548160ff021916908315150217905550808060010191505061200f565b6123cd898f8f898989612f7d565b5050505050505050505050505050565b60008060006001600086815260200190815260200160002060000160009054906101000a900473ffffffffffffffffffffffffffffffffffffffff1673ffffffffffffffffffffffffffffffffffffffff16141561243a57600080fd5b600180600086815260200190815260200160002060020160030160008573ffffffffffffffffffffffffffffffffffffffff1673ffffffffffffffffffffffffffffffffffffffff16815260200190815260200160002060010160006101000a81548160ff02191690831515021790555060019150600090505b60016000858152602001908152602001600020600201600101805490508160ff1610156125b157600160008581526020019081526020016000206002016003016000600160008781526020019081526020016000206002016001018360ff1681548110151561251f57fe5b9060005260206000200160009054906101000a900473ffffffffffffffffffffffffffffffffffffffff1673ffffffffffffffffffffffffffffffffffffffff1673ffffffffffffffffffffffffffffffffffffffff16815260200190815260200160002060010160009054906101000a900460ff1615156125a457600091506125b1565b80806001019150506124b4565b6001151582151514156125ed576001806000868152602001908152602001600020600b0160006101000a81548160ff0219169083151502179055505b50505050565b6060600260008373ffffffffffffffffffffffffffffffffffffffff1673ffffffffffffffffffffffffffffffffffffffff16815260200190815260200160002060000180548060200260200160405190810160405280929190818152602001828054801561268157602002820191906000526020600020905b81548152602001906001019080831161266d575b50505050509050919050565b6060806060806060600360008873ffffffffffffffffffffffffffffffffffffffff1673ffffffffffffffffffffffffffffffffffffffff1681526020019081526020016000206001016000878152602001908152602001600020600001600360008973ffffffffffffffffffffffffffffffffffffffff1673ffffffffffffffffffffffffffffffffffffffff1681526020019081526020016000206001016000888152602001908152602001600020600101600360008a73ffffffffffffffffffffffffffffffffffffffff1673ffffffffffffffffffffffffffffffffffffffff1681526020019081526020016000206001016000898152602001908152602001600020600401600360008b73ffffffffffffffffffffffffffffffffffffffff1673ffffffffffffffffffffffffffffffffffffffff16815260200190815260200160002060010160008a8152602001908152602001600020600201600360008c73ffffffffffffffffffffffffffffffffffffffff1673ffffffffffffffffffffffffffffffffffffffff16815260200190815260200160002060010160008b81526020019081526020016000206003018480548060200260200160405190810160405280929190818152602001828054801561288e57602002820191906000526020600020905b81548152602001906001019080831161287a575b50505050509450838054600181600116156101000203166002900480601f01602080910402602001604051908101604052809291908181526020018280546001816001161561010002031660029004801561292a5780601f106128ff5761010080835404028352916020019161292a565b820191906000526020600020905b81548152906001019060200180831161290d57829003601f168201915b50505050509350828054600181600116156101000203166002900480601f0160208091040260200160405190810160405280929190818152602001828054600181600116156101000203166002900480156129c65780601f1061299b576101008083540402835291602001916129c6565b820191906000526020600020905b8154815290600101906020018083116129a957829003601f168201915b50505050509250818054600181600116156101000203166002900480601f016020809104026020016040519081016040528092919081815260200182805460018160011615610100020316600290048015612a625780601f10612a3757610100808354040283529160200191612a62565b820191906000526020600020905b815481529060010190602001808311612a4557829003601f168201915b5050505050915080805480602002602001604051908101604052809291908181526020018280548015612ab457602002820191906000526020600020905b815481526020019060010190808311612aa0575b50505050509050945094509450945094509295509295909350565b600080600080606060006001600088815260200190815260200160002060000160009054906101000a900473ffffffffffffffffffffffffffffffffffffffff1660016000898152602001908152602001600020600c0154600160008a8152602001908152602001600020600d0154600160008b815260200190815260200160002060020160000160009054906101000a900473ffffffffffffffffffffffffffffffffffffffff16600160008c8152602001908152602001600020600201600101600160008d81526020019081526020016000206001015481805480602002602001604051908101604052809291908181526020018280548015612c2957602002820191906000526020600020905b8160009054906101000a900473ffffffffffffffffffffffffffffffffffffffff1673ffffffffffffffffffffffffffffffffffffffff1681526020019060010190808311612bdf575b5050505050915095509550955095509550955091939550919395565b6060600360008373ffffffffffffffffffffffffffffffffffffffff1673ffffffffffffffffffffffffffffffffffffffff168152602001908152602001600020600001805480602002602001604051908101604052809291908181526020018280548015612cd357602002820191906000526020600020905b815481526020019060010190808311612cbf575b50505050509050919050565b600030905090565b60006001600083815260200190815260200160002060000160009054906101000a900473ffffffffffffffffffffffffffffffffffffffff169050919050565b846001600088815260200190815260200160002060020160030160008673ffffffffffffffffffffffffffffffffffffffff1673ffffffffffffffffffffffffffffffffffffffff1681526020019081526020016000206002019080519060200190612d94929190613622565b50600360008573ffffffffffffffffffffffffffffffffffffffff1673ffffffffffffffffffffffffffffffffffffffff1681526020019081526020016000206001016000848152602001908152602001600020600301869080600181540180825580915050906001820390600052602060002001600090919290919091505550806001600088815260200190815260200160002060020160030160008673ffffffffffffffffffffffffffffffffffffffff1673ffffffffffffffffffffffffffffffffffffffff16815260200190815260200160002060000181905550816001600088815260200190815260200160002060020160030160008673ffffffffffffffffffffffffffffffffffffffff1673ffffffffffffffffffffffffffffffffffffffff1681526020019081526020016000206003019080519060200190612ee0929190613622565b50600180600088815260200190815260200160002060020160030160008673ffffffffffffffffffffffffffffffffffffffff1673ffffffffffffffffffffffffffffffffffffffff16815260200190815260200160002060010160006101000a81548160ff021916908315150217905550505050505050565b8060016000848152602001908152602001600020600e0181600019169055505050565b6000600360008873ffffffffffffffffffffffffffffffffffffffff1673ffffffffffffffffffffffffffffffffffffffff16815260200190815260200160002060000186908060018154018082558091505090600182039060005260206000200160009091929091909150555082600360008973ffffffffffffffffffffffffffffffffffffffff1673ffffffffffffffffffffffffffffffffffffffff16815260200190815260200160002060010160008881526020019081526020016000206004019080519060200190613055929190613622565b5083600360008973ffffffffffffffffffffffffffffffffffffffff1673ffffffffffffffffffffffffffffffffffffffff168152602001908152602001600020600101600088815260200190815260200160002060010190805190602001906130c0929190613622565b5081600360008973ffffffffffffffffffffffffffffffffffffffff1673ffffffffffffffffffffffffffffffffffffffff1681526020019081526020016000206001016000888152602001908152602001600020600201908051906020019061312b929190613622565b50600090505b84518160ff1610156131e457600360008873ffffffffffffffffffffffffffffffffffffffff1673ffffffffffffffffffffffffffffffffffffffff1681526020019081526020016000206001016000878152602001908152602001600020600001858260ff168151811015156131a457fe5b9060200190602002015190806001815401808255809150509060018203906000526020600020016000909192909190915055508080600101915050613131565b50505050505050565b6060600360008373ffffffffffffffffffffffffffffffffffffffff1673ffffffffffffffffffffffffffffffffffffffff16815260200190815260200160002060000180548060200260200160405190810160405280929190818152602001828054801561327b57602002820191906000526020600020905b815481526020019060010190808311613267575b50505050509050919050565b60606001600084815260200190815260200160002060020160030160008373ffffffffffffffffffffffffffffffffffffffff1673ffffffffffffffffffffffffffffffffffffffff1681526020019081526020016000206003018054600181600116156101000203166002900480601f0160208091040260200160405190810160405280929190818152602001828054600181600116156101000203166002900480156133765780601f1061334b57610100808354040283529160200191613376565b820191906000526020600020905b81548152906001019060200180831161335957829003601f168201915b5050505050905092915050565b600060016000838152602001908152602001600020600d01549050919050565b600060016000838152602001908152602001600020600c01549050919050565b60008090505b82518160ff1610156134825760026000848360ff168151811015156133ea57fe5b9060200190602002015173ffffffffffffffffffffffffffffffffffffffff1673ffffffffffffffffffffffffffffffffffffffff168152602001908152602001600020600001828260ff1681518110151561344257fe5b90602001906020020151908060018154018082558091505090600182039060005260206000200160009091929091909150555080806001019150506133c9565b505050565b6000806000809150600090505b60016000868152602001908152602001600020600201600101805490508160ff16101561358457600160008681526020019081526020016000206002016003016000600160008881526020019081526020016000206002016001018360ff168154811015156134ff57fe5b9060005260206000200160009054906101000a900473ffffffffffffffffffffffffffffffffffffffff1673ffffffffffffffffffffffffffffffffffffffff1673ffffffffffffffffffffffffffffffffffffffff16815260200190815260200160002060010160009054906101000a900460ff1691508080600101915050613494565b819250505092915050565b600060016000838152602001908152602001600020600f01549050919050565b60008090505b82518160ff16101561361d57818160ff168151811015156135d257fe5b9060200190602002015160016000858460ff168151811015156135f157fe5b9060200190602002015181526020019081526020016000206001018190555080806001019150506135b5565b505050565b828054600181600116156101000203166002900490600052602060002090601f016020900481019282601f1061366357805160ff1916838001178555613691565b82800160010185558215613691579182015b82811115613690578251825591602001919060010190613675565b5b50905061369e91906137cd565b5090565b8280548282559060005260206000209081019282156136e35760005260206000209182015b828111156136e25782548255916001019190600101906136c7565b5b5090506136f091906137f2565b5090565b8280548282559060005260206000209081019282156137355760005260206000209182015b82811115613734578254825591600101919060010190613719565b5b50905061374291906137cd565b5090565b828054600181600116156101000203166002900490600052602060002090601f016020900481019282601f1061377f57805485556137bc565b828001600101855582156137bc57600052602060002091601f016020900482015b828111156137bb5782548255916001019190600101906137a0565b5b5090506137c991906137cd565b5090565b6137ef91905b808211156137eb5760008160009055506001016137d3565b5090565b90565b61383291905b8082111561382e57600081816101000a81549073ffffffffffffffffffffffffffffffffffffffff0219169055506001016137f8565b5090565b905600a165627a7a72305820c36be9d8b847324ce9fc7dcb7b5673798c3ffbbbbc50e97bdec9e2b1752e423a0029",
  "source": "pragma solidity ^0.4.23;\r\n\r\n\r\ncontract Cert2 {\r\n\r\n    address owner;\r\n\r\n    mapping( uint => CertInfo ) certInfo;\r\n    mapping( address => UserCertinfo ) usercertinfo;\r\n    mapping( address => SignerCertInfo ) signerCertInfo;\r\n    \r\n    struct SignerCertInfo {\r\n        uint[] issueID;\r\n        mapping (uint => SignerListInfo) signerListInfo;\r\n    }\r\n    \r\n    struct SignerListInfo {\r\n        uint[] certid;\r\n        string certname;\r\n        string timestamp;\r\n        uint[] signedList;\r\n        string description;\r\n    }\r\n\r\n    struct UserCertinfo {\r\n        uint[] certid;\r\n    }\r\n    struct CertInfo {\r\n        address OwnerAddr;\r\n        uint userid;\r\n        CertCommon detail;        \r\n        bool done;\r\n        address swarmhash;\r\n        bytes32 CertHash;\r\n        bytes32 JsonHash1;\r\n        bytes32 JsonHash2;\r\n        bytes32 P2pLoc;  \r\n    }\r\n    \r\n    struct CertCommon {\r\n        address IssuerAddr;\r\n       // address OrgContract;  //this contract's addr\r\n        address[] SignerAddr;\r\n        uint[] signer_id;\r\n        mapping (address => SignerInfo) signer;\r\n        string Version;\r\n        string CertName;\r\n        bool Revocation;\r\n        string Description;\r\n        string Timestamp;\r\n    }\r\n    \r\n    struct SignerInfo {\r\n        uint signer_id;\r\n        bool status;\r\n        string publickey;\r\n        string signature;\r\n    }\r\n    \r\n    \r\n\r\n\r\n    constructor ()public  {\r\n        owner = msg.sender;\r\n    }\r\n\r\n\r\n//issue\r\n  \r\n\r\n    function issue(uint issueid,uint[] certID, address[] owner_addr, bytes32[] cert_hash, bytes32[] json_hash, address issuer_addr, address[] signer_addr, \r\n    string version, string cert_name, string description, string timestamp, bool revocation)public {\r\n            pushusercert(owner_addr , certID);\r\n            //check certID # equals to owner_addr\r\n            \r\n            if(!(certID.length == owner_addr.length) && (certID.length == cert_hash.length)) revert();\r\n            \r\n            CertCommon storage certCommon; \r\n            certCommon.Version = version;\r\n            certCommon.CertName = cert_name;\r\n            certCommon.Revocation = revocation;\r\n            certCommon.Description = description;\r\n            certCommon.Timestamp = timestamp;\r\n            certCommon.IssuerAddr = issuer_addr;\r\n\r\n            for (uint8 i = 0; i < signer_addr.length; i++) {\r\n                certCommon.SignerAddr.push(signer_addr[i]);\r\n                certCommon.signer[signer_addr[i]].status=false;\r\n            }\r\n            \r\n            for (i = 0; i < certID.length; i++) {\r\n                certInfo[certID[i]].OwnerAddr = owner_addr[i];\r\n                certInfo[certID[i]].swarmhash = owner_addr[i]; \r\n                certInfo[certID[i]].CertHash = cert_hash[i];\r\n                certInfo[certID[i]].JsonHash1 = json_hash[i];\r\n                certInfo[certID[i]].detail = certCommon;\r\n                certInfo[certID[i]].done = false;\r\n            }\r\n            \r\n    setSignerList( issuer_addr ,  issueid, certID,  cert_name,  description,  timestamp );\r\n    }\r\n    \r\n    function pushuserid(uint[] certID , uint[] userid)public {\r\n           for(uint8 i = 0; i < certID.length; i++){\r\n                certInfo[certID[i]].userid = userid[i];\r\n            }\r\n    }\r\n\r\n    function pushusercert(address[] user_id , uint[] cert_id)public {\r\n            for(uint8 i = 0; i < user_id.length; i++){\r\n                usercertinfo[user_id[i]].certid.push(cert_id[i]);\r\n            }\r\n    }\r\n    \r\n    function setSignerList(address issue_addr , uint issueid, uint[] certID, string certname, string cert_description, string timestamp )public {\r\n            signerCertInfo[issue_addr].issueID.push(issueid);\r\n            signerCertInfo[issue_addr].signerListInfo[issueid].description = cert_description;\r\n            signerCertInfo[issue_addr].signerListInfo[issueid].certname = certname;\r\n            signerCertInfo[issue_addr].signerListInfo[issueid].timestamp = timestamp;\r\n            for(uint8 i = 0; i < certID.length; i++){\r\n                signerCertInfo[issue_addr].signerListInfo[issueid].certid.push(certID[i]);\r\n            }\r\n    }\r\n\r\n\r\n    function getIssuerIssueIDList (address issue_addr )public view returns(uint[]){\r\n        \r\n        return (signerCertInfo[issue_addr].issueID);\r\n    }\r\n\r\n    function getSignedList (address issue_addr , uint issueid )public view returns(uint[]){\r\n        \r\n        return (signerCertInfo[issue_addr].signerListInfo[issueid].certid);\r\n    }\r\n\r\n\r\n    function getIssueIDList (address issue_addr)public view returns(uint[]){\r\n        \r\n        return (signerCertInfo[issue_addr].issueID);\r\n    }\r\n    \r\n    function getIssueIDInfo (address issue_addr, uint issueid )public view returns(uint[],string,string,string,uint[]){\r\n        \r\n        return (signerCertInfo[issue_addr].signerListInfo[issueid].certid, signerCertInfo[issue_addr].signerListInfo[issueid].certname, signerCertInfo[issue_addr].signerListInfo[issueid].description, signerCertInfo[issue_addr].signerListInfo[issueid].timestamp, signerCertInfo[issue_addr].signerListInfo[issueid].signedList);\r\n    }\r\n\r\n   \r\n    \r\n   function getsignerstatus (uint certID ,address[] signeraddr)public view returns(bool){\r\n        bool sigstatus;\r\n        sigstatus = false;\r\n        for(uint8 i=0;i<certInfo[certID].detail.SignerAddr.length;i++){\r\n                sigstatus = certInfo[certID].detail.signer[certInfo[certID].detail.SignerAddr[i]].status;\r\n        }\r\n        return (sigstatus);\r\n    }\r\n     \r\n    function pushsignerpublickey(uint certID , string publickey1, address signer1 , uint issueid, string sjws, uint userid )public {\r\n            certInfo[certID].detail.signer[signer1].publickey = publickey1;\r\n            signerCertInfo[signer1].signerListInfo[issueid].signedList.push(certID);\r\n            certInfo[certID].detail.signer[signer1].signer_id = userid;\r\n            certInfo[certID].detail.signer[signer1].signature = sjws;\r\n            certInfo[certID].detail.signer[signer1].status = true;\r\n    }\r\n    \r\n\r\n    function get_swarm_hash (uint certID)public view returns(address){\r\n        return (certInfo[certID].swarmhash);\r\n    }\r\n    \r\n    function getsignerpub (uint certID,address signer1)public view returns(string){\r\n        return (certInfo[certID].detail.signer[signer1].publickey);\r\n    }\r\n\r\n    function getusercert (address user_id)public view returns(uint[]){\r\n        return (usercertinfo[user_id].certid);\r\n    }\r\n\r\n    function getallinfo (uint certID)public view returns( bool, string, string, string, string,uint[] ){\r\n          \r\n        for(uint8 i =0;i<certInfo[certID].detail.SignerAddr.length;i++){\r\n              certInfo[certID].detail.signer_id.push(certInfo[certID].detail.signer[certInfo[certID].detail.SignerAddr[i]].signer_id);\r\n        }\r\n        \r\n        return (certInfo[certID].detail.Revocation, certInfo[certID].detail.Description,\r\n        certInfo[certID].detail.Timestamp, certInfo[certID].detail.Version, certInfo[certID].detail.CertName,certInfo[certID].detail.signer_id);\r\n    }\r\n\r\n    function getallinfo2 (uint certID)public view returns(address,bytes32,bytes32,address,address[],uint){\r\n        return (certInfo[certID].OwnerAddr,certInfo[certID].CertHash,certInfo[certID].JsonHash1,certInfo[certID].detail.IssuerAddr,certInfo[certID].detail.SignerAddr,certInfo[certID].userid);\r\n    }\r\n    \r\n    function get_CertHash (uint certID)public view returns(bytes32){\r\n        return (certInfo[certID].CertHash);\r\n    }\r\n\r\n    function getOwnerAddr (uint certID)public view returns(address){\r\n        return certInfo[certID].OwnerAddr;\r\n    }\r\n    function getIssuerAddr(uint certID)public view returns(address){\r\n        return certInfo[certID].detail.IssuerAddr;\r\n    }\r\n    function getContractAddr()public view returns(address){\r\n        return this;\r\n    }\r\n    function getSignerAddr(uint certID)public view returns(address[]){\r\n        return certInfo[certID].detail.SignerAddr;\r\n    }\r\n\r\n    function setJsonHash2(uint certID,bytes32 json_hash)public  {\r\n        certInfo[certID].JsonHash2 = json_hash;\r\n    }\r\n    function getJsonHash1(uint certID)public view  returns (bytes32){\r\n        return certInfo[certID].JsonHash1;\r\n    }\r\n    function getJsonHash2(uint certID)public view  returns (bytes32){\r\n        return certInfo[certID].JsonHash2;\r\n    }\r\n\r\n//sign\r\n    function sign(uint certID,  address signer_addr) public  {\r\n        if(certInfo[certID].OwnerAddr == 0)   revert();\r\n         \r\n        certInfo[certID].detail.signer[signer_addr].status = true;\r\n        bool status=true;\r\n        for (uint8 i = 0; i < certInfo[certID].detail.SignerAddr.length; i++) {\r\n            if( !certInfo[certID].detail.signer[certInfo[certID].detail.SignerAddr[i]].status){\r\n                status=false;\r\n                break;\r\n            }\r\n        }\r\n        if(status==true) certInfo[certID].done=true;\r\n    }\r\n\r\n    function checkStatus(uint certID) public view returns (bool){\r\n        return certInfo[certID].done;\r\n    }\r\n\r\n    function getsig(uint certID,address signerad) public view returns(string){\r\n        return certInfo[certID].detail.signer[signerad].signature;\r\n    }\r\n    function setP2PLoc(uint certID, bytes32 location) public  {\r\n        certInfo[certID].P2pLoc = location;\r\n    }\r\n\r\n    function getP2PLoc(uint certID) public view returns (bytes32) {\r\n        return certInfo[certID].P2pLoc;\r\n    }\r\n\r\n\r\n\r\n}\r\n",
  "sourcePath": "C:\\Users\\cheng\\Desktop\\aabbcc\\dadu3cert-core\\cert-contract\\contracts\\Cert2.sol",
  "compiler": {
    "name": "solc",
    "version": "0.4.23+commit.124ca40d.Emscripten.clang"
  },
  "schemaVersion": "2.0.0",
  "updatedAt": "2018-06-26T05:41:07.221Z"
}