{
  "contractName": "Certificate",
  "abi": [
    {
      "constant": true,
      "inputs": [
        {
          "name": "",
          "type": "uint256"
        }
      ],
      "name": "record",
      "outputs": [
        {
          "name": "hash",
          "type": "bytes32"
        },
        {
          "name": "count",
          "type": "uint8"
        },
        {
          "name": "swarm",
          "type": "string"
        }
      ],
      "payable": false,
      "stateMutability": "view",
      "type": "function"
    },
    {
      "inputs": [],
      "payable": false,
      "stateMutability": "nonpayable",
      "type": "constructor"
    },
    {
      "anonymous": false,
      "inputs": [
        {
          "indexed": false,
          "name": "m",
          "type": "uint256"
        },
        {
          "indexed": false,
          "name": "addr",
          "type": "address"
        }
      ],
      "name": "Issue",
      "type": "event"
    },
    {
      "constant": false,
      "inputs": [
        {
          "name": "_m",
          "type": "uint256"
        },
        {
          "name": "_addr",
          "type": "bytes20[]"
        },
        {
          "name": "_s",
          "type": "bytes32[]"
        }
      ],
      "name": "init",
      "outputs": [],
      "payable": false,
      "stateMutability": "nonpayable",
      "type": "function"
    },
    {
      "constant": false,
      "inputs": [
        {
          "name": "_m",
          "type": "uint256"
        },
        {
          "name": "_n",
          "type": "uint8"
        },
        {
          "name": "v",
          "type": "uint8"
        },
        {
          "name": "r",
          "type": "bytes32"
        },
        {
          "name": "s",
          "type": "bytes32"
        }
      ],
      "name": "verify",
      "outputs": [],
      "payable": false,
      "stateMutability": "nonpayable",
      "type": "function"
    },
    {
      "constant": true,
      "inputs": [
        {
          "name": "_m",
          "type": "uint256"
        }
      ],
      "name": "trace",
      "outputs": [
        {
          "name": "",
          "type": "bool[]"
        }
      ],
      "payable": false,
      "stateMutability": "view",
      "type": "function"
    },
    {
      "constant": true,
      "inputs": [
        {
          "name": "_m",
          "type": "uint256"
        }
      ],
      "name": "gethash",
      "outputs": [
        {
          "name": "",
          "type": "bytes32"
        }
      ],
      "payable": false,
      "stateMutability": "view",
      "type": "function"
    },
    {
      "constant": false,
      "inputs": [
        {
          "name": "_m",
          "type": "uint256"
        },
        {
          "name": "_s",
          "type": "string"
        }
      ],
      "name": "setswarm",
      "outputs": [],
      "payable": false,
      "stateMutability": "nonpayable",
      "type": "function"
    },
    {
      "constant": true,
      "inputs": [
        {
          "name": "_m",
          "type": "uint256"
        }
      ],
      "name": "getswarm",
      "outputs": [
        {
          "name": "",
          "type": "string"
        }
      ],
      "payable": false,
      "stateMutability": "view",
      "type": "function"
    },
    {
      "constant": true,
      "inputs": [
        {
          "name": "_addr",
          "type": "address"
        }
      ],
      "name": "xor20",
      "outputs": [
        {
          "name": "",
          "type": "address"
        }
      ],
      "payable": false,
      "stateMutability": "view",
      "type": "function"
    },
    {
      "constant": true,
      "inputs": [
        {
          "name": "a",
          "type": "bytes32"
        }
      ],
      "name": "xor32",
      "outputs": [
        {
          "name": "",
          "type": "bytes32"
        }
      ],
      "payable": false,
      "stateMutability": "view",
      "type": "function"
    }
  ],
  "bytecode": "0x60806040527fe07e453d81f6c0eb7e30faf2d233a3c676723b6fe346a2ab3713aff52a12a5e06001026001906000191690556001543073ffffffffffffffffffffffffffffffffffffffff166001021860029060001916905534801561006457600080fd5b50336000806101000a81548173ffffffffffffffffffffffffffffffffffffffff021916908373ffffffffffffffffffffffffffffffffffffffff160217905550610ee6806100b46000396000f300608060405260043610610099576000357c0100000000000000000000000000000000000000000000000000000000900463ffffffff1680630c491a341461009e5780632c16cd8a14610144578063821b978f146102065780638c86884c146102b9578063a68a4fed1461031c578063b63825bd1461039e578063ba33ec3b14610411578063c2b756ba1461045e578063fdb9da93146104e1575b600080fd5b3480156100aa57600080fd5b506100c96004803603810190808035906020019092919050505061052a565b6040518080602001828103825283818151815260200191508051906020019080838360005b838110156101095780820151818401526020810190506100ee565b50505050905090810190601f1680156101365780820380516001836020036101000a031916815260200191505b509250505060405180910390f35b34801561015057600080fd5b5061016f6004803603810190808035906020019092919050505061060d565b6040518084600019166000191681526020018360ff1660ff16815260200180602001828103825283818151815260200191508051906020019080838360005b838110156101c95780820151818401526020810190506101ae565b50505050905090810190601f1680156101f65780820380516001836020036101000a031916815260200191505b5094505050505060405180910390f35b34801561021257600080fd5b506102b76004803603810190808035906020019092919080359060200190820180359060200190808060200260200160405190810160405280939291908181526020018383602002808284378201915050505050509192919290803590602001908201803590602001908080602002602001604051908101604052809392919081815260200183836020028082843782019150505050505091929192905050506106dc565b005b3480156102c557600080fd5b5061031a60048036038101908080359060200190929190803560ff169060200190929190803560ff16906020019092919080356000191690602001909291908035600019169060200190929190505050610928565b005b34801561032857600080fd5b5061034760048036038101908080359060200190929190505050610c2e565b6040518080602001828103825283818151815260200191508051906020019060200280838360005b8381101561038a57808201518184015260208101905061036f565b505050509050019250505060405180910390f35b3480156103aa57600080fd5b5061040f60048036038101908080359060200190929190803590602001908201803590602001908080601f0160208091040260200160405190810160405280939291908181526020018383808284378201915050505050509192919290505050610cec565b005b34801561041d57600080fd5b506104406004803603810190808035600019169060200190929190505050610d7f565b60405180826000191660001916815260200191505060405180910390f35b34801561046a57600080fd5b5061049f600480360381019080803573ffffffffffffffffffffffffffffffffffffffff169060200190929190505050610d8d565b604051808273ffffffffffffffffffffffffffffffffffffffff1673ffffffffffffffffffffffffffffffffffffffff16815260200191505060405180910390f35b3480156104ed57600080fd5b5061050c60048036038101908080359060200190929190505050610dcb565b60405180826000191660001916815260200191505060405180910390f35b60606000600102600360008481526020019081526020016000206000015460001916141561055757600080fd5b600360008381526020019081526020016000206004018054600181600116156101000203166002900480601f0160208091040260200160405190810160405280929190818152602001828054600181600116156101000203166002900480156106015780601f106105d657610100808354040283529160200191610601565b820191906000526020600020905b8154815290600101906020018083116105e457829003601f168201915b50505050509050919050565b60036020528060005260406000206000915090508060000154908060010160009054906101000a900460ff1690806004018054600181600116156101000203166002900480601f0160208091040260200160405190810160405280929190818152602001828054600181600116156101000203166002900480156106d25780601f106106a7576101008083540402835291602001916106d2565b820191906000526020600020905b8154815290600101906020018083116106b557829003601f168201915b5050505050905083565b60008060010260036000868152602001908152602001600020600001546000191614151561070957600080fd5b600090505b82518160ff1610156108275760036000858152602001908152602001600020600201838260ff1681518110151561074157fe5b906020019060200201516c01000000000000000000000000900490806001815401808255809150509060018203906000526020600020016000909192909190916101000a81548173ffffffffffffffffffffffffffffffffffffffff021916908373ffffffffffffffffffffffffffffffffffffffff16021790555050600360008581526020019081526020016000206003016000908060018154018082558091505090600182039060005260206000209060209182820401919006909192909190916101000a81548160ff02191690831515021790555050808060010191505061070e565b600090505b81518160ff1610156108915761085b828260ff1681518110151561084c57fe5b90602001906020020151610d7f565b828260ff1681518110151561086c57fe5b906020019060200201906000191690816000191681525050808060010191505061082c565b8160405180828051906020019060200280838360005b838110156108c25780820151818401526020810190506108a7565b50505050905001915050604051809103902060036000868152602001908152602001600020600001816000191690555060006003600086815260200190815260200160002060010160006101000a81548160ff021916908360ff16021790555050505050565b6000600102600360008781526020019081526020016000206000015460001916141561095357600080fd5b600360008681526020019081526020016000206003018460ff1681548110151561097957fe5b90600052602060002090602091828204019190069054906101000a900460ff16156109a357600080fd5b6109ac82610d7f565b91506109b781610d7f565b9050610a12600360008781526020019081526020016000206002018560ff168154811015156109e257fe5b9060005260206000200160009054906101000a900473ffffffffffffffffffffffffffffffffffffffff16610d8d565b73ffffffffffffffffffffffffffffffffffffffff1660016003600088815260200190815260200160002060000154858585604051600081526020016040526040518085600019166000191681526020018460ff1660ff1681526020018360001916600019168152602001826000191660001916815260200194505050505060206040516020810390808403906000865af1158015610ab5573d6000803e3d6000fd5b5050506020604051035173ffffffffffffffffffffffffffffffffffffffff16141515610ae157600080fd5b6001600360008781526020019081526020016000206003018560ff16815481101515610b0957fe5b90600052602060002090602091828204019190066101000a81548160ff02191690831515021790555060016003600087815260200190815260200160002060010160008282829054906101000a900460ff160192506101000a81548160ff021916908360ff16021790555060036000868152602001908152602001600020600201805490506003600087815260200190815260200160002060010160009054906101000a900460ff1660ff161415610c27577fc790a174b576e850809e673168b703c3f5480d1c662f57ea2c08f08a17d509c68533604051808381526020018273ffffffffffffffffffffffffffffffffffffffff1673ffffffffffffffffffffffffffffffffffffffff1681526020019250505060405180910390a15b5050505050565b606060006001026003600084815260200190815260200160002060000154600019161415610c5b57600080fd5b60036000838152602001908152602001600020600301805480602002602001604051908101604052809291908181526020018280548015610ce057602002820191906000526020600020906000905b82829054906101000a900460ff16151581526020019060010190602082600001049283019260010382029150808411610caa5790505b50505050509050919050565b60006001026003600084815260200190815260200160002060000154600019161415610d1757600080fd5b600060036000848152602001908152602001600020600401805460018160011615610100020316600290049050141515610d5057600080fd5b80600360008481526020019081526020016000206004019080519060200190610d7a929190610e15565b505050565b600060025482189050919050565b6000816c0100000000000000000000000002600154306c010000000000000000000000000218186c0100000000000000000000000090049050919050565b6000806001026003600084815260200190815260200160002060000154600019161415610df757600080fd5b60036000838152602001908152602001600020600001549050919050565b828054600181600116156101000203166002900490600052602060002090601f016020900481019282601f10610e5657805160ff1916838001178555610e84565b82800160010185558215610e84579182015b82811115610e83578251825591602001919060010190610e68565b5b509050610e919190610e95565b5090565b610eb791905b80821115610eb3576000816000905550600101610e9b565b5090565b905600a165627a7a72305820ebfb9f2122511c872331aa19797b2a20eb789d86a8a588a2ad7363e4e387095e0029",
  "source": "pragma solidity ^0.4.23;\n\n// first version from http://140.110.141.7:8888/Chengfeng/server-code/blob/1bcec669015b31e17c122e4e9810a8f46b47c5ac/cert.sol\ncontract Certificate {\n    \n    address owner;\n    // sha3(\"GmyJimmy\")\n    bytes32 key = 0xe07e453d81f6c0eb7e30faf2d233a3c676723b6fe346a2ab3713aff52a12a5e0;\n    bytes32 k = bytes32(address(this)) ^ key;\n\n    event Issue(uint m, address addr);\n\n    // Why Oracle\n    // 原始參照設計 Oracle系列二：My Oracle – Taipei Ethereum Meetup – Medium https://medium.com/taipei-ethereum-meetup/oracle%E7%B3%BB%E5%88%97%E4%BA%8C-my-oracle-d86ea6971431\n    // 只是只做傳送訊息應是無用確定移除\n    // Oracle oracle;\n\n    struct Record {\n        bytes32 hash;\n        uint8 count;\n        address[] addr;\n        bool[] verify;\n        string swarm;\n    }\n    \n    mapping( uint => Record ) public record;\n\n    function Certificate() public {\n        owner = msg.sender;\n    }\n    \n    // Why Oracle only for send a event ? \n    //function SetOracle(address _addr) {\n    //    oracle = Oracle(_addr);\n    //}\n    \n    function init(uint _m, bytes20[] _addr, bytes32[] _s) public {\n        if(record[_m].hash != 0)   revert();\n        for (uint8 i = 0; i < _addr.length; i++) {\n            record[_m].addr.push(address(_addr[i]));\n            record[_m].verify.push(false);\n        }\n        for (i = 0; i < _s.length; i++) {\n            _s[i] = xor32(_s[i]);\n        }\n        record[_m].hash = keccak256(_s);\n        record[_m].count = 0;\n    }\n\n    \n    function verify(uint _m, uint8 _n, uint8 v, bytes32 r, bytes32 s) public {\n        if(record[_m].hash == 0)    revert();\n        if(record[_m].verify[_n])   revert();\n        \n        r = xor32(r);\n        s = xor32(s);\n        if(ecrecover(record[_m].hash, v, r, s) != xor20(record[_m].addr[_n]))  revert();\n        record[_m].verify[_n] = true;\n        record[_m].count += 1;\n        if(record[_m].count == record[_m].addr.length) {\n            // Why Oracle ?\n            // oracle.issue(_m);\n            Issue(_m, msg.sender);\n        }\n    }\n    \n    function trace(uint _m) public view returns (bool[]) {\n        if(record[_m].hash == 0)    revert();\n        \n        return record[_m].verify;\n    }\n    \n    function gethash(uint _m) public view returns (bytes32) {\n        if(record[_m].hash == 0)    revert();\n        \n        return record[_m].hash;\n    }\n    \n    // TODO\n    // rename to setP2PFileStorage \n    function setswarm(uint _m, string _s) public {\n        if(record[_m].hash == 0)    revert();\n        if(bytes(record[_m].swarm).length != 0) revert();\n        \n        record[_m].swarm = _s;\n    }\n    \n    function getswarm(uint _m) public view returns (string) {\n        if(record[_m].hash == 0)  revert();\n        \n        return record[_m].swarm;\n    }\n\n    function xor20(address _addr) public view returns(address) {\n        return address( ( bytes20(address(this)) ^ bytes20(key) ^ bytes20(_addr) ) );\n    }\n    \n    function xor32(bytes32 a) public view returns(bytes32) {\n        return (a ^ k);\n    }\n    \n}\n",
  "sourcePath": "/media/psf/share/dadu3cert-core/cert-contract/contracts/Certificate.sol",
  "compiler": {
    "name": "solc",
    "version": "0.4.23+commit.124ca40d.Emscripten.clang"
  },
  "schemaVersion": "2.0.0",
  "updatedAt": "2018-06-01T01:52:36.373Z"
}