{
  "contractName": "EthereumClaimsRegistry",
  "abi": [
    {
      "constant": true,
      "inputs": [
        {
          "name": "",
          "type": "address"
        },
        {
          "name": "",
          "type": "address"
        },
        {
          "name": "",
          "type": "bytes32"
        }
      ],
      "name": "registry",
      "outputs": [
        {
          "name": "",
          "type": "bytes32"
        }
      ],
      "payable": false,
      "stateMutability": "view",
      "type": "function"
    },
    {
      "anonymous": false,
      "inputs": [
        {
          "indexed": true,
          "name": "issuer",
          "type": "address"
        },
        {
          "indexed": true,
          "name": "subject",
          "type": "address"
        },
        {
          "indexed": true,
          "name": "key",
          "type": "bytes32"
        },
        {
          "indexed": false,
          "name": "value",
          "type": "bytes32"
        },
        {
          "indexed": false,
          "name": "updatedAt",
          "type": "uint256"
        }
      ],
      "name": "ClaimSet",
      "type": "event"
    },
    {
      "anonymous": false,
      "inputs": [
        {
          "indexed": true,
          "name": "issuer",
          "type": "address"
        },
        {
          "indexed": true,
          "name": "subject",
          "type": "address"
        },
        {
          "indexed": true,
          "name": "key",
          "type": "bytes32"
        },
        {
          "indexed": false,
          "name": "removedAt",
          "type": "uint256"
        }
      ],
      "name": "ClaimRemoved",
      "type": "event"
    },
    {
      "constant": false,
      "inputs": [
        {
          "name": "subject",
          "type": "address"
        },
        {
          "name": "key",
          "type": "bytes32"
        },
        {
          "name": "value",
          "type": "bytes32"
        }
      ],
      "name": "setClaim",
      "outputs": [],
      "payable": false,
      "stateMutability": "nonpayable",
      "type": "function"
    },
    {
      "constant": false,
      "inputs": [
        {
          "name": "key",
          "type": "bytes32"
        },
        {
          "name": "value",
          "type": "bytes32"
        }
      ],
      "name": "setSelfClaim",
      "outputs": [],
      "payable": false,
      "stateMutability": "nonpayable",
      "type": "function"
    },
    {
      "constant": true,
      "inputs": [
        {
          "name": "issuer",
          "type": "address"
        },
        {
          "name": "subject",
          "type": "address"
        },
        {
          "name": "key",
          "type": "bytes32"
        }
      ],
      "name": "getClaim",
      "outputs": [
        {
          "name": "",
          "type": "bytes32"
        }
      ],
      "payable": false,
      "stateMutability": "view",
      "type": "function"
    },
    {
      "constant": false,
      "inputs": [
        {
          "name": "issuer",
          "type": "address"
        },
        {
          "name": "subject",
          "type": "address"
        },
        {
          "name": "key",
          "type": "bytes32"
        }
      ],
      "name": "removeClaim",
      "outputs": [],
      "payable": false,
      "stateMutability": "nonpayable",
      "type": "function"
    }
  ],
  "bytecode": "0x608060405234801561001057600080fd5b506106e6806100206000396000f30060806040526004361061006d576000357c0100000000000000000000000000000000000000000000000000000000900463ffffffff1680639155b01a146100725780639918925d146100b1578063c7508ec714610110578063e1661eff14610181578063e6d970aa1461020e575b600080fd5b34801561007e57600080fd5b506100af6004803603810190808035600019169060200190929190803560001916906020019092919050505061029b565b005b3480156100bd57600080fd5b5061010e600480360381019080803573ffffffffffffffffffffffffffffffffffffffff169060200190929190803560001916906020019092919080356000191690602001909291905050506102aa565b005b34801561011c57600080fd5b5061017f600480360381019080803573ffffffffffffffffffffffffffffffffffffffff169060200190929190803573ffffffffffffffffffffffffffffffffffffffff16906020019092919080356000191690602001909291905050506103c6565b005b34801561018d57600080fd5b506101f0600480360381019080803573ffffffffffffffffffffffffffffffffffffffff169060200190929190803573ffffffffffffffffffffffffffffffffffffffff16906020019092919080356000191690602001909291905050506105e8565b60405180826000191660001916815260200191505060405180910390f35b34801561021a57600080fd5b5061027d600480360381019080803573ffffffffffffffffffffffffffffffffffffffff169060200190929190803573ffffffffffffffffffffffffffffffffffffffff1690602001909291908035600019169060200190929190505050610688565b60405180826000191660001916815260200191505060405180910390f35b6102a63383836102aa565b5050565b806000803373ffffffffffffffffffffffffffffffffffffffff1673ffffffffffffffffffffffffffffffffffffffff16815260200190815260200160002060008573ffffffffffffffffffffffffffffffffffffffff1673ffffffffffffffffffffffffffffffffffffffff16815260200190815260200160002060008460001916600019168152602001908152602001600020816000191690555081600019168373ffffffffffffffffffffffffffffffffffffffff163373ffffffffffffffffffffffffffffffffffffffff167f8c9f893548e8429f9352aba6698e6f4dca2e390604f6e8c5881a7a505d94ae5084426040518083600019166000191681526020018281526020019250505060405180910390a4505050565b8273ffffffffffffffffffffffffffffffffffffffff163373ffffffffffffffffffffffffffffffffffffffff16148061042b57508173ffffffffffffffffffffffffffffffffffffffff163373ffffffffffffffffffffffffffffffffffffffff16145b151561043657600080fd5b60006001026000808573ffffffffffffffffffffffffffffffffffffffff1673ffffffffffffffffffffffffffffffffffffffff16815260200190815260200160002060008473ffffffffffffffffffffffffffffffffffffffff1673ffffffffffffffffffffffffffffffffffffffff168152602001908152602001600020600083600019166000191681526020019081526020016000205460001916141515156104e157600080fd5b6000808473ffffffffffffffffffffffffffffffffffffffff1673ffffffffffffffffffffffffffffffffffffffff16815260200190815260200160002060008373ffffffffffffffffffffffffffffffffffffffff1673ffffffffffffffffffffffffffffffffffffffff168152602001908152602001600020600082600019166000191681526020019081526020016000206000905580600019168273ffffffffffffffffffffffffffffffffffffffff163373ffffffffffffffffffffffffffffffffffffffff167f7bc046ef9f2fccd4c99778d7e0fbed67ddb16e63e1a266894769de9516b8039a426040518082815260200191505060405180910390a4505050565b60008060008573ffffffffffffffffffffffffffffffffffffffff1673ffffffffffffffffffffffffffffffffffffffff16815260200190815260200160002060008473ffffffffffffffffffffffffffffffffffffffff1673ffffffffffffffffffffffffffffffffffffffff168152602001908152602001600020600083600019166000191681526020019081526020016000205490509392505050565b6000602052826000526040600020602052816000526040600020602052806000526040600020600092509250505054815600a165627a7a72305820916f557d04b72359fe05bc7df9e19081336618d61461b6807c216f057617f85c0029",
  "source": "pragma solidity ^0.4.19;\n\n// https://github.com/uport-project/ethereum-claims-registry\n\n/// @title Ethereum Claims Registry - A repository storing claims issued\n///        from any Ethereum account to any other Ethereum account.\ncontract EthereumClaimsRegistry {\n\n    mapping(address => mapping(address => mapping(bytes32 => bytes32))) public registry;\n\n    event ClaimSet(\n        address indexed issuer,\n        address indexed subject,\n        bytes32 indexed key,\n        bytes32 value,\n        uint updatedAt);\n\n    event ClaimRemoved(\n        address indexed issuer,\n        address indexed subject,\n        bytes32 indexed key,\n        uint removedAt);\n\n    /// @dev Create or update a claim\n    /// @param subject The address the claim is being issued to\n    /// @param key The key used to identify the claim\n    /// @param value The data associated with the claim\n    function setClaim(address subject, bytes32 key, bytes32 value) public {\n        registry[msg.sender][subject][key] = value;\n        ClaimSet(msg.sender, subject, key, value, now);\n    }\n\n    /// @dev Create or update a claim about yourself\n    /// @param key The key used to identify the claim\n    /// @param value The data associated with the claim\n    function setSelfClaim(bytes32 key, bytes32 value) public {\n        setClaim(msg.sender, key, value);\n    }\n\n    /// @dev Allows to retrieve claims from other contracts as well as other off-chain interfaces\n    /// @param issuer The address of the issuer of the claim\n    /// @param subject The address to which the claim was issued to\n    /// @param key The key used to identify the claim\n    function getClaim(address issuer, address subject, bytes32 key) public constant returns(bytes32) {\n        return registry[issuer][subject][key];\n    }\n\n    /// @dev Allows to remove a claims from the registry.\n    ///      This can only be done by the issuer or the subject of the claim.\n    /// @param issuer The address of the issuer of the claim\n    /// @param subject The address to which the claim was issued to\n    /// @param key The key used to identify the claim\n    function removeClaim(address issuer, address subject, bytes32 key) public {\n        require(msg.sender == issuer || msg.sender == subject);\n        require(registry[issuer][subject][key] != 0);\n        delete registry[issuer][subject][key];\n        ClaimRemoved(msg.sender, subject, key, now);\n    }\n}",
  "sourcePath": "/home/shanehung/Works/dadu3cert-core/cert-contract/contracts/EthereumClaimsRegistry.sol",
  "compiler": {
    "name": "solc",
    "version": "0.4.24+commit.e67f0147.Emscripten.clang"
  },
  "schemaVersion": "2.0.1",
  "updatedAt": "2019-01-07T08:15:13.947Z"
}