{
  "contractName": "RevocationList",
  "abi": [
    {
      "constant": true,
      "inputs": [
        {
          "name": "",
          "type": "uint256"
        },
        {
          "name": "",
          "type": "uint256"
        }
      ],
      "name": "AllDumpList",
      "outputs": [
        {
          "name": "",
          "type": "bytes1"
        }
      ],
      "payable": false,
      "stateMutability": "view",
      "type": "function"
    },
    {
      "constant": false,
      "inputs": [
        {
          "name": "own",
          "type": "address"
        },
        {
          "name": "ipfsAddr",
          "type": "string"
        }
      ],
      "name": "updateTempCert",
      "outputs": [],
      "payable": false,
      "stateMutability": "nonpayable",
      "type": "function"
    },
    {
      "constant": true,
      "inputs": [
        {
          "name": "own",
          "type": "address"
        }
      ],
      "name": "getTempCert",
      "outputs": [
        {
          "name": "",
          "type": "string"
        }
      ],
      "payable": false,
      "stateMutability": "view",
      "type": "function"
    },
    {
      "constant": true,
      "inputs": [
        {
          "name": "_queryhash",
          "type": "string"
        }
      ],
      "name": "checkList",
      "outputs": [
        {
          "name": "",
          "type": "bool"
        }
      ],
      "payable": false,
      "stateMutability": "view",
      "type": "function"
    },
    {
      "constant": false,
      "inputs": [
        {
          "name": "_queryhash",
          "type": "string"
        },
        {
          "name": "_applier",
          "type": "address"
        },
        {
          "name": "TeacherAddr",
          "type": "address[]"
        },
        {
          "name": "stringToSign",
          "type": "bytes32[4]"
        },
        {
          "name": "_certName",
          "type": "bytes32"
        },
        {
          "name": "TimeStamp",
          "type": "uint256"
        },
        {
          "name": "_reason",
          "type": "string"
        },
        {
          "name": "_certID",
          "type": "uint256"
        }
      ],
      "name": "addList",
      "outputs": [],
      "payable": false,
      "stateMutability": "nonpayable",
      "type": "function"
    },
    {
      "constant": false,
      "inputs": [
        {
          "name": "_queryhash",
          "type": "string"
        }
      ],
      "name": "addAllRevokeList",
      "outputs": [],
      "payable": false,
      "stateMutability": "nonpayable",
      "type": "function"
    },
    {
      "constant": true,
      "inputs": [
        {
          "name": "_queryhash",
          "type": "string"
        }
      ],
      "name": "dumpArray",
      "outputs": [
        {
          "name": "",
          "type": "address[]"
        },
        {
          "name": "",
          "type": "bool[]"
        },
        {
          "name": "",
          "type": "bytes32[3][]"
        }
      ],
      "payable": false,
      "stateMutability": "view",
      "type": "function"
    },
    {
      "constant": true,
      "inputs": [
        {
          "name": "_queryhash",
          "type": "string"
        }
      ],
      "name": "dumpData",
      "outputs": [
        {
          "name": "",
          "type": "bool"
        },
        {
          "name": "",
          "type": "address"
        },
        {
          "name": "",
          "type": "string"
        },
        {
          "name": "",
          "type": "bytes32"
        },
        {
          "name": "",
          "type": "uint256"
        },
        {
          "name": "",
          "type": "uint256"
        }
      ],
      "payable": false,
      "stateMutability": "view",
      "type": "function"
    },
    {
      "constant": false,
      "inputs": [
        {
          "name": "_queryhash",
          "type": "string"
        },
        {
          "name": "_TeacherAddr",
          "type": "address"
        },
        {
          "name": "_SignString",
          "type": "bytes32[3]"
        }
      ],
      "name": "getSignString",
      "outputs": [],
      "payable": false,
      "stateMutability": "nonpayable",
      "type": "function"
    },
    {
      "constant": true,
      "inputs": [
        {
          "name": "_queryhash",
          "type": "string"
        },
        {
          "name": "_TeacherAddr",
          "type": "address"
        }
      ],
      "name": "checkSig",
      "outputs": [
        {
          "name": "",
          "type": "string"
        }
      ],
      "payable": false,
      "stateMutability": "view",
      "type": "function"
    },
    {
      "constant": false,
      "inputs": [
        {
          "name": "TeacherAddr",
          "type": "address"
        },
        {
          "name": "_ipfshash",
          "type": "bytes32[2]"
        },
        {
          "name": "_queryhash",
          "type": "string"
        },
        {
          "name": "CertName",
          "type": "bytes32"
        },
        {
          "name": "_certID",
          "type": "uint256"
        }
      ],
      "name": "addTeacherRevokeList",
      "outputs": [],
      "payable": false,
      "stateMutability": "nonpayable",
      "type": "function"
    },
    {
      "constant": true,
      "inputs": [
        {
          "name": "TeacherAddr",
          "type": "address"
        }
      ],
      "name": "DumpRevokeList",
      "outputs": [
        {
          "name": "",
          "type": "uint256[]"
        },
        {
          "name": "",
          "type": "bytes32[2][]"
        }
      ],
      "payable": false,
      "stateMutability": "view",
      "type": "function"
    },
    {
      "constant": true,
      "inputs": [
        {
          "name": "TeacherAddr",
          "type": "address"
        }
      ],
      "name": "DumpRevokeName",
      "outputs": [
        {
          "name": "",
          "type": "bytes32[]"
        },
        {
          "name": "",
          "type": "bool[]"
        }
      ],
      "payable": false,
      "stateMutability": "view",
      "type": "function"
    },
    {
      "constant": true,
      "inputs": [
        {
          "name": "TeacherAddr",
          "type": "address"
        },
        {
          "name": "_queryhash",
          "type": "string"
        }
      ],
      "name": "ISOngoing",
      "outputs": [
        {
          "name": "",
          "type": "bool"
        },
        {
          "name": "",
          "type": "address"
        }
      ],
      "payable": false,
      "stateMutability": "view",
      "type": "function"
    },
    {
      "constant": true,
      "inputs": [],
      "name": "dumpAllRevokeList",
      "outputs": [
        {
          "name": "",
          "type": "bytes1[46][]"
        }
      ],
      "payable": false,
      "stateMutability": "view",
      "type": "function"
    }
  ],
  "bytecode": "0x608060405234801561001057600080fd5b50612cf3806100206000396000f3006080604052600436106100db576000357c0100000000000000000000000000000000000000000000000000000000900463ffffffff1680631ed4a46f146100e057806325554b091461019757806326459174146102205780633adaeee21461028957806346e04301146103cc5780636033014b1461045b57806375a2c5b3146105015780637ffd15b71461057e5780639babc5cd1461060d578063b44180b5146106c9578063c0a973c2146107cc578063d70bd79c146108ac578063e31e8930146109bb578063e693137914610a8f578063f4b694c014610af4575b600080fd5b3480156100ec57600080fd5b50610195600480360381019080803590602001908201803590602001919091929391929390803573ffffffffffffffffffffffffffffffffffffffff1690602001909291908035906020019082018035906020019190919293919293908060800190919291929080356000191690602001909291908035906020019092919080359060200190820180359060200191909192939192939080359060200190929190505050610b75565b005b3480156101a357600080fd5b5061021e600480360381019080803573ffffffffffffffffffffffffffffffffffffffff169060200190929190803590602001908201803590602001908080601f0160208091040260200160405190810160405280939291908181526020018383808284378201915050505050509192919290505050610e8e565b005b34801561022c57600080fd5b50610287600480360381019080803590602001908201803590602001908080601f0160208091040260200160405190810160405280939291908181526020018383808284378201915050505050509192919290505050610ee6565b005b34801561029557600080fd5b506102c260048036038101908080359060200190820180359060200191909192939192939050505061100a565b60405180806020018060200180602001848103845287818151815260200191508051906020019060200280838360005b8381101561030d5780820151818401526020810190506102f2565b50505050905001848103835286818151815260200191508051906020019060200280838360005b8381101561034f578082015181840152602081019050610334565b505050509050018481038252858181518152602001915080516000925b818410156103b757828490602001906020020151600360200280838360005b838110156103a657808201518184015260208101905061038b565b50505050905001926001019261036c565b92505050965050505050505060405180910390f35b3480156103d857600080fd5b506103e16112de565b60405180806020018281038252838181518152602001915080516000925b8184101561044a57828490602001906020020151602e60200280838360005b8381101561043957808201518184015260208101905061041e565b5050505090500192600101926103ff565b925050509250505060405180910390f35b34801561046757600080fd5b506104b4600480360381019080803573ffffffffffffffffffffffffffffffffffffffff1690602001909291908035906020019082018035906020019190919293919293905050506113d2565b60405180831515151581526020018273ffffffffffffffffffffffffffffffffffffffff1673ffffffffffffffffffffffffffffffffffffffff1681526020019250505060405180910390f35b34801561050d57600080fd5b5061057c600480360381019080803573ffffffffffffffffffffffffffffffffffffffff1690602001909291908060400190919291929080359060200190820180359060200191909192939192939080356000191690602001909291908035906020019092919050505061148c565b005b34801561058a57600080fd5b506105b36004803603810190808035906020019092919080359060200190929190505050611609565b60405180827effffffffffffffffffffffffffffffffffffffffffffffffffffffffffffff19167effffffffffffffffffffffffffffffffffffffffffffffffffffffffffffff1916815260200191505060405180910390f35b34801561061957600080fd5b5061064e600480360381019080803573ffffffffffffffffffffffffffffffffffffffff16906020019092919050505061166f565b6040518080602001828103825283818151815260200191508051906020019080838360005b8381101561068e578082015181840152602081019050610673565b50505050905090810190601f1680156106bb5780820380516001836020036101000a031916815260200191505b509250505060405180910390f35b3480156106d557600080fd5b5061070a600480360381019080803573ffffffffffffffffffffffffffffffffffffffff169060200190929190505050611750565b604051808060200180602001838103835285818151815260200191508051906020019060200280838360005b83811015610751578082015181840152602081019050610736565b505050509050018381038252848181518152602001915080516000925b818410156107b957828490602001906020020151600260200280838360005b838110156107a857808201518184015260208101905061078d565b50505050905001926001019261076e565b9250505094505050505060405180910390f35b3480156107d857600080fd5b5061080d600480360381019080803573ffffffffffffffffffffffffffffffffffffffff1690602001909291905050506119e7565b604051808060200180602001838103835285818151815260200191508051906020019060200280838360005b83811015610854578082015181840152602081019050610839565b50505050905001838103825284818151815260200191508051906020019060200280838360005b8381101561089657808201518184015260208101905061087b565b5050505090500194505050505060405180910390f35b3480156108b857600080fd5b506108e5600480360381019080803590602001908201803590602001919091929391929390505050611d1d565b60405180871515151581526020018673ffffffffffffffffffffffffffffffffffffffff1673ffffffffffffffffffffffffffffffffffffffff168152602001806020018560001916600019168152602001848152602001838152602001828103825286818151815260200191508051906020019080838360005b8381101561097b578082015181840152602081019050610960565b50505050905090810190601f1680156109a85780820380516001836020036101000a031916815260200191505b5097505050505050505060405180910390f35b3480156109c757600080fd5b50610a14600480360381019080803590602001908201803590602001919091929391929390803573ffffffffffffffffffffffffffffffffffffffff169060200190929190505050611f67565b6040518080602001828103825283818151815260200191508051906020019080838360005b83811015610a54578082015181840152602081019050610a39565b50505050905090810190601f168015610a815780820380516001836020036101000a031916815260200191505b509250505060405180910390f35b348015610a9b57600080fd5b50610af2600480360381019080803590602001908201803590602001919091929391929390803573ffffffffffffffffffffffffffffffffffffffff169060200190929190806060019091929192905050506121ee565b005b348015610b0057600080fd5b50610b5b600480360381019080803590602001908201803590602001908080601f0160208091040260200160405190810160405280939291908181526020018383808284378201915050505050509192919290505050612531565b604051808215151515815260200191505060405180910390f35b610b7d6128ca565b60008a60028e8e60405180838380828437820191505092505050908152602001604051809103902060000160006101000a81548173ffffffffffffffffffffffffffffffffffffffff021916908373ffffffffffffffffffffffffffffffffffffffff160217905550600060028e8e604051808383808284378201915050925050509081526020016040518091039020600401819055508760028e8e604051808383808284378201915050925050509081526020016040518091039020600801906004610c4b92919061290a565b508260028e8e604051808383808284378201915050925050509081526020016040518091039020600c0181905550600090505b89899050811015610ddf578989828181101515610c9757fe5b9050602002013573ffffffffffffffffffffffffffffffffffffffff16826020019073ffffffffffffffffffffffffffffffffffffffff16908173ffffffffffffffffffffffffffffffffffffffff1681525050600082604001901515908115158152505060028d8d6040518083838082843782019150509250505090815260200160405180910390206001018290806001815401808255809150509060018203906000526020600020906004020160009091929091909150600082015181600001906003610d67929190612954565b5060208201518160030160006101000a81548173ffffffffffffffffffffffffffffffffffffffff021916908373ffffffffffffffffffffffffffffffffffffffff16021790555060408201518160030160146101000a81548160ff0219169083151502179055505050508080600101915050610c7e565b8989905060028e8e60405180838380828437820191505092505050908152602001604051809103902060050181905550610e7f8d8d8080601f016020809104026020016040519081016040528093929190818152602001838380828437820191505050505050888888888080601f0160208091040260200160405190810160405280939291908181526020018383808284378201915050505050506125b6565b50505050505050505050505050565b80600160008473ffffffffffffffffffffffffffffffffffffffff1673ffffffffffffffffffffffffffffffffffffffff1681526020019081526020016000209080519060200190610ee192919061299a565b505050565b6060610ef0612a1a565b6000839250600090505b8251811015610fc6578281815181101515610f1157fe5b9060200101517f010000000000000000000000000000000000000000000000000000000000000090047f0100000000000000000000000000000000000000000000000000000000000000028282602e81101515610f6a57fe5b60200201907effffffffffffffffffffffffffffffffffffffffffffffffffffffffffffff191690817effffffffffffffffffffffffffffffffffffffffffffffffffffffffffffff1916815250508080600101915050610efa565b6000829080600181540180825580915050906001820390600052602060002090600202016000909192909190915090602e611002929190612a3e565b505050505050565b606080606060006060806060600060028a8a604051808383808284378201915050925050509081526020016040518091039020600101805490509450846040519080825280602002602001820160405280156110755781602001602082028038833980820191505090505b509350846040519080825280602002602001820160405280156110a75781602001602082028038833980820191505090505b509250846040519080825280602002602001820160405280156110e457816020015b6110d1612af8565b8152602001906001900390816110c95790505b509150600090505b848110156112c95760028a8a6040518083838082843782019150509250505090815260200160405180910390206001018181548110151561112957fe5b906000526020600020906004020160030160009054906101000a900473ffffffffffffffffffffffffffffffffffffffff16848281518110151561116957fe5b9060200190602002019073ffffffffffffffffffffffffffffffffffffffff16908173ffffffffffffffffffffffffffffffffffffffff168152505060028a8a604051808383808284378201915050925050509081526020016040518091039020600101818154811015156111da57fe5b906000526020600020906004020160030160149054906101000a900460ff16838281518110151561120757fe5b906020019060200201901515908115158152505060028a8a6040518083838082843782019150509250505090815260200160405180910390206001018181548110151561125057fe5b906000526020600020906004020160000160038060200260405190810160405280929190826003801561129c576020028201915b81546000191681526020019060010190808311611284575b505050505082828151811015156112af57fe5b9060200190602002018190525080806001019150506110ec565b83838397509750975050505050509250925092565b60606000805480602002602001604051908101604052809291908181526020016000905b828210156113c95783829060005260206000209060020201602e806020026040519081016040528092919082602e80156113b5576020028201916000905b82829054906101000a90047f0100000000000000000000000000000000000000000000000000000000000000027effffffffffffffffffffffffffffffffffffffffffffffffffffffffffffff1916815260200190600101906020826000010492830192600103820291508084116113405790505b505050505081526020019060010190611302565b50505050905090565b600080600115156005858560405180838380828437820191505092505050908152602001604051809103902060009054906101000a900460ff16151514801561146b575060011515600460008773ffffffffffffffffffffffffffffffffffffffff1673ffffffffffffffffffffffffffffffffffffffff16815260200190815260200160002060009054906101000a900460ff161515145b1561147c5760018591509150611484565b600085915091505b935093915050565b600360008773ffffffffffffffffffffffffffffffffffffffff1673ffffffffffffffffffffffffffffffffffffffff1681526020019081526020016000206080604051908101604052808760028060200260405190810160405280929190826002602002808284378201915050505050815260200186868080601f016020809104026020016040519081016040528093929190818152602001838380828437820191505050505050815260200184600019168152602001838152509080600181540180825580915050906001820390600052602060002090600502016000909192909190915060008201518160000190600261158a929190612b1b565b5060208201518160020190805190602001906115a7929190612b61565b5060408201518160030190600019169055606082015181600401555050506116018685858080601f016020809104026020016040519081016040528093929190818152602001838380828437820191505050505050612729565b505050505050565b60008281548110151561161857fe5b906000526020600020906002020181602e8110151561163357fe5b60209182820401919006915091509054906101000a90047f01000000000000000000000000000000000000000000000000000000000000000281565b6060600160008373ffffffffffffffffffffffffffffffffffffffff1673ffffffffffffffffffffffffffffffffffffffff1681526020019081526020016000208054600181600116156101000203166002900480601f0160208091040260200160405190810160405280929190818152602001828054600181600116156101000203166002900480156117445780601f1061171957610100808354040283529160200191611744565b820191906000526020600020905b81548152906001019060200180831161172757829003601f168201915b50505050509050919050565b6060806060806000600360008773ffffffffffffffffffffffffffffffffffffffff1673ffffffffffffffffffffffffffffffffffffffff168152602001908152602001600020805490506040519080825280602002602001820160405280156117d457816020015b6117c1612be1565b8152602001906001900390816117b95790505b509250600360008773ffffffffffffffffffffffffffffffffffffffff1673ffffffffffffffffffffffffffffffffffffffff168152602001908152602001600020805490506040519080825280602002602001820160405280156118485781602001602082028038833980820191505090505b509150600090505b600360008773ffffffffffffffffffffffffffffffffffffffff1673ffffffffffffffffffffffffffffffffffffffff168152602001908152602001600020805490508110156119d957600360008773ffffffffffffffffffffffffffffffffffffffff1673ffffffffffffffffffffffffffffffffffffffff168152602001908152602001600020818154811015156118e657fe5b9060005260206000209060050201600001600280602002604051908101604052809291908260028015611932576020028201915b8154600019168152602001906001019080831161191a575b5050505050838281518110151561194557fe5b90602001906020020181905250600360008773ffffffffffffffffffffffffffffffffffffffff1673ffffffffffffffffffffffffffffffffffffffff1681526020019081526020016000208181548110151561199e57fe5b90600052602060002090600502016004015482828151811015156119be57fe5b90602001906020020181815250508080600101915050611850565b818394509450505050915091565b6060806060806000600360008773ffffffffffffffffffffffffffffffffffffffff1673ffffffffffffffffffffffffffffffffffffffff16815260200190815260200160002080549050604051908082528060200260200182016040528015611a605781602001602082028038833980820191505090505b509250600360008773ffffffffffffffffffffffffffffffffffffffff1673ffffffffffffffffffffffffffffffffffffffff16815260200190815260200160002080549050604051908082528060200260200182016040528015611ad45781602001602082028038833980820191505090505b509150600090505b600360008773ffffffffffffffffffffffffffffffffffffffff1673ffffffffffffffffffffffffffffffffffffffff16815260200190815260200160002080549050811015611d0f57600360008773ffffffffffffffffffffffffffffffffffffffff1673ffffffffffffffffffffffffffffffffffffffff16815260200190815260200160002081815481101515611b7257fe5b9060005260206000209060050201600301548382815181101515611b9257fe5b90602001906020020190600019169081600019168152505060011515611cac600360008973ffffffffffffffffffffffffffffffffffffffff1673ffffffffffffffffffffffffffffffffffffffff16815260200190815260200160002083815481101515611bfd57fe5b90600052602060002090600502016002018054600181600116156101000203166002900480601f016020809104026020016040519081016040528092919081815260200182805460018160011615610100020316600290048015611ca25780601f10611c7757610100808354040283529160200191611ca2565b820191906000526020600020905b815481529060010190602001808311611c8557829003601f168201915b5050505050612531565b15151415611cdd5760018282815181101515611cc457fe5b9060200190602002019015159081151581525050611d02565b60008282815181101515611ced57fe5b90602001906020020190151590811515815250505b8080600101915050611adc565b828294509450505050915091565b600080606060008060008060006060600080600060011515611d708f8f8080601f016020809104026020016040519081016040528093929190818152602001838380828437820191505050505050612809565b15151415611f565760028e8e60405180838380828437820191505092505050908152602001604051809103902060000160009054906101000a900473ffffffffffffffffffffffffffffffffffffffff16955060028e8e60405180838380828437820191505092505050908152602001604051809103902060020160009054906101000a900460ff16945060028e8e6040518083838082843782019150509250505090815260200160405180910390206003018054600181600116156101000203166002900480601f016020809104026020016040519081016040528092919081815260200182805460018160011615610100020316600290048015611eb75780601f10611e8c57610100808354040283529160200191611eb7565b820191906000526020600020905b815481529060010190602001808311611e9a57829003601f168201915b5050505050935060028e8e60405180838380828437820191505092505050908152602001604051809103902060070154925060028e8e604051808383808284378201915050925050509081526020016040518091039020600c0154915060028e8e6040518083838082843782019150509250505090815260200160405180910390206006015490508486858585859b509b509b509b509b509b50611f57565b5b5050505050509295509295509295565b606060008060011515611fab87878080601f016020809104026020016040519081016040528093929190818152602001838380828437820191505050505050612809565b151514156121ac5760028686604051808383808284378201915050925050509081526020016040518091039020600101805490509150600090505b8181101561216f578373ffffffffffffffffffffffffffffffffffffffff16600287876040518083838082843782019150509250505090815260200160405180910390206001018281548110151561203a57fe5b906000526020600020906004020160030160009054906101000a900473ffffffffffffffffffffffffffffffffffffffff1673ffffffffffffffffffffffffffffffffffffffff161415612162576001151560028787604051808383808284378201915050925050509081526020016040518091039020600101828154811015156120c157fe5b906000526020600020906004020160030160149054906101000a900460ff1615151415612125576040805190810160405280601981526020017f6164647265737320616c726561647920636f6e6669726d65640000000000000081525092506121e5565b6040805190810160405280600281526020017f6f6b00000000000000000000000000000000000000000000000000000000000081525092506121e5565b8080600101915050611fe6565b6040805190810160405280601181526020017f61646472657373206e6f7420666f756e6400000000000000000000000000000081525092506121e5565b6040805190810160405280601a81526020017f63657274696669636174652068617368206e6f7420657869737400000000000081525092505b50509392505050565b60008060006001151561223288888080601f016020809104026020016040519081016040528093929190818152602001838380828437820191505050505050612809565b1515141561252857600287876040518083838082843782019150509250505090815260200160405180910390206001018054905092506103e89150600090505b828110801561228257506103e882145b15612395578473ffffffffffffffffffffffffffffffffffffffff1660028888604051808383808284378201915050925050509081526020016040518091039020600101828154811015156122d357fe5b906000526020600020906004020160030160009054906101000a900473ffffffffffffffffffffffffffffffffffffffff1673ffffffffffffffffffffffffffffffffffffffff1614801561237f575060001515600288886040518083838082843782019150509250505090815260200160405180910390206001018281548110151561235c57fe5b906000526020600020906004020160030160149054906101000a900460ff161515145b15612388578091505b8080600101915050612272565b6103e88214151561252757600160028888604051808383808284378201915050925050509081526020016040518091039020600101838154811015156123d757fe5b906000526020600020906004020160030160146101000a81548160ff02191690831515021790555083600288886040518083838082843782019150509250505090815260200160405180910390206001018381548110151561243557fe5b9060005260206000209060040201600001906003612454929190612c03565b50600160028888604051808383808284378201915050925050509081526020016040518091039020600401600082825401925050819055506002878760405180838380828437820191505092505050908152602001604051809103902060050154600288886040518083838082843782019150509250505090815260200160405180910390206004015414156125265760016002888860405180838380828437820191505092505050908152602001604051809103902060020160006101000a81548160ff0219169083151502179055505b5b5b50505050505050565b60006002826040518082805190602001908083835b60208310151561256b5780518252602082019150602081019050602083039250612546565b6001836020036101000a038019825116818451168082178552505050505050905001915050908152602001604051809103902060020160009054906101000a900460ff169050919050565b826002856040518082805190602001908083835b6020831015156125ef57805182526020820191506020810190506020830392506125ca565b6001836020036101000a03801982511681845116808217855250505050505090500191505090815260200160405180910390206007018160001916905550816002856040518082805190602001908083835b6020831015156126665780518252602082019150602081019050602083039250612641565b6001836020036101000a038019825116818451168082178552505050505050905001915050908152602001604051809103902060060181905550806002856040518082805190602001908083835b6020831015156126d957805182526020820191506020810190506020830392506126b4565b6001836020036101000a0380198251168184511680821785525050505050509050019150509081526020016040518091039020600301908051906020019061272292919061299a565b5050505050565b60016005826040518082805190602001908083835b602083101515612763578051825260208201915060208101905060208303925061273e565b6001836020036101000a038019825116818451168082178552505050505050905001915050908152602001604051809103902060006101000a81548160ff0219169083151502179055506001600460008473ffffffffffffffffffffffffffffffffffffffff1673ffffffffffffffffffffffffffffffffffffffff16815260200190815260200160002060006101000a81548160ff0219169083151502179055505050565b6000806002836040518082805190602001908083835b602083101515612844578051825260208201915060208101905060208303925061281f565b6001836020036101000a038019825116818451168082178552505050505050905001915050908152602001604051809103902060000160009054906101000a900473ffffffffffffffffffffffffffffffffffffffff1673ffffffffffffffffffffffffffffffffffffffff1614156128c057600090506128c5565b600190505b919050565b60a0604051908101604052806128de612af8565b8152602001600073ffffffffffffffffffffffffffffffffffffffff1681526020016000151581525090565b8260048101928215612943579160200282015b828111156129425782356000191682906000191690559160200191906001019061291d565b5b5090506129509190612c4d565b5090565b8260038101928215612989579160200282015b82811115612988578251829060001916905591602001919060010190612967565b5b5090506129969190612c4d565b5090565b828054600181600116156101000203166002900490600052602060002090601f016020900481019282601f106129db57805160ff1916838001178555612a09565b82800160010185558215612a09579182015b82811115612a085782518255916020019190600101906129ed565b5b509050612a169190612c72565b5090565b6105c060405190810160405280602e90602082028038833980820191505090505090565b82602e601f01602090048101928215612ae75791602002820160005b83821115612ab857835183826101000a81548160ff02191690837f0100000000000000000000000000000000000000000000000000000000000000900402179055509260200192600101602081600001049283019260010302612a5a565b8015612ae55782816101000a81549060ff0219169055600101602081600001049283019260010302612ab8565b505b509050612af49190612c97565b5090565b606060405190810160405280600390602082028038833980820191505090505090565b8260028101928215612b50579160200282015b82811115612b4f578251829060001916905591602001919060010190612b2e565b5b509050612b5d9190612c4d565b5090565b828054600181600116156101000203166002900490600052602060002090601f016020900481019282601f10612ba257805160ff1916838001178555612bd0565b82800160010185558215612bd0579182015b82811115612bcf578251825591602001919060010190612bb4565b5b509050612bdd9190612c72565b5090565b6040805190810160405280600290602082028038833980820191505090505090565b8260038101928215612c3c579160200282015b82811115612c3b57823560001916829060001916905591602001919060010190612c16565b5b509050612c499190612c4d565b5090565b612c6f91905b80821115612c6b576000816000905550600101612c53565b5090565b90565b612c9491905b80821115612c90576000816000905550600101612c78565b5090565b90565b612cc491905b80821115612cc057600081816101000a81549060ff021916905550600101612c9d565b5090565b905600a165627a7a72305820b42d2e4561ea2f468beaf7e295b238ca076a389fb6b0ccb47ff302f8d20e81940029",
  "source": "pragma solidity ^0.4.21;\ncontract RevocationList{\n\n    bytes1[46][] public AllDumpList;\n    \n    struct SigningRecord{       // record of certificate\n        bytes32[3] SignString;  // signature string\n        address addr;           // singing address\n        bool confirm;           // confirm\n    }\n    \n    struct RevocAddr {          // certificate\n        address Applier;    //who apply to revocate this certHash\n        SigningRecord[] record;    //2 or three sign needed\n        bool isRevoc;       // whether is Revoc\n        string Reason;\n        uint cnt;\n        uint TargetCnt;\n        uint timestamp;      // record timestamp\n        bytes32 certName;    // name of this certificate\n        bytes32[4]  plainString;    // plain string\n        uint certID;\n    }\n    \n    struct OngoingRevoke{        \n        bytes32[2] ipfshash;    // ipfshash file to revoke,split to two bytes32\n        string queryhash;\n        bytes32 CertName;\n        uint certID;\n    }\n\n    mapping(address => string) ownTempCert;\n\n    mapping(string => RevocAddr) revocaddr; // hashRevocAddr\n\n    mapping(address => OngoingRevoke[]) TeacherConfirmList;  // \n\n    mapping(address => bool) RevokeOngoing_Teacher;\n\n    mapping(string => bool) RevokeOngoing_Cert;\n\n    function updateTempCert(address own, string ipfsAddr) public {\n        ownTempCert[own] = ipfsAddr;\n    }\n\n    function getTempCert(address own) view public returns(string) {\n        return ownTempCert[own];\n    }\n\n    //check if a hash is revoc\n    function checkList(string _queryhash) view public returns(bool){\n       return revocaddr[_queryhash].isRevoc;\n    }\n    \n    // set certificate time , certificate name ,Applier sign string\n    function setCertTime(string _queryhash,bytes32 _certName,uint TimeStamp,string _reason) internal{\n        revocaddr[_queryhash].certName = _certName;\n        revocaddr[_queryhash].timestamp = TimeStamp;\n        revocaddr[_queryhash].Reason = _reason;\n    }\n    \n    // apply a hash to be revoked but not yet confirm\n    function addList(string _queryhash,address _applier,address[] TeacherAddr,bytes32[4] stringToSign,bytes32 _certName,uint TimeStamp,string _reason,uint _certID) external{\n        revocaddr[_queryhash].Applier = _applier;\n        revocaddr[_queryhash].cnt = 0;\n        revocaddr[_queryhash].plainString = stringToSign;\n        revocaddr[_queryhash].certID = _certID;\n        SigningRecord memory tmp;\n        for(uint i = 0 ; i < TeacherAddr.length ; i++){\n            tmp.addr = TeacherAddr[i];\n            tmp.confirm = false;\n            revocaddr[_queryhash].record.push(tmp);\n        }\n        revocaddr[_queryhash].TargetCnt = TeacherAddr.length;\n        setCertTime(_queryhash,_certName,TimeStamp,_reason);\n    }\n\n    function addAllRevokeList(string _queryhash) public {\n        bytes memory bQueryhash = bytes(_queryhash);\n        bytes1[46] memory tempHash;\n        for(uint j=0; j<bQueryhash.length; j++) {\n            tempHash[j] = bQueryhash[j];\n        }\n        AllDumpList.push(tempHash);\n    }\n    \n    //check if queryhash exist\n    function checkInternal(string _queryhash) internal view returns(bool){\n        if(revocaddr[_queryhash].Applier == 0)\n            return false;\n        return true;\n    }\n\n    // dump address array part of dump data\n    function dumpArray(string _queryhash) external view returns(address[],bool[],bytes32[3][]) {\n        uint len = revocaddr[_queryhash].record.length;\n        address[] memory outputAddr = new address[](len);\n        bool[] memory outputconfirm = new bool[](len);\n        bytes32[3][] memory outputSign = new bytes32[3][](len);\n         for(uint i = 0  ; i < len ; i++){\n            outputAddr[i] = revocaddr[_queryhash].record[i].addr;\n            outputconfirm[i] = revocaddr[_queryhash].record[i].confirm;\n            outputSign[i] = revocaddr[_queryhash].record[i].SignString;\n        }\n        return (outputAddr,outputconfirm,outputSign);\n    }\n\n    // dump cert data\n    function dumpData(string _queryhash) external view returns(bool ,address ,string ,bytes32, uint, uint){\n        if(checkInternal(_queryhash) == true){\n            address applier = revocaddr[_queryhash].Applier;\n            bool isRevoc = revocaddr[_queryhash].isRevoc;\n            string memory reason = revocaddr[_queryhash].Reason;\n            bytes32 CertName = revocaddr[_queryhash].certName;\n            //bytes32[4] memory outputString =  revocaddr[_queryhash].plainString;\n            uint certID = revocaddr[_queryhash].certID;\n            uint timestamp = revocaddr[_queryhash].timestamp;\n            return (isRevoc, applier, reason, CertName, certID, timestamp);\n        }\n    }\n\n    // check teacher Sig\n    function getSignString(string _queryhash,address _TeacherAddr,bytes32[3] _SignString) external{\n        if(checkInternal(_queryhash) == true){\n            uint len = revocaddr[_queryhash].record.length;\n            uint FIND = 1000;\n            for(uint i = 0 ; i < len && FIND==1000 ; i++){\n                if(revocaddr[_queryhash].record[i].addr == _TeacherAddr && revocaddr[_queryhash].record[i].confirm == false){\n                    FIND = i;\n                }\n            }\n            if(FIND != 1000){\n                revocaddr[_queryhash].record[FIND].confirm = true;\n                revocaddr[_queryhash].record[FIND].SignString = _SignString;\n                revocaddr[_queryhash].cnt += 1;\n                if(revocaddr[_queryhash].cnt == revocaddr[_queryhash].TargetCnt){\n                    revocaddr[_queryhash].isRevoc = true;   //revoke cert if all sign from teacher collected\n                }\n            }\n        }\n    }\n    \n    function checkSig(string _queryhash,address _TeacherAddr) external view returns(string){\n         if(checkInternal(_queryhash) == true){\n            uint len = revocaddr[_queryhash].record.length;\n            for(uint i = 0 ; i < len ; i++){\n                if(revocaddr[_queryhash].record[i].addr == _TeacherAddr){\n                    if(revocaddr[_queryhash].record[i].confirm == true){\n                        return \"address already confirmed\";\n                    }\n                    else{\n                        return \"ok\";\n                    }\n                }\n            }\n            return \"address not found\";\n         }\n         return \"certificate hash not exist\";\n    }\n\n    // add revocation to ongoing list\n    function addTeacherRevokeList(address TeacherAddr,bytes32[2] _ipfshash,string _queryhash,bytes32 CertName,uint _certID) external{\n        TeacherConfirmList[TeacherAddr].push(OngoingRevoke(_ipfshash,_queryhash,CertName,_certID));\n        AddOngoing(TeacherAddr,_queryhash);\n    }\n\n    // Dump ongoing revoke list for a certain teacher , output ipfshash\n    function DumpRevokeList(address TeacherAddr)  external view returns(uint[],bytes32[2][]){\n        bytes32[2][] memory ipfsLists = new bytes32[2][](TeacherConfirmList[TeacherAddr].length);\n        uint[] memory outputint = new uint[](TeacherConfirmList[TeacherAddr].length);\n        for(uint i = 0 ; i < TeacherConfirmList[TeacherAddr].length ; i++){\n            ipfsLists[i] = TeacherConfirmList[TeacherAddr][i].ipfshash;\n            outputint[i] = TeacherConfirmList[TeacherAddr][i].certID;\n        }\n        return (outputint,ipfsLists);\n    }\n    // dump ongoing revoke for isrevoc and Certificate name\n    function DumpRevokeName(address TeacherAddr) external view returns(bytes32[],bool[]){\n         bytes32[] memory CertList = new bytes32[](TeacherConfirmList[TeacherAddr].length);\n         bool[] memory outputbool = new bool[](TeacherConfirmList[TeacherAddr].length);\n          for(uint i = 0 ; i < TeacherConfirmList[TeacherAddr].length ; i++){\n             CertList[i] = TeacherConfirmList[TeacherAddr][i].CertName;\n             if(checkList(TeacherConfirmList[TeacherAddr][i].queryhash) == true){\n                outputbool[i] = true;\n             }\n             else{\n                outputbool[i] = false;\n             }\n        }\n        return (CertList,outputbool);\n    }\n\n    // set boolean to true\n    function AddOngoing(address TeacherAddr,string _queryhash) internal{\n        RevokeOngoing_Cert[_queryhash] = true;\n        RevokeOngoing_Teacher[TeacherAddr] = true;\n    }\n\n    // is  revocation ongoing\n    function ISOngoing(address TeacherAddr,string _queryhash) external view returns(bool,address){\n        if(RevokeOngoing_Cert[_queryhash] == true && RevokeOngoing_Teacher[TeacherAddr]== true){\n            return (true,TeacherAddr);\n        }\n        return (false,TeacherAddr);\n    }\n\n    // util\n    function stringToBytes32(string memory source) pure internal returns (bytes32 result) {\n        bytes memory tempEmptyStringTest = bytes(source);\n        if (tempEmptyStringTest.length == 0) {\n            return 0x0;\n        }\n        \n        assembly {\n            result := mload(add(source, 32))\n        }        \n    }\n\n    function dumpAllRevokeList() public view returns (bytes1[46][]) {\n        return (AllDumpList);\n    }\n}",
  "sourcePath": "/home/shanehung/Works/dadu3cert-core/cert-contract/contracts/Revoke.sol",
  "compiler": {
    "name": "solc",
    "version": "0.4.24+commit.e67f0147.Emscripten.clang"
  },
  "schemaVersion": "2.0.1",
  "updatedAt": "2019-01-08T02:30:26.820Z"
}